{
  "_format": "hh-sol-artifact-1",
  "contractName": "BridgeExecutor",
  "sourceName": "contracts/BridgeExecutor.sol",
  "abi": [
    {
      "inputs": [
        {
          "internalType": "address",
          "name": "_deBridgeGate",
          "type": "address"
        }
      ],
      "stateMutability": "nonpayable",
      "type": "constructor"
    },
    {
      "inputs": [
        {
          "internalType": "uint256",
          "name": "_chainId",
          "type": "uint256"
        }
      ],
      "name": "addSupportedChain",
      "outputs": [],
      "stateMutability": "nonpayable",
      "type": "function"
    },
    {
      "inputs": [],
      "name": "deBridgeGate",
      "outputs": [
        {
          "internalType": "contract IDeBridgeGate",
          "name": "",
          "type": "address"
        }
      ],
      "stateMutability": "view",
      "type": "function"
    },
    {
      "inputs": [
        {
          "internalType": "uint256",
          "name": "_chainIdTo",
          "type": "uint256"
        },
        {
          "internalType": "address",
          "name": "_receiver",
          "type": "address"
        },
        {
          "internalType": "bytes",
          "name": "_callData",
          "type": "bytes"
        }
      ],
      "name": "executeStrategy",
      "outputs": [],
      "stateMutability": "payable",
      "type": "function"
    },
    {
      "inputs": [
        {
          "internalType": "uint256",
          "name": "_chainId",
          "type": "uint256"
        }
      ],
      "name": "removeSupportedChain",
      "outputs": [],
      "stateMutability": "nonpayable",
      "type": "function"
    },
    {
      "inputs": [],
      "name": "strategyManager",
      "outputs": [
        {
          "internalType": "address",
          "name": "",
          "type": "address"
        }
      ],
      "stateMutability": "view",
      "type": "function"
    },
    {
      "inputs": [
        {
          "internalType": "uint256",
          "name": "",
          "type": "uint256"
        }
      ],
      "name": "supportedChains",
      "outputs": [
        {
          "internalType": "bool",
          "name": "",
          "type": "bool"
        }
      ],
      "stateMutability": "view",
      "type": "function"
    }
  ],
  "bytecode": "0x608034607057601f6105b138819003918201601f19168301916001600160401b03831184841017607557808492602094604052833981010312607057516001600160a01b03811690819003607057600080546001600160a01b031916919091179055604051610525908161008c8239f35b600080fd5b634e487b7160e01b600052604160045260246000fdfe6080604052600436101561001257600080fd5b6000803560e01c80630c4844aa1461044b57806339b70e3814610422578063548d496f146103f357806387188a00146103c5578063aa42e5f6146100885763ca777fbf1461005f57600080fd5b34610085578060031936011261008557546040516001600160a01b039091168152602090f35b80fd5b50606036600319011261008557602435906004356001600160a01b03831683036103c1576044359067ffffffffffffffff82116103bd57366023830112156103bd57816004013567ffffffffffffffff81116103a957604051926100f6601f8301601f191660200185610476565b81845236602483830101116102e1578185926024602093018387013784010152808352600260205260ff60408420541615610370578254604051631a843f8560e11b815292906001600160a01b0316602084600481845afa938415610365578594610331575b508334106102f957604051956080870187811067ffffffffffffffff8211176102e557869761023e91604098979852610230602082019561021d604084016060850192606084528b865260018a5281526040513360601b6020820152601481526101c7603482610476565b8352604051966bffffffffffffffffffffffff199060601b166020880152601487526101f4603488610476565b6040519889956020808801525160408701525160608601525160808086015260c08501906104ae565b9051838203603f190160a08501526104ae565b03601f198101855284610476565b813b156102e15760209585946102b561028995604051998a9788968795635f14ba3b60e11b87528b60048801528b6024880152604487015261010060648701526101048601906104ae565b601c858203600319810160848801528b8352600160a48801528b60c48801520160e486015201906104ae565b03925af180156102d4576102c65780f35b6102cf91610476565b388180f35b50604051903d90823e3d90fd5b8480fd5b634e487b7160e01b87526041600452602487fd5b60405162461bcd60e51b815260206004820152601060248201526f496e73756666696369656e742066656560801b6044820152606490fd5b9093506020813d60201161035d575b8161034d60209383610476565b810103126102e15751923861015c565b3d9150610340565b6040513d87823e3d90fd5b60405162461bcd60e51b81526020600482015260116024820152702ab739bab83837b93a32b21031b430b4b760791b6044820152606490fd5b634e487b7160e01b84526041600452602484fd5b8280fd5b5080fd5b5034610085576020366003190112610085576004358152600260205260408120805460ff1916600117905580f35b50346100855760203660031901126100855760ff60406020926004358152600284522054166040519015158152f35b50346100855780600319360112610085576001546040516001600160a01b039091168152602090f35b5034610085576020366003190112610085576004358152600260205260408120805460ff1916905580f35b90601f8019910116810190811067ffffffffffffffff82111761049857604052565b634e487b7160e01b600052604160045260246000fd5b919082519283825260005b8481106104da575050826000602080949584010152601f8019910116010190565b806020809284010151828286010152016104b956fea2646970667358221220cfcd34e0a271c0519f2f411c7764948cb9b6c822300ed7029ce1dfb029506bb664736f6c634300081c0033",
  "linkReferences": {},
  "deployedLinkReferences": {}
}