{"contracts/StrategyManager.sol":{"StrategyManager":{"abi":[{"inputs":[{"internalType":"address","name":"_tradingExecutor","type":"address"},{"internalType":"address","name":"_bridgeExecutor","type":"address"}],"stateMutability":"nonpayable","type":"constructor"},{"anonymous":false,"inputs":[{"indexed":true,"internalType":"address","name":"user","type":"address"}],"name":"SettingsUpdated","type":"event"},{"anonymous":false,"inputs":[{"indexed":true,"internalType":"uint256","name":"strategyId","type":"uint256"},{"indexed":false,"internalType":"string","name":"tokenSymbol","type":"string"}],"name":"SignalAdded","type":"event"},{"anonymous":false,"inputs":[{"indexed":true,"internalType":"uint256","name":"strategyId","type":"uint256"},{"indexed":true,"internalType":"address","name":"creator","type":"address"}],"name":"StrategyCreated","type":"event"},{"anonymous":false,"inputs":[{"indexed":true,"internalType":"uint256","name":"strategyId","type":"uint256"}],"name":"StrategyUpdated","type":"event"},{"inputs":[{"internalType":"uint256","name":"_strategyId","type":"uint256"},{"internalType":"string","name":"_tokenSymbol","type":"string"},{"internalType":"uint8","name":"_sentiment","type":"uint8"},{"internalType":"uint8","name":"_strength","type":"uint8"}],"name":"addSignal","outputs":[],"stateMutability":"nonpayable","type":"function"},{"inputs":[{"internalType":"uint256","name":"","type":"uint256"}],"name":"allStrategyIds","outputs":[{"internalType":"uint256","name":"","type":"uint256"}],"stateMutability":"view","type":"function"},{"inputs":[],"name":"bridgeExecutor","outputs":[{"internalType":"contract IBridgeExecutor","name":"","type":"address"}],"stateMutability":"view","type":"function"},{"inputs":[{"internalType":"string","name":"_name","type":"string"},{"internalType":"string","name":"_description","type":"string"},{"internalType":"uint8","name":"_riskLevel","type":"uint8"}],"name":"createStrategy","outputs":[{"internalType":"uint256","name":"","type":"uint256"}],"stateMutability":"nonpayable","type":"function"},{"inputs":[{"internalType":"uint256","name":"_strategyId","type":"uint256"},{"internalType":"address","name":"_tokenIn","type":"address"},{"internalType":"address","name":"_tokenOut","type":"address"},{"internalType":"uint256","name":"_amountIn","type":"uint256"},{"internalType":"uint256","name":"_minAmountOut","type":"uint256"},{"internalType":"uint8","name":"_sentiment","type":"uint8"}],"name":"executeStrategyTrade","outputs":[],"stateMutability":"nonpayable","type":"function"},{"inputs":[],"name":"getAllStrategyIds","outputs":[{"internalType":"uint256[]","name":"","type":"uint256[]"}],"stateMutability":"view","type":"function"},{"inputs":[{"internalType":"uint256","name":"_strategyId","type":"uint256"}],"name":"getSignals","outputs":[{"components":[{"internalType":"string","name":"tokenSymbol","type":"string"},{"internalType":"uint8","name":"sentiment","type":"uint8"},{"internalType":"uint8","name":"strength","type":"uint8"},{"internalType":"uint256","name":"timestamp","type":"uint256"},{"internalType":"bool","name":"isActive","type":"bool"}],"internalType":"struct StrategyManager.Signal[]","name":"","type":"tuple[]"}],"stateMutability":"view","type":"function"},{"inputs":[{"internalType":"uint256","name":"_strategyId","type":"uint256"}],"name":"getStrategy","outputs":[{"internalType":"string","name":"name","type":"string"},{"internalType":"string","name":"description","type":"string"},{"internalType":"uint8","name":"riskLevel","type":"uint8"},{"internalType":"bool","name":"isActive","type":"bool"},{"internalType":"uint256","name":"performance","type":"uint256"},{"internalType":"address","name":"creator","type":"address"},{"internalType":"uint256","name":"createdAt","type":"uint256"},{"internalType":"uint256","name":"lastUpdated","type":"uint256"},{"internalType":"uint256","name":"signalCount","type":"uint256"}],"stateMutability":"view","type":"function"},{"inputs":[{"internalType":"uint256","name":"","type":"uint256"}],"name":"strategies","outputs":[{"internalType":"string","name":"name","type":"string"},{"internalType":"string","name":"description","type":"string"},{"internalType":"uint8","name":"riskLevel","type":"uint8"},{"internalType":"bool","name":"isActive","type":"bool"},{"internalType":"uint256","name":"performance","type":"uint256"},{"internalType":"address","name":"creator","type":"address"},{"internalType":"uint256","name":"createdAt","type":"uint256"},{"internalType":"uint256","name":"lastUpdated","type":"uint256"},{"internalType":"uint256","name":"signalCount","type":"uint256"}],"stateMutability":"view","type":"function"},{"inputs":[],"name":"strategyCount","outputs":[{"internalType":"uint256","name":"","type":"uint256"}],"stateMutability":"view","type":"function"},{"inputs":[{"internalType":"uint256","name":"","type":"uint256"}],"name":"strategyExists","outputs":[{"internalType":"bool","name":"","type":"bool"}],"stateMutability":"view","type":"function"},{"inputs":[{"internalType":"uint256","name":"","type":"uint256"}],"name":"strategyPerformance","outputs":[{"internalType":"uint256","name":"totalTrades","type":"uint256"},{"internalType":"uint256","name":"successfulTrades","type":"uint256"},{"internalType":"uint256","name":"totalProfit","type":"uint256"},{"internalType":"uint256","name":"averageReturn","type":"uint256"},{"internalType":"uint256","name":"lastTradeTimestamp","type":"uint256"}],"stateMutability":"view","type":"function"},{"inputs":[{"internalType":"uint256","name":"","type":"uint256"}],"name":"strategyRisk","outputs":[{"internalType":"uint256","name":"maxDrawdown","type":"uint256"},{"internalType":"uint256","name":"volatility","type":"uint256"},{"internalType":"uint256","name":"sharpeRatio","type":"uint256"},{"internalType":"uint256","name":"lastUpdated","type":"uint256"}],"stateMutability":"view","type":"function"},{"inputs":[{"internalType":"uint256","name":"","type":"uint256"},{"internalType":"uint256","name":"","type":"uint256"}],"name":"strategySignals","outputs":[{"internalType":"string","name":"tokenSymbol","type":"string"},{"internalType":"uint8","name":"sentiment","type":"uint8"},{"internalType":"uint8","name":"strength","type":"uint8"},{"internalType":"uint256","name":"timestamp","type":"uint256"},{"internalType":"bool","name":"isActive","type":"bool"}],"stateMutability":"view","type":"function"},{"inputs":[],"name":"tradingExecutor","outputs":[{"internalType":"contract ITradingExecutor","name":"","type":"address"}],"stateMutability":"view","type":"function"},{"inputs":[{"internalType":"uint8","name":"_maxRiskLevel","type":"uint8"},{"internalType":"bool","name":"_emailNotifications","type":"bool"},{"internalType":"bool","name":"_pushNotifications","type":"bool"},{"internalType":"uint256","name":"_minSentimentThreshold","type":"uint256"},{"internalType":"uint256","name":"_maxSlippage","type":"uint256"}],"name":"updateSettings","outputs":[],"stateMutability":"nonpayable","type":"function"},{"inputs":[{"internalType":"address","name":"","type":"address"}],"name":"userSettings","outputs":[{"internalType":"uint8","name":"maxRiskLevel","type":"uint8"},{"internalType":"bool","name":"emailNotifications","type":"bool"},{"internalType":"bool","name":"pushNotifications","type":"bool"},{"internalType":"uint256","name":"minSentimentThreshold","type":"uint256"},{"internalType":"uint256","name":"maxSlippage","type":"uint256"}],"stateMutability":"view","type":"function"}],"evm":{"bytecode":{"linkReferences":{},"object":"608034608b57601f61173538819003918201601f19168301916001600160401b038311848410176090578084926040948552833981010312608b57604b602060458360a6565b920160a6565b600680546001600160a01b039384166001600160a01b03199182161790915560078054929093169116179055600060025560405161167b90816100ba8239f35b600080fd5b634e487b7160e01b600052604160045260246000fd5b51906001600160a01b0382168203608b5756fe608080604052600436101561001357600080fd5b60003560e01c90816322068b44146112ae575080632cc3ce4d146112565780633c9126ec14610f195780633dcf281214610e91578063455a4c3f14610cf55780634a05458014610a705780634e526abb14610a225780636ce68a34146109f15780637ef8513a1461097f578063a10bab0b14610956578063b70a58f71461077f578063ca32929b1461030c578063caaa7009146102e3578063cfc0cc3414610250578063d574ea3d146101d1578063dafdbe69146101995763fe10a731146100da57600080fd5b34610194576000366003190112610194576040518060206004549283815201809260046000527f8a35acfbc15ff81a39ae7d344fd709f28e8600b4aa8c65c6b64bfe7fe36bd19b9060005b81811061017e575050508161013b9103826112e5565b6040519182916020830190602084525180915260408301919060005b818110610165575050500390f35b8251845285945060209384019390920191600101610157565b8254845260209093019260019283019201610125565b600080fd5b3461019457602036600319011261019457600435600454811015610194576101c26020916114f0565b90549060031b1c604051908152f35b3461019457602036600319011261019457600435600052600160205260406000206101fb816113a8565b9061024c61020b600183016113a8565b91600281015490600381015460018060a01b03600483015416600583015491600760068501549401549460405198899860ff808460081c169316918a61148d565b0390f35b346101945760203660031901126101945760043580600052600360205261027e60ff60406000205416611521565b60005260016020526040600020600281015461024c600383015460018060a01b0360048501541660058501546006860154916007870154936102cb60016102c48a6113a8565b99016113a8565b9660405198899860ff808460081c169316918a61148d565b34610194576000366003190112610194576006546040516001600160a01b039091168152602090f35b346101945760603660031901126101945760043567ffffffffffffffff81116101945761033d903690600401611307565b60243567ffffffffffffffff81116101945761035d903690600401611307565b9060ff61036861135e565b169081151580610774575b61037c906115b8565b80511561073f5761038e6002546115a9565b918260025560405191610120830183811067ffffffffffffffff8211176105a35760405282526020820193845260408201908152606082019060018252608083016000815260a0840133815260c085019142835260e0860193428552610100870195600087528860005260016020526040600020975180519067ffffffffffffffff82116105a35781906104228b5461136e565b601f81116106ec575b50602090601f83116001146106875760009261067c575b50508160011b916000199060031b1c19161788555b600188019951998a5167ffffffffffffffff81116105a357610479825461136e565b601f8111610634575b506020601f82116001146105c45790806104e49594939260079c9d9e6000926105b9575b50508160011b916000199060031b1c19161790555b905160028a018054925161ff0090151560081b1660ff90921661ffff1990931692909217179055565b516003870155600486019060018060a01b039051166bffffffffffffffffffffffff60a01b825416179055516005850155516006840155519101558060005260036020526040600020600160ff1982541617905560045490680100000000000000008210156105a35761055f826001602094016004556114f0565b81549060031b9083821b91600019901b19161790556040519033817f899fe949a0013a461f6497b6a40c0d8b01d554a7b67ef6aa1c730298baf23d9f600080a38152f35b634e487b7160e01b600052604160045260246000fd5b015190508e806104a6565b601f1982169083600052806000209160005b81811061061c575091839160079d9e9f6104e49897969560019510610603575b505050811b0190556104bb565b015160001960f88460031b161c191690558e80806105f6565b8f8301518455600190930192602092830192016105d6565b826000526020600020601f830160051c81019160208410610672575b601f0160051c01905b8181106106665750610482565b60008155600101610659565b9091508190610650565b015190508c80610442565b60008c81528281209350601f198516905b8181106106d457509084600195949392106106bb575b505050811b018855610457565b015160001960f88460031b161c191690558c80806106ae565b92936020600181928786015181550195019301610698565b9091508a6000526020600020601f840160051c81019160208510610735575b90601f859493920160051c01905b818110610726575061042b565b60008155849350600101610719565b909150819061070b565b60405162461bcd60e51b815260206004820152600d60248201526c13985b59481c995c5d5a5c9959609a1b6044820152606490fd5b506005821115610373565b34610194576020366003190112610194576004358060005260036020526107ad60ff60406000205416611521565b8060005260016020526007604060002001546107c8816115f9565b916107d660405193846112e5565b818352601f196107e5836115f9565b0160005b81811061091c57505060005b82811061089d57836040518091602082016020835281518091526040830190602060408260051b8601019301916000905b82821061083557505050500390f35b919360019193955060208091603f19898203018552875190608080610863845160a0855260a085019061144c565b9360ff86820151168685015260ff604082015116604085015260608101516060850152015115159101529601920192018594939192610826565b600190826000526000602052604060002081600052602052604060002060ff6003604051926108cb846112c9565b6108d4816113a8565b84528286820154818116602087015260081c166040850152600281015460608501520154161515608082015261090a8287611611565b526109158186611611565b50016107f5565b60209060405161092b816112c9565b60608152600083820152600060408201526000606082015260006080820152828288010152016107e9565b34610194576000366003190112610194576007546040516001600160a01b039091168152602090f35b34610194576020366003190112610194576004356001600160a01b0381169081900361019457600052600560205260a06040600020805490600260018201549101549060ff604051938181168552818160081c161515602086015260101c161515604084015260608301526080820152f35b34610194576020366003190112610194576004356000526003602052602060ff604060002054166040519015158152f35b34610194576020366003190112610194576004356000526009602052608060406000208054906001810154906003600282015491015491604051938452602084015260408301526060820152f35b346101945760c0366003190112610194576024356001600160a01b0381169060043590829003610194576044356001600160a01b0381169290839003610194576064359060a4359360ff851680950361019457836000526003602052610add60ff60406000205416611521565b8360005260016020526040600020610b0260018060a01b036004830154163314611566565b33600052600560205260ff600260406000209201541660ff82541610610cc057600101548510610c875760a4602092600060018060a01b036006541660405198899586946325f4fecb60e21b865260048601526024850152876044850152608435606485015260848401525af1928315610c7b57600093610c44575b50816000526008602052604060002092610b9884546115a9565b91828555808211610bd7575b5050610bb4906002840154611625565b918260038201556004429101556000526001602052600360406000200155600080f35b60018501610be581546115a9565b905580820391808311610c2e578161271084029384046127101491141715610c2e57610c1091611625565b9060028401918254908101809111610c2e57610bb492559084610ba4565b634e487b7160e01b600052601160045260246000fd5b90926020823d602011610c73575b81610c5f602093836112e5565b81010312610c705750519183610b7e565b80fd5b3d9150610c52565b6040513d6000823e3d90fd5b60405162461bcd60e51b815260206004820152601160248201527053656e74696d656e7420746f6f206c6f7760781b6044820152606490fd5b60405162461bcd60e51b815260206004820152600d60248201526c0a4d2e6d640e8dede40d0d2ced609b1b6044820152606490fd5b346101945760a03660031901126101945760043560ff81168091036101945760243580151580910361019457604435801515809103610194576064356084359184151580610e86575b610d47906115b8565b60648211610e41576103e88311610e0457610dbb60029460405196610d6b886112c9565b87526020808801918252604080890194855260608901958652608089019687523360009081526005909252902096518754915161ffff1990921660ff919091161790151560081b61ff0016178655565b51845462ff0000191690151560101b62ff00001617845551600184015551910155337f757e3917b98948432f4a75b39769c28f626030915d88ffb09b2d52fc6420122b600080a2005b60405162461bcd60e51b815260206004820152601560248201527409ac2f040e6d8d2e0e0c2ceca40e8dede40d0d2ced605b1b6044820152606490fd5b60405162461bcd60e51b815260206004820152601b60248201527f496e76616c69642073656e74696d656e74207468726573686f6c6400000000006044820152606490fd5b506005851115610d3e565b346101945760403660031901126101945760043560005260006020526040600020602435600052602052610ef76040600020610ecc816113a8565b9060018101549060ff60036002830154920154169060ff60405195869560a0875260a087019061144c565b93818116602087015260081c1660408501526060840152151560808301520390f35b346101945760803660031901126101945760043560243567ffffffffffffffff811161019457610f4d903690600401611307565b610f5561135e565b6064359060ff82168092036101945760ff90846000526003602052610f808260406000205416611521565b16906064821161121d5780151580611212575b156111da57836000526001602052604060002091610fbe60018060a01b036004850154163314611566565b60405190610fcb826112c9565b848252602082019081526040820192835260608201904282526080830193600185528760005260006020526007604060002096019586546000526020526040600020935180519067ffffffffffffffff82116105a35761102b865461136e565b601f8111611192575b50602090601f83116001146110ff5792827f02d221b5d868f1e666ef5e1ed98e34e8eba3fd6e4bae4f018d2fb337bd4cbb409a989693600396936110ef9b99966000926110f4575b50508160011b9160001990881b1c19161784555b60ff80600186019351161660ff198354161782555161ff0082549160081b169061ff001916179055516002820155019051151560ff801983541691161790556110d981546115a9565b905560405191829160208352602083019061144c565b0390a2005b015190508d8061107c565b90601f1983169187600052816000209260005b81811061117a575093600396936110ef9b999693600193837f02d221b5d868f1e666ef5e1ed98e34e8eba3fd6e4bae4f018d2fb337bd4cbb409f9d9b9810611162575b505050811b018455611090565b0151600019838a1b60f8161c191690558d8080611155565b92936020600181928786015181550195019301611112565b866000526020600020601f840160051c810191602085106111d0575b601f0160051c01905b8181106111c45750611034565b600081556001016111b7565b90915081906111ae565b60405162461bcd60e51b815260206004820152601060248201526f092dcecc2d8d2c840e6e8e4cadccee8d60831b6044820152606490fd5b506005811115610f93565b60405162461bcd60e51b8152602060048201526011602482015270125b9d985b1a59081cd95b9d1a5b595b9d607a1b6044820152606490fd5b3461019457602036600319011261019457600435600052600860205260a06040600020805490600181015490600281015460046003830154920154926040519485526020850152604084015260608301526080820152f35b34610194576000366003190112610194576020906002548152f35b60a0810190811067ffffffffffffffff8211176105a357604052565b90601f8019910116810190811067ffffffffffffffff8211176105a357604052565b81601f820112156101945780359067ffffffffffffffff82116105a3576040519261133c601f8401601f1916602001856112e5565b8284526020838301011161019457816000926020809301838601378301015290565b6044359060ff8216820361019457565b90600182811c9216801561139e575b602083101461138857565b634e487b7160e01b600052602260045260246000fd5b91607f169161137d565b90604051918260008254926113bc8461136e565b808452936001811690811561142a57506001146113e3575b506113e1925003836112e5565b565b90506000929192526020600020906000915b81831061140e5750509060206113e192820101386113d4565b60209193508060019154838589010152019101909184926113f5565b9050602092506113e194915060ff191682840152151560051b820101386113d4565b919082519283825260005b848110611478575050826000602080949584010152601f8019910116010190565b80602080928401015182828601015201611457565b959299989794916114c160ff916114b36101009a97946101208b526101208b019061144c565b9089820360208b015261144c565b9a1660408701521515606086015260808501526001600160a01b031660a084015260c083015260e08201520152565b60045481101561150b57600460005260206000200190600090565b634e487b7160e01b600052603260045260246000fd5b1561152857565b60405162461bcd60e51b815260206004820152601660248201527514dd1c985d1959de48191bd95cdb89dd08195e1a5cdd60521b6044820152606490fd5b1561156d57565b60405162461bcd60e51b81526020600482015260146024820152732737ba1039ba3930ba32b3bc9031b932b0ba37b960611b6044820152606490fd5b6000198114610c2e5760010190565b156115bf57565b60405162461bcd60e51b8152602060048201526012602482015271125b9d985b1a59081c9a5cdac81b195d995b60721b6044820152606490fd5b67ffffffffffffffff81116105a35760051b60200190565b805182101561150b5760209160051b010190565b811561162f570490565b634e487b7160e01b600052601260045260246000fdfea2646970667358221220032d78d749cffc91798f4567acf2c2286132b4d35a828de5e3f9092cad95dfdd64736f6c634300081c0033","opcodes":"PUSH1 0x80 CALLVALUE PUSH1 0x8B JUMPI PUSH1 0x1F PUSH2 0x1735 CODESIZE DUP2 SWAP1 SUB SWAP2 DUP3 ADD PUSH1 0x1F NOT AND DUP4 ADD SWAP2 PUSH1 0x1 PUSH1 0x1 PUSH1 0x40 SHL SUB DUP4 GT DUP5 DUP5 LT OR PUSH1 0x90 JUMPI DUP1 DUP5 SWAP3 PUSH1 0x40 SWAP5 DUP6 MSTORE DUP4 CODECOPY DUP2 ADD SUB SLT PUSH1 0x8B JUMPI PUSH1 0x4B PUSH1 0x20 PUSH1 0x45 DUP4 PUSH1 0xA6 JUMP JUMPDEST SWAP3 ADD PUSH1 0xA6 JUMP JUMPDEST PUSH1 0x6 DUP1 SLOAD PUSH1 0x1 PUSH1 0x1 PUSH1 0xA0 SHL SUB SWAP4 DUP5 AND PUSH1 0x1 PUSH1 0x1 PUSH1 0xA0 SHL SUB NOT SWAP2 DUP3 AND OR SWAP1 SWAP2 SSTORE PUSH1 0x7 DUP1 SLOAD SWAP3 SWAP1 SWAP4 AND SWAP2 AND OR SWAP1 SSTORE PUSH1 0x0 PUSH1 0x2 SSTORE PUSH1 0x40 MLOAD PUSH2 0x167B SWAP1 DUP2 PUSH2 0xBA DUP3 CODECOPY RETURN JUMPDEST PUSH1 0x0 DUP1 REVERT JUMPDEST PUSH4 0x4E487B71 PUSH1 0xE0 SHL PUSH1 0x0 MSTORE PUSH1 0x41 PUSH1 0x4 MSTORE PUSH1 0x24 PUSH1 0x0 REVERT JUMPDEST MLOAD SWAP1 PUSH1 0x1 PUSH1 0x1 PUSH1 0xA0 SHL SUB DUP3 AND DUP3 SUB PUSH1 0x8B JUMPI JUMP INVALID PUSH1 0x80 DUP1 PUSH1 0x40 MSTORE PUSH1 0x4 CALLDATASIZE LT ISZERO PUSH2 0x13 JUMPI PUSH1 0x0 DUP1 REVERT JUMPDEST PUSH1 0x0 CALLDATALOAD PUSH1 0xE0 SHR SWAP1 DUP2 PUSH4 0x22068B44 EQ PUSH2 0x12AE JUMPI POP DUP1 PUSH4 0x2CC3CE4D EQ PUSH2 0x1256 JUMPI DUP1 PUSH4 0x3C9126EC EQ PUSH2 0xF19 JUMPI DUP1 PUSH4 0x3DCF2812 EQ PUSH2 0xE91 JUMPI DUP1 PUSH4 0x455A4C3F EQ PUSH2 0xCF5 JUMPI DUP1 PUSH4 0x4A054580 EQ PUSH2 0xA70 JUMPI DUP1 PUSH4 0x4E526ABB EQ PUSH2 0xA22 JUMPI DUP1 PUSH4 0x6CE68A34 EQ PUSH2 0x9F1 JUMPI DUP1 PUSH4 0x7EF8513A EQ PUSH2 0x97F JUMPI DUP1 PUSH4 0xA10BAB0B EQ PUSH2 0x956 JUMPI DUP1 PUSH4 0xB70A58F7 EQ PUSH2 0x77F JUMPI DUP1 PUSH4 0xCA32929B EQ PUSH2 0x30C JUMPI DUP1 PUSH4 0xCAAA7009 EQ PUSH2 0x2E3 JUMPI DUP1 PUSH4 0xCFC0CC34 EQ PUSH2 0x250 JUMPI DUP1 PUSH4 0xD574EA3D EQ PUSH2 0x1D1 JUMPI DUP1 PUSH4 0xDAFDBE69 EQ PUSH2 0x199 JUMPI PUSH4 0xFE10A731 EQ PUSH2 0xDA JUMPI PUSH1 0x0 DUP1 REVERT JUMPDEST CALLVALUE PUSH2 0x194 JUMPI PUSH1 0x0 CALLDATASIZE PUSH1 0x3 NOT ADD SLT PUSH2 0x194 JUMPI PUSH1 0x40 MLOAD DUP1 PUSH1 0x20 PUSH1 0x4 SLOAD SWAP3 DUP4 DUP2 MSTORE ADD DUP1 SWAP3 PUSH1 0x4 PUSH1 0x0 MSTORE PUSH32 0x8A35ACFBC15FF81A39AE7D344FD709F28E8600B4AA8C65C6B64BFE7FE36BD19B SWAP1 PUSH1 0x0 JUMPDEST DUP2 DUP2 LT PUSH2 0x17E JUMPI POP POP POP DUP2 PUSH2 0x13B SWAP2 SUB DUP3 PUSH2 0x12E5 JUMP JUMPDEST PUSH1 0x40 MLOAD SWAP2 DUP3 SWAP2 PUSH1 0x20 DUP4 ADD SWAP1 PUSH1 0x20 DUP5 MSTORE MLOAD DUP1 SWAP2 MSTORE PUSH1 0x40 DUP4 ADD SWAP2 SWAP1 PUSH1 0x0 JUMPDEST DUP2 DUP2 LT PUSH2 0x165 JUMPI POP POP POP SUB SWAP1 RETURN JUMPDEST DUP3 MLOAD DUP5 MSTORE DUP6 SWAP5 POP PUSH1 0x20 SWAP4 DUP5 ADD SWAP4 SWAP1 SWAP3 ADD SWAP2 PUSH1 0x1 ADD PUSH2 0x157 JUMP JUMPDEST DUP3 SLOAD DUP5 MSTORE PUSH1 0x20 SWAP1 SWAP4 ADD SWAP3 PUSH1 0x1 SWAP3 DUP4 ADD SWAP3 ADD PUSH2 0x125 JUMP JUMPDEST PUSH1 0x0 DUP1 REVERT JUMPDEST CALLVALUE PUSH2 0x194 JUMPI PUSH1 0x20 CALLDATASIZE PUSH1 0x3 NOT ADD SLT PUSH2 0x194 JUMPI PUSH1 0x4 CALLDATALOAD PUSH1 0x4 SLOAD DUP2 LT ISZERO PUSH2 0x194 JUMPI PUSH2 0x1C2 PUSH1 0x20 SWAP2 PUSH2 0x14F0 JUMP JUMPDEST SWAP1 SLOAD SWAP1 PUSH1 0x3 SHL SHR PUSH1 0x40 MLOAD SWAP1 DUP2 MSTORE RETURN JUMPDEST CALLVALUE PUSH2 0x194 JUMPI PUSH1 0x20 CALLDATASIZE PUSH1 0x3 NOT ADD SLT PUSH2 0x194 JUMPI PUSH1 0x4 CALLDATALOAD PUSH1 0x0 MSTORE PUSH1 0x1 PUSH1 0x20 MSTORE PUSH1 0x40 PUSH1 0x0 KECCAK256 PUSH2 0x1FB DUP2 PUSH2 0x13A8 JUMP JUMPDEST SWAP1 PUSH2 0x24C PUSH2 0x20B PUSH1 0x1 DUP4 ADD PUSH2 0x13A8 JUMP JUMPDEST SWAP2 PUSH1 0x2 DUP2 ADD SLOAD SWAP1 PUSH1 0x3 DUP2 ADD SLOAD PUSH1 0x1 DUP1 PUSH1 0xA0 SHL SUB PUSH1 0x4 DUP4 ADD SLOAD AND PUSH1 0x5 DUP4 ADD SLOAD SWAP2 PUSH1 0x7 PUSH1 0x6 DUP6 ADD SLOAD SWAP5 ADD SLOAD SWAP5 PUSH1 0x40 MLOAD SWAP9 DUP10 SWAP9 PUSH1 0xFF DUP1 DUP5 PUSH1 0x8 SHR AND SWAP4 AND SWAP2 DUP11 PUSH2 0x148D JUMP JUMPDEST SUB SWAP1 RETURN JUMPDEST CALLVALUE PUSH2 0x194 JUMPI PUSH1 0x20 CALLDATASIZE PUSH1 0x3 NOT ADD SLT PUSH2 0x194 JUMPI PUSH1 0x4 CALLDATALOAD DUP1 PUSH1 0x0 MSTORE PUSH1 0x3 PUSH1 0x20 MSTORE PUSH2 0x27E PUSH1 0xFF PUSH1 0x40 PUSH1 0x0 KECCAK256 SLOAD AND PUSH2 0x1521 JUMP JUMPDEST PUSH1 0x0 MSTORE PUSH1 0x1 PUSH1 0x20 MSTORE PUSH1 0x40 PUSH1 0x0 KECCAK256 PUSH1 0x2 DUP2 ADD SLOAD PUSH2 0x24C PUSH1 0x3 DUP4 ADD SLOAD PUSH1 0x1 DUP1 PUSH1 0xA0 SHL SUB PUSH1 0x4 DUP6 ADD SLOAD AND PUSH1 0x5 DUP6 ADD SLOAD PUSH1 0x6 DUP7 ADD SLOAD SWAP2 PUSH1 0x7 DUP8 ADD SLOAD SWAP4 PUSH2 0x2CB PUSH1 0x1 PUSH2 0x2C4 DUP11 PUSH2 0x13A8 JUMP JUMPDEST SWAP10 ADD PUSH2 0x13A8 JUMP JUMPDEST SWAP7 PUSH1 0x40 MLOAD SWAP9 DUP10 SWAP9 PUSH1 0xFF DUP1 DUP5 PUSH1 0x8 SHR AND SWAP4 AND SWAP2 DUP11 PUSH2 0x148D JUMP JUMPDEST CALLVALUE PUSH2 0x194 JUMPI PUSH1 0x0 CALLDATASIZE PUSH1 0x3 NOT ADD SLT PUSH2 0x194 JUMPI PUSH1 0x6 SLOAD PUSH1 0x40 MLOAD PUSH1 0x1 PUSH1 0x1 PUSH1 0xA0 SHL SUB SWAP1 SWAP2 AND DUP2 MSTORE PUSH1 0x20 SWAP1 RETURN JUMPDEST CALLVALUE PUSH2 0x194 JUMPI PUSH1 0x60 CALLDATASIZE PUSH1 0x3 NOT ADD SLT PUSH2 0x194 JUMPI PUSH1 0x4 CALLDATALOAD PUSH8 0xFFFFFFFFFFFFFFFF DUP2 GT PUSH2 0x194 JUMPI PUSH2 0x33D SWAP1 CALLDATASIZE SWAP1 PUSH1 0x4 ADD PUSH2 0x1307 JUMP JUMPDEST PUSH1 0x24 CALLDATALOAD PUSH8 0xFFFFFFFFFFFFFFFF DUP2 GT PUSH2 0x194 JUMPI PUSH2 0x35D SWAP1 CALLDATASIZE SWAP1 PUSH1 0x4 ADD PUSH2 0x1307 JUMP JUMPDEST SWAP1 PUSH1 0xFF PUSH2 0x368 PUSH2 0x135E JUMP JUMPDEST AND SWAP1 DUP2 ISZERO ISZERO DUP1 PUSH2 0x774 JUMPI JUMPDEST PUSH2 0x37C SWAP1 PUSH2 0x15B8 JUMP JUMPDEST DUP1 MLOAD ISZERO PUSH2 0x73F JUMPI PUSH2 0x38E PUSH1 0x2 SLOAD PUSH2 0x15A9 JUMP JUMPDEST SWAP2 DUP3 PUSH1 0x2 SSTORE PUSH1 0x40 MLOAD SWAP2 PUSH2 0x120 DUP4 ADD DUP4 DUP2 LT PUSH8 0xFFFFFFFFFFFFFFFF DUP3 GT OR PUSH2 0x5A3 JUMPI PUSH1 0x40 MSTORE DUP3 MSTORE PUSH1 0x20 DUP3 ADD SWAP4 DUP5 MSTORE PUSH1 0x40 DUP3 ADD SWAP1 DUP2 MSTORE PUSH1 0x60 DUP3 ADD SWAP1 PUSH1 0x1 DUP3 MSTORE PUSH1 0x80 DUP4 ADD PUSH1 0x0 DUP2 MSTORE PUSH1 0xA0 DUP5 ADD CALLER DUP2 MSTORE PUSH1 0xC0 DUP6 ADD SWAP2 TIMESTAMP DUP4 MSTORE PUSH1 0xE0 DUP7 ADD SWAP4 TIMESTAMP DUP6 MSTORE PUSH2 0x100 DUP8 ADD SWAP6 PUSH1 0x0 DUP8 MSTORE DUP9 PUSH1 0x0 MSTORE PUSH1 0x1 PUSH1 0x20 MSTORE PUSH1 0x40 PUSH1 0x0 KECCAK256 SWAP8 MLOAD DUP1 MLOAD SWAP1 PUSH8 0xFFFFFFFFFFFFFFFF DUP3 GT PUSH2 0x5A3 JUMPI DUP2 SWAP1 PUSH2 0x422 DUP12 SLOAD PUSH2 0x136E JUMP JUMPDEST PUSH1 0x1F DUP2 GT PUSH2 0x6EC JUMPI JUMPDEST POP PUSH1 0x20 SWAP1 PUSH1 0x1F DUP4 GT PUSH1 0x1 EQ PUSH2 0x687 JUMPI PUSH1 0x0 SWAP3 PUSH2 0x67C JUMPI JUMPDEST POP POP DUP2 PUSH1 0x1 SHL SWAP2 PUSH1 0x0 NOT SWAP1 PUSH1 0x3 SHL SHR NOT AND OR DUP9 SSTORE JUMPDEST PUSH1 0x1 DUP9 ADD SWAP10 MLOAD SWAP10 DUP11 MLOAD PUSH8 0xFFFFFFFFFFFFFFFF DUP2 GT PUSH2 0x5A3 JUMPI PUSH2 0x479 DUP3 SLOAD PUSH2 0x136E JUMP JUMPDEST PUSH1 0x1F DUP2 GT PUSH2 0x634 JUMPI JUMPDEST POP PUSH1 0x20 PUSH1 0x1F DUP3 GT PUSH1 0x1 EQ PUSH2 0x5C4 JUMPI SWAP1 DUP1 PUSH2 0x4E4 SWAP6 SWAP5 SWAP4 SWAP3 PUSH1 0x7 SWAP13 SWAP14 SWAP15 PUSH1 0x0 SWAP3 PUSH2 0x5B9 JUMPI JUMPDEST POP POP DUP2 PUSH1 0x1 SHL SWAP2 PUSH1 0x0 NOT SWAP1 PUSH1 0x3 SHL SHR NOT AND OR SWAP1 SSTORE JUMPDEST SWAP1 MLOAD PUSH1 0x2 DUP11 ADD DUP1 SLOAD SWAP3 MLOAD PUSH2 0xFF00 SWAP1 ISZERO ISZERO PUSH1 0x8 SHL AND PUSH1 0xFF SWAP1 SWAP3 AND PUSH2 0xFFFF NOT SWAP1 SWAP4 AND SWAP3 SWAP1 SWAP3 OR OR SWAP1 SSTORE JUMP JUMPDEST MLOAD PUSH1 0x3 DUP8 ADD SSTORE PUSH1 0x4 DUP7 ADD SWAP1 PUSH1 0x1 DUP1 PUSH1 0xA0 SHL SUB SWAP1 MLOAD AND PUSH12 0xFFFFFFFFFFFFFFFFFFFFFFFF PUSH1 0xA0 SHL DUP3 SLOAD AND OR SWAP1 SSTORE MLOAD PUSH1 0x5 DUP6 ADD SSTORE MLOAD PUSH1 0x6 DUP5 ADD SSTORE MLOAD SWAP2 ADD SSTORE DUP1 PUSH1 0x0 MSTORE PUSH1 0x3 PUSH1 0x20 MSTORE PUSH1 0x40 PUSH1 0x0 KECCAK256 PUSH1 0x1 PUSH1 0xFF NOT DUP3 SLOAD AND OR SWAP1 SSTORE PUSH1 0x4 SLOAD SWAP1 PUSH9 0x10000000000000000 DUP3 LT ISZERO PUSH2 0x5A3 JUMPI PUSH2 0x55F DUP3 PUSH1 0x1 PUSH1 0x20 SWAP5 ADD PUSH1 0x4 SSTORE PUSH2 0x14F0 JUMP JUMPDEST DUP2 SLOAD SWAP1 PUSH1 0x3 SHL SWAP1 DUP4 DUP3 SHL SWAP2 PUSH1 0x0 NOT SWAP1 SHL NOT AND OR SWAP1 SSTORE PUSH1 0x40 MLOAD SWAP1 CALLER DUP2 PUSH32 0x899FE949A0013A461F6497B6A40C0D8B01D554A7B67EF6AA1C730298BAF23D9F PUSH1 0x0 DUP1 LOG3 DUP2 MSTORE RETURN JUMPDEST PUSH4 0x4E487B71 PUSH1 0xE0 SHL PUSH1 0x0 MSTORE PUSH1 0x41 PUSH1 0x4 MSTORE PUSH1 0x24 PUSH1 0x0 REVERT JUMPDEST ADD MLOAD SWAP1 POP DUP15 DUP1 PUSH2 0x4A6 JUMP JUMPDEST PUSH1 0x1F NOT DUP3 AND SWAP1 DUP4 PUSH1 0x0 MSTORE DUP1 PUSH1 0x0 KECCAK256 SWAP2 PUSH1 0x0 JUMPDEST DUP2 DUP2 LT PUSH2 0x61C JUMPI POP SWAP2 DUP4 SWAP2 PUSH1 0x7 SWAP14 SWAP15 SWAP16 PUSH2 0x4E4 SWAP9 SWAP8 SWAP7 SWAP6 PUSH1 0x1 SWAP6 LT PUSH2 0x603 JUMPI JUMPDEST POP POP POP DUP2 SHL ADD SWAP1 SSTORE PUSH2 0x4BB JUMP JUMPDEST ADD MLOAD PUSH1 0x0 NOT PUSH1 0xF8 DUP5 PUSH1 0x3 SHL AND SHR NOT AND SWAP1 SSTORE DUP15 DUP1 DUP1 PUSH2 0x5F6 JUMP JUMPDEST DUP16 DUP4 ADD MLOAD DUP5 SSTORE PUSH1 0x1 SWAP1 SWAP4 ADD SWAP3 PUSH1 0x20 SWAP3 DUP4 ADD SWAP3 ADD PUSH2 0x5D6 JUMP JUMPDEST DUP3 PUSH1 0x0 MSTORE PUSH1 0x20 PUSH1 0x0 KECCAK256 PUSH1 0x1F DUP4 ADD PUSH1 0x5 SHR DUP2 ADD SWAP2 PUSH1 0x20 DUP5 LT PUSH2 0x672 JUMPI JUMPDEST PUSH1 0x1F ADD PUSH1 0x5 SHR ADD SWAP1 JUMPDEST DUP2 DUP2 LT PUSH2 0x666 JUMPI POP PUSH2 0x482 JUMP JUMPDEST PUSH1 0x0 DUP2 SSTORE PUSH1 0x1 ADD PUSH2 0x659 JUMP JUMPDEST SWAP1 SWAP2 POP DUP2 SWAP1 PUSH2 0x650 JUMP JUMPDEST ADD MLOAD SWAP1 POP DUP13 DUP1 PUSH2 0x442 JUMP JUMPDEST PUSH1 0x0 DUP13 DUP2 MSTORE DUP3 DUP2 KECCAK256 SWAP4 POP PUSH1 0x1F NOT DUP6 AND SWAP1 JUMPDEST DUP2 DUP2 LT PUSH2 0x6D4 JUMPI POP SWAP1 DUP5 PUSH1 0x1 SWAP6 SWAP5 SWAP4 SWAP3 LT PUSH2 0x6BB JUMPI JUMPDEST POP POP POP DUP2 SHL ADD DUP9 SSTORE PUSH2 0x457 JUMP JUMPDEST ADD MLOAD PUSH1 0x0 NOT PUSH1 0xF8 DUP5 PUSH1 0x3 SHL AND SHR NOT AND SWAP1 SSTORE DUP13 DUP1 DUP1 PUSH2 0x6AE JUMP JUMPDEST SWAP3 SWAP4 PUSH1 0x20 PUSH1 0x1 DUP2 SWAP3 DUP8 DUP7 ADD MLOAD DUP2 SSTORE ADD SWAP6 ADD SWAP4 ADD PUSH2 0x698 JUMP JUMPDEST SWAP1 SWAP2 POP DUP11 PUSH1 0x0 MSTORE PUSH1 0x20 PUSH1 0x0 KECCAK256 PUSH1 0x1F DUP5 ADD PUSH1 0x5 SHR DUP2 ADD SWAP2 PUSH1 0x20 DUP6 LT PUSH2 0x735 JUMPI JUMPDEST SWAP1 PUSH1 0x1F DUP6 SWAP5 SWAP4 SWAP3 ADD PUSH1 0x5 SHR ADD SWAP1 JUMPDEST DUP2 DUP2 LT PUSH2 0x726 JUMPI POP PUSH2 0x42B JUMP JUMPDEST PUSH1 0x0 DUP2 SSTORE DUP5 SWAP4 POP PUSH1 0x1 ADD PUSH2 0x719 JUMP JUMPDEST SWAP1 SWAP2 POP DUP2 SWAP1 PUSH2 0x70B JUMP JUMPDEST PUSH1 0x40 MLOAD PUSH3 0x461BCD PUSH1 0xE5 SHL DUP2 MSTORE PUSH1 0x20 PUSH1 0x4 DUP3 ADD MSTORE PUSH1 0xD PUSH1 0x24 DUP3 ADD MSTORE PUSH13 0x13985B59481C995C5D5A5C9959 PUSH1 0x9A SHL PUSH1 0x44 DUP3 ADD MSTORE PUSH1 0x64 SWAP1 REVERT JUMPDEST POP PUSH1 0x5 DUP3 GT ISZERO PUSH2 0x373 JUMP JUMPDEST CALLVALUE PUSH2 0x194 JUMPI PUSH1 0x20 CALLDATASIZE PUSH1 0x3 NOT ADD SLT PUSH2 0x194 JUMPI PUSH1 0x4 CALLDATALOAD DUP1 PUSH1 0x0 MSTORE PUSH1 0x3 PUSH1 0x20 MSTORE PUSH2 0x7AD PUSH1 0xFF PUSH1 0x40 PUSH1 0x0 KECCAK256 SLOAD AND PUSH2 0x1521 JUMP JUMPDEST DUP1 PUSH1 0x0 MSTORE PUSH1 0x1 PUSH1 0x20 MSTORE PUSH1 0x7 PUSH1 0x40 PUSH1 0x0 KECCAK256 ADD SLOAD PUSH2 0x7C8 DUP2 PUSH2 0x15F9 JUMP JUMPDEST SWAP2 PUSH2 0x7D6 PUSH1 0x40 MLOAD SWAP4 DUP5 PUSH2 0x12E5 JUMP JUMPDEST DUP2 DUP4 MSTORE PUSH1 0x1F NOT PUSH2 0x7E5 DUP4 PUSH2 0x15F9 JUMP JUMPDEST ADD PUSH1 0x0 JUMPDEST DUP2 DUP2 LT PUSH2 0x91C JUMPI POP POP PUSH1 0x0 JUMPDEST DUP3 DUP2 LT PUSH2 0x89D JUMPI DUP4 PUSH1 0x40 MLOAD DUP1 SWAP2 PUSH1 0x20 DUP3 ADD PUSH1 0x20 DUP4 MSTORE DUP2 MLOAD DUP1 SWAP2 MSTORE PUSH1 0x40 DUP4 ADD SWAP1 PUSH1 0x20 PUSH1 0x40 DUP3 PUSH1 0x5 SHL DUP7 ADD ADD SWAP4 ADD SWAP2 PUSH1 0x0 SWAP1 JUMPDEST DUP3 DUP3 LT PUSH2 0x835 JUMPI POP POP POP POP SUB SWAP1 RETURN JUMPDEST SWAP2 SWAP4 PUSH1 0x1 SWAP2 SWAP4 SWAP6 POP PUSH1 0x20 DUP1 SWAP2 PUSH1 0x3F NOT DUP10 DUP3 SUB ADD DUP6 MSTORE DUP8 MLOAD SWAP1 PUSH1 0x80 DUP1 PUSH2 0x863 DUP5 MLOAD PUSH1 0xA0 DUP6 MSTORE PUSH1 0xA0 DUP6 ADD SWAP1 PUSH2 0x144C JUMP JUMPDEST SWAP4 PUSH1 0xFF DUP7 DUP3 ADD MLOAD AND DUP7 DUP6 ADD MSTORE PUSH1 0xFF PUSH1 0x40 DUP3 ADD MLOAD AND PUSH1 0x40 DUP6 ADD MSTORE PUSH1 0x60 DUP2 ADD MLOAD PUSH1 0x60 DUP6 ADD MSTORE ADD MLOAD ISZERO ISZERO SWAP2 ADD MSTORE SWAP7 ADD SWAP3 ADD SWAP3 ADD DUP6 SWAP5 SWAP4 SWAP2 SWAP3 PUSH2 0x826 JUMP JUMPDEST PUSH1 0x1 SWAP1 DUP3 PUSH1 0x0 MSTORE PUSH1 0x0 PUSH1 0x20 MSTORE PUSH1 0x40 PUSH1 0x0 KECCAK256 DUP2 PUSH1 0x0 MSTORE PUSH1 0x20 MSTORE PUSH1 0x40 PUSH1 0x0 KECCAK256 PUSH1 0xFF PUSH1 0x3 PUSH1 0x40 MLOAD SWAP3 PUSH2 0x8CB DUP5 PUSH2 0x12C9 JUMP JUMPDEST PUSH2 0x8D4 DUP2 PUSH2 0x13A8 JUMP JUMPDEST DUP5 MSTORE DUP3 DUP7 DUP3 ADD SLOAD DUP2 DUP2 AND PUSH1 0x20 DUP8 ADD MSTORE PUSH1 0x8 SHR AND PUSH1 0x40 DUP6 ADD MSTORE PUSH1 0x2 DUP2 ADD SLOAD PUSH1 0x60 DUP6 ADD MSTORE ADD SLOAD AND ISZERO ISZERO PUSH1 0x80 DUP3 ADD MSTORE PUSH2 0x90A DUP3 DUP8 PUSH2 0x1611 JUMP JUMPDEST MSTORE PUSH2 0x915 DUP2 DUP7 PUSH2 0x1611 JUMP JUMPDEST POP ADD PUSH2 0x7F5 JUMP JUMPDEST PUSH1 0x20 SWAP1 PUSH1 0x40 MLOAD PUSH2 0x92B DUP2 PUSH2 0x12C9 JUMP JUMPDEST PUSH1 0x60 DUP2 MSTORE PUSH1 0x0 DUP4 DUP3 ADD MSTORE PUSH1 0x0 PUSH1 0x40 DUP3 ADD MSTORE PUSH1 0x0 PUSH1 0x60 DUP3 ADD MSTORE PUSH1 0x0 PUSH1 0x80 DUP3 ADD MSTORE DUP3 DUP3 DUP9 ADD ADD MSTORE ADD PUSH2 0x7E9 JUMP JUMPDEST CALLVALUE PUSH2 0x194 JUMPI PUSH1 0x0 CALLDATASIZE PUSH1 0x3 NOT ADD SLT PUSH2 0x194 JUMPI PUSH1 0x7 SLOAD PUSH1 0x40 MLOAD PUSH1 0x1 PUSH1 0x1 PUSH1 0xA0 SHL SUB SWAP1 SWAP2 AND DUP2 MSTORE PUSH1 0x20 SWAP1 RETURN JUMPDEST CALLVALUE PUSH2 0x194 JUMPI PUSH1 0x20 CALLDATASIZE PUSH1 0x3 NOT ADD SLT PUSH2 0x194 JUMPI PUSH1 0x4 CALLDATALOAD PUSH1 0x1 PUSH1 0x1 PUSH1 0xA0 SHL SUB DUP2 AND SWAP1 DUP2 SWAP1 SUB PUSH2 0x194 JUMPI PUSH1 0x0 MSTORE PUSH1 0x5 PUSH1 0x20 MSTORE PUSH1 0xA0 PUSH1 0x40 PUSH1 0x0 KECCAK256 DUP1 SLOAD SWAP1 PUSH1 0x2 PUSH1 0x1 DUP3 ADD SLOAD SWAP2 ADD SLOAD SWAP1 PUSH1 0xFF PUSH1 0x40 MLOAD SWAP4 DUP2 DUP2 AND DUP6 MSTORE DUP2 DUP2 PUSH1 0x8 SHR AND ISZERO ISZERO PUSH1 0x20 DUP7 ADD MSTORE PUSH1 0x10 SHR AND ISZERO ISZERO PUSH1 0x40 DUP5 ADD MSTORE PUSH1 0x60 DUP4 ADD MSTORE PUSH1 0x80 DUP3 ADD MSTORE RETURN JUMPDEST CALLVALUE PUSH2 0x194 JUMPI PUSH1 0x20 CALLDATASIZE PUSH1 0x3 NOT ADD SLT PUSH2 0x194 JUMPI PUSH1 0x4 CALLDATALOAD PUSH1 0x0 MSTORE PUSH1 0x3 PUSH1 0x20 MSTORE PUSH1 0x20 PUSH1 0xFF PUSH1 0x40 PUSH1 0x0 KECCAK256 SLOAD AND PUSH1 0x40 MLOAD SWAP1 ISZERO ISZERO DUP2 MSTORE RETURN JUMPDEST CALLVALUE PUSH2 0x194 JUMPI PUSH1 0x20 CALLDATASIZE PUSH1 0x3 NOT ADD SLT PUSH2 0x194 JUMPI PUSH1 0x4 CALLDATALOAD PUSH1 0x0 MSTORE PUSH1 0x9 PUSH1 0x20 MSTORE PUSH1 0x80 PUSH1 0x40 PUSH1 0x0 KECCAK256 DUP1 SLOAD SWAP1 PUSH1 0x1 DUP2 ADD SLOAD SWAP1 PUSH1 0x3 PUSH1 0x2 DUP3 ADD SLOAD SWAP2 ADD SLOAD SWAP2 PUSH1 0x40 MLOAD SWAP4 DUP5 MSTORE PUSH1 0x20 DUP5 ADD MSTORE PUSH1 0x40 DUP4 ADD MSTORE PUSH1 0x60 DUP3 ADD MSTORE RETURN JUMPDEST CALLVALUE PUSH2 0x194 JUMPI PUSH1 0xC0 CALLDATASIZE PUSH1 0x3 NOT ADD SLT PUSH2 0x194 JUMPI PUSH1 0x24 CALLDATALOAD PUSH1 0x1 PUSH1 0x1 PUSH1 0xA0 SHL SUB DUP2 AND SWAP1 PUSH1 0x4 CALLDATALOAD SWAP1 DUP3 SWAP1 SUB PUSH2 0x194 JUMPI PUSH1 0x44 CALLDATALOAD PUSH1 0x1 PUSH1 0x1 PUSH1 0xA0 SHL SUB DUP2 AND SWAP3 SWAP1 DUP4 SWAP1 SUB PUSH2 0x194 JUMPI PUSH1 0x64 CALLDATALOAD SWAP1 PUSH1 0xA4 CALLDATALOAD SWAP4 PUSH1 0xFF DUP6 AND DUP1 SWAP6 SUB PUSH2 0x194 JUMPI DUP4 PUSH1 0x0 MSTORE PUSH1 0x3 PUSH1 0x20 MSTORE PUSH2 0xADD PUSH1 0xFF PUSH1 0x40 PUSH1 0x0 KECCAK256 SLOAD AND PUSH2 0x1521 JUMP JUMPDEST DUP4 PUSH1 0x0 MSTORE PUSH1 0x1 PUSH1 0x20 MSTORE PUSH1 0x40 PUSH1 0x0 KECCAK256 PUSH2 0xB02 PUSH1 0x1 DUP1 PUSH1 0xA0 SHL SUB PUSH1 0x4 DUP4 ADD SLOAD AND CALLER EQ PUSH2 0x1566 JUMP JUMPDEST CALLER PUSH1 0x0 MSTORE PUSH1 0x5 PUSH1 0x20 MSTORE PUSH1 0xFF PUSH1 0x2 PUSH1 0x40 PUSH1 0x0 KECCAK256 SWAP3 ADD SLOAD AND PUSH1 0xFF DUP3 SLOAD AND LT PUSH2 0xCC0 JUMPI PUSH1 0x1 ADD SLOAD DUP6 LT PUSH2 0xC87 JUMPI PUSH1 0xA4 PUSH1 0x20 SWAP3 PUSH1 0x0 PUSH1 0x1 DUP1 PUSH1 0xA0 SHL SUB PUSH1 0x6 SLOAD AND PUSH1 0x40 MLOAD SWAP9 DUP10 SWAP6 DUP7 SWAP5 PUSH4 0x25F4FECB PUSH1 0xE2 SHL DUP7 MSTORE PUSH1 0x4 DUP7 ADD MSTORE PUSH1 0x24 DUP6 ADD MSTORE DUP8 PUSH1 0x44 DUP6 ADD MSTORE PUSH1 0x84 CALLDATALOAD PUSH1 0x64 DUP6 ADD MSTORE PUSH1 0x84 DUP5 ADD MSTORE GAS CALL SWAP3 DUP4 ISZERO PUSH2 0xC7B JUMPI PUSH1 0x0 SWAP4 PUSH2 0xC44 JUMPI JUMPDEST POP DUP2 PUSH1 0x0 MSTORE PUSH1 0x8 PUSH1 0x20 MSTORE PUSH1 0x40 PUSH1 0x0 KECCAK256 SWAP3 PUSH2 0xB98 DUP5 SLOAD PUSH2 0x15A9 JUMP JUMPDEST SWAP2 DUP3 DUP6 SSTORE DUP1 DUP3 GT PUSH2 0xBD7 JUMPI JUMPDEST POP POP PUSH2 0xBB4 SWAP1 PUSH1 0x2 DUP5 ADD SLOAD PUSH2 0x1625 JUMP JUMPDEST SWAP2 DUP3 PUSH1 0x3 DUP3 ADD SSTORE PUSH1 0x4 TIMESTAMP SWAP2 ADD SSTORE PUSH1 0x0 MSTORE PUSH1 0x1 PUSH1 0x20 MSTORE PUSH1 0x3 PUSH1 0x40 PUSH1 0x0 KECCAK256 ADD SSTORE PUSH1 0x0 DUP1 RETURN JUMPDEST PUSH1 0x1 DUP6 ADD PUSH2 0xBE5 DUP2 SLOAD PUSH2 0x15A9 JUMP JUMPDEST SWAP1 SSTORE DUP1 DUP3 SUB SWAP2 DUP1 DUP4 GT PUSH2 0xC2E JUMPI DUP2 PUSH2 0x2710 DUP5 MUL SWAP4 DUP5 DIV PUSH2 0x2710 EQ SWAP2 EQ OR ISZERO PUSH2 0xC2E JUMPI PUSH2 0xC10 SWAP2 PUSH2 0x1625 JUMP JUMPDEST SWAP1 PUSH1 0x2 DUP5 ADD SWAP2 DUP3 SLOAD SWAP1 DUP2 ADD DUP1 SWAP2 GT PUSH2 0xC2E JUMPI PUSH2 0xBB4 SWAP3 SSTORE SWAP1 DUP5 PUSH2 0xBA4 JUMP JUMPDEST PUSH4 0x4E487B71 PUSH1 0xE0 SHL PUSH1 0x0 MSTORE PUSH1 0x11 PUSH1 0x4 MSTORE PUSH1 0x24 PUSH1 0x0 REVERT JUMPDEST SWAP1 SWAP3 PUSH1 0x20 DUP3 RETURNDATASIZE PUSH1 0x20 GT PUSH2 0xC73 JUMPI JUMPDEST DUP2 PUSH2 0xC5F PUSH1 0x20 SWAP4 DUP4 PUSH2 0x12E5 JUMP JUMPDEST DUP2 ADD SUB SLT PUSH2 0xC70 JUMPI POP MLOAD SWAP2 DUP4 PUSH2 0xB7E JUMP JUMPDEST DUP1 REVERT JUMPDEST RETURNDATASIZE SWAP2 POP PUSH2 0xC52 JUMP JUMPDEST PUSH1 0x40 MLOAD RETURNDATASIZE PUSH1 0x0 DUP3 RETURNDATACOPY RETURNDATASIZE SWAP1 REVERT JUMPDEST PUSH1 0x40 MLOAD PUSH3 0x461BCD PUSH1 0xE5 SHL DUP2 MSTORE PUSH1 0x20 PUSH1 0x4 DUP3 ADD MSTORE PUSH1 0x11 PUSH1 0x24 DUP3 ADD MSTORE PUSH17 0x53656E74696D656E7420746F6F206C6F77 PUSH1 0x78 SHL PUSH1 0x44 DUP3 ADD MSTORE PUSH1 0x64 SWAP1 REVERT JUMPDEST PUSH1 0x40 MLOAD PUSH3 0x461BCD PUSH1 0xE5 SHL DUP2 MSTORE PUSH1 0x20 PUSH1 0x4 DUP3 ADD MSTORE PUSH1 0xD PUSH1 0x24 DUP3 ADD MSTORE PUSH13 0xA4D2E6D640E8DEDE40D0D2CED PUSH1 0x9B SHL PUSH1 0x44 DUP3 ADD MSTORE PUSH1 0x64 SWAP1 REVERT JUMPDEST CALLVALUE PUSH2 0x194 JUMPI PUSH1 0xA0 CALLDATASIZE PUSH1 0x3 NOT ADD SLT PUSH2 0x194 JUMPI PUSH1 0x4 CALLDATALOAD PUSH1 0xFF DUP2 AND DUP1 SWAP2 SUB PUSH2 0x194 JUMPI PUSH1 0x24 CALLDATALOAD DUP1 ISZERO ISZERO DUP1 SWAP2 SUB PUSH2 0x194 JUMPI PUSH1 0x44 CALLDATALOAD DUP1 ISZERO ISZERO DUP1 SWAP2 SUB PUSH2 0x194 JUMPI PUSH1 0x64 CALLDATALOAD PUSH1 0x84 CALLDATALOAD SWAP2 DUP5 ISZERO ISZERO DUP1 PUSH2 0xE86 JUMPI JUMPDEST PUSH2 0xD47 SWAP1 PUSH2 0x15B8 JUMP JUMPDEST PUSH1 0x64 DUP3 GT PUSH2 0xE41 JUMPI PUSH2 0x3E8 DUP4 GT PUSH2 0xE04 JUMPI PUSH2 0xDBB PUSH1 0x2 SWAP5 PUSH1 0x40 MLOAD SWAP7 PUSH2 0xD6B DUP9 PUSH2 0x12C9 JUMP JUMPDEST DUP8 MSTORE PUSH1 0x20 DUP1 DUP9 ADD SWAP2 DUP3 MSTORE PUSH1 0x40 DUP1 DUP10 ADD SWAP5 DUP6 MSTORE PUSH1 0x60 DUP10 ADD SWAP6 DUP7 MSTORE PUSH1 0x80 DUP10 ADD SWAP7 DUP8 MSTORE CALLER PUSH1 0x0 SWAP1 DUP2 MSTORE PUSH1 0x5 SWAP1 SWAP3 MSTORE SWAP1 KECCAK256 SWAP7 MLOAD DUP8 SLOAD SWAP2 MLOAD PUSH2 0xFFFF NOT SWAP1 SWAP3 AND PUSH1 0xFF SWAP2 SWAP1 SWAP2 AND OR SWAP1 ISZERO ISZERO PUSH1 0x8 SHL PUSH2 0xFF00 AND OR DUP7 SSTORE JUMP JUMPDEST MLOAD DUP5 SLOAD PUSH3 0xFF0000 NOT AND SWAP1 ISZERO ISZERO PUSH1 0x10 SHL PUSH3 0xFF0000 AND OR DUP5 SSTORE MLOAD PUSH1 0x1 DUP5 ADD SSTORE MLOAD SWAP2 ADD SSTORE CALLER PUSH32 0x757E3917B98948432F4A75B39769C28F626030915D88FFB09B2D52FC6420122B PUSH1 0x0 DUP1 LOG2 STOP JUMPDEST PUSH1 0x40 MLOAD PUSH3 0x461BCD PUSH1 0xE5 SHL DUP2 MSTORE PUSH1 0x20 PUSH1 0x4 DUP3 ADD MSTORE PUSH1 0x15 PUSH1 0x24 DUP3 ADD MSTORE PUSH21 0x9AC2F040E6D8D2E0E0C2CECA40E8DEDE40D0D2CED PUSH1 0x5B SHL PUSH1 0x44 DUP3 ADD MSTORE PUSH1 0x64 SWAP1 REVERT JUMPDEST PUSH1 0x40 MLOAD PUSH3 0x461BCD PUSH1 0xE5 SHL DUP2 MSTORE PUSH1 0x20 PUSH1 0x4 DUP3 ADD MSTORE PUSH1 0x1B PUSH1 0x24 DUP3 ADD MSTORE PUSH32 0x496E76616C69642073656E74696D656E74207468726573686F6C640000000000 PUSH1 0x44 DUP3 ADD MSTORE PUSH1 0x64 SWAP1 REVERT JUMPDEST POP PUSH1 0x5 DUP6 GT ISZERO PUSH2 0xD3E JUMP JUMPDEST CALLVALUE PUSH2 0x194 JUMPI PUSH1 0x40 CALLDATASIZE PUSH1 0x3 NOT ADD SLT PUSH2 0x194 JUMPI PUSH1 0x4 CALLDATALOAD PUSH1 0x0 MSTORE PUSH1 0x0 PUSH1 0x20 MSTORE PUSH1 0x40 PUSH1 0x0 KECCAK256 PUSH1 0x24 CALLDATALOAD PUSH1 0x0 MSTORE PUSH1 0x20 MSTORE PUSH2 0xEF7 PUSH1 0x40 PUSH1 0x0 KECCAK256 PUSH2 0xECC DUP2 PUSH2 0x13A8 JUMP JUMPDEST SWAP1 PUSH1 0x1 DUP2 ADD SLOAD SWAP1 PUSH1 0xFF PUSH1 0x3 PUSH1 0x2 DUP4 ADD SLOAD SWAP3 ADD SLOAD AND SWAP1 PUSH1 0xFF PUSH1 0x40 MLOAD SWAP6 DUP7 SWAP6 PUSH1 0xA0 DUP8 MSTORE PUSH1 0xA0 DUP8 ADD SWAP1 PUSH2 0x144C JUMP JUMPDEST SWAP4 DUP2 DUP2 AND PUSH1 0x20 DUP8 ADD MSTORE PUSH1 0x8 SHR AND PUSH1 0x40 DUP6 ADD MSTORE PUSH1 0x60 DUP5 ADD MSTORE ISZERO ISZERO PUSH1 0x80 DUP4 ADD MSTORE SUB SWAP1 RETURN JUMPDEST CALLVALUE PUSH2 0x194 JUMPI PUSH1 0x80 CALLDATASIZE PUSH1 0x3 NOT ADD SLT PUSH2 0x194 JUMPI PUSH1 0x4 CALLDATALOAD PUSH1 0x24 CALLDATALOAD PUSH8 0xFFFFFFFFFFFFFFFF DUP2 GT PUSH2 0x194 JUMPI PUSH2 0xF4D SWAP1 CALLDATASIZE SWAP1 PUSH1 0x4 ADD PUSH2 0x1307 JUMP JUMPDEST PUSH2 0xF55 PUSH2 0x135E JUMP JUMPDEST PUSH1 0x64 CALLDATALOAD SWAP1 PUSH1 0xFF DUP3 AND DUP1 SWAP3 SUB PUSH2 0x194 JUMPI PUSH1 0xFF SWAP1 DUP5 PUSH1 0x0 MSTORE PUSH1 0x3 PUSH1 0x20 MSTORE PUSH2 0xF80 DUP3 PUSH1 0x40 PUSH1 0x0 KECCAK256 SLOAD AND PUSH2 0x1521 JUMP JUMPDEST AND SWAP1 PUSH1 0x64 DUP3 GT PUSH2 0x121D JUMPI DUP1 ISZERO ISZERO DUP1 PUSH2 0x1212 JUMPI JUMPDEST ISZERO PUSH2 0x11DA JUMPI DUP4 PUSH1 0x0 MSTORE PUSH1 0x1 PUSH1 0x20 MSTORE PUSH1 0x40 PUSH1 0x0 KECCAK256 SWAP2 PUSH2 0xFBE PUSH1 0x1 DUP1 PUSH1 0xA0 SHL SUB PUSH1 0x4 DUP6 ADD SLOAD AND CALLER EQ PUSH2 0x1566 JUMP JUMPDEST PUSH1 0x40 MLOAD SWAP1 PUSH2 0xFCB DUP3 PUSH2 0x12C9 JUMP JUMPDEST DUP5 DUP3 MSTORE PUSH1 0x20 DUP3 ADD SWAP1 DUP2 MSTORE PUSH1 0x40 DUP3 ADD SWAP3 DUP4 MSTORE PUSH1 0x60 DUP3 ADD SWAP1 TIMESTAMP DUP3 MSTORE PUSH1 0x80 DUP4 ADD SWAP4 PUSH1 0x1 DUP6 MSTORE DUP8 PUSH1 0x0 MSTORE PUSH1 0x0 PUSH1 0x20 MSTORE PUSH1 0x7 PUSH1 0x40 PUSH1 0x0 KECCAK256 SWAP7 ADD SWAP6 DUP7 SLOAD PUSH1 0x0 MSTORE PUSH1 0x20 MSTORE PUSH1 0x40 PUSH1 0x0 KECCAK256 SWAP4 MLOAD DUP1 MLOAD SWAP1 PUSH8 0xFFFFFFFFFFFFFFFF DUP3 GT PUSH2 0x5A3 JUMPI PUSH2 0x102B DUP7 SLOAD PUSH2 0x136E JUMP JUMPDEST PUSH1 0x1F DUP2 GT PUSH2 0x1192 JUMPI JUMPDEST POP PUSH1 0x20 SWAP1 PUSH1 0x1F DUP4 GT PUSH1 0x1 EQ PUSH2 0x10FF JUMPI SWAP3 DUP3 PUSH32 0x2D221B5D868F1E666EF5E1ED98E34E8EBA3FD6E4BAE4F018D2FB337BD4CBB40 SWAP11 SWAP9 SWAP7 SWAP4 PUSH1 0x3 SWAP7 SWAP4 PUSH2 0x10EF SWAP12 SWAP10 SWAP7 PUSH1 0x0 SWAP3 PUSH2 0x10F4 JUMPI JUMPDEST POP POP DUP2 PUSH1 0x1 SHL SWAP2 PUSH1 0x0 NOT SWAP1 DUP9 SHL SHR NOT AND OR DUP5 SSTORE JUMPDEST PUSH1 0xFF DUP1 PUSH1 0x1 DUP7 ADD SWAP4 MLOAD AND AND PUSH1 0xFF NOT DUP4 SLOAD AND OR DUP3 SSTORE MLOAD PUSH2 0xFF00 DUP3 SLOAD SWAP2 PUSH1 0x8 SHL AND SWAP1 PUSH2 0xFF00 NOT AND OR SWAP1 SSTORE MLOAD PUSH1 0x2 DUP3 ADD SSTORE ADD SWAP1 MLOAD ISZERO ISZERO PUSH1 0xFF DUP1 NOT DUP4 SLOAD AND SWAP2 AND OR SWAP1 SSTORE PUSH2 0x10D9 DUP2 SLOAD PUSH2 0x15A9 JUMP JUMPDEST SWAP1 SSTORE PUSH1 0x40 MLOAD SWAP2 DUP3 SWAP2 PUSH1 0x20 DUP4 MSTORE PUSH1 0x20 DUP4 ADD SWAP1 PUSH2 0x144C JUMP JUMPDEST SUB SWAP1 LOG2 STOP JUMPDEST ADD MLOAD SWAP1 POP DUP14 DUP1 PUSH2 0x107C JUMP JUMPDEST SWAP1 PUSH1 0x1F NOT DUP4 AND SWAP2 DUP8 PUSH1 0x0 MSTORE DUP2 PUSH1 0x0 KECCAK256 SWAP3 PUSH1 0x0 JUMPDEST DUP2 DUP2 LT PUSH2 0x117A JUMPI POP SWAP4 PUSH1 0x3 SWAP7 SWAP4 PUSH2 0x10EF SWAP12 SWAP10 SWAP7 SWAP4 PUSH1 0x1 SWAP4 DUP4 PUSH32 0x2D221B5D868F1E666EF5E1ED98E34E8EBA3FD6E4BAE4F018D2FB337BD4CBB40 SWAP16 SWAP14 SWAP12 SWAP9 LT PUSH2 0x1162 JUMPI JUMPDEST POP POP POP DUP2 SHL ADD DUP5 SSTORE PUSH2 0x1090 JUMP JUMPDEST ADD MLOAD PUSH1 0x0 NOT DUP4 DUP11 SHL PUSH1 0xF8 AND SHR NOT AND SWAP1 SSTORE DUP14 DUP1 DUP1 PUSH2 0x1155 JUMP JUMPDEST SWAP3 SWAP4 PUSH1 0x20 PUSH1 0x1 DUP2 SWAP3 DUP8 DUP7 ADD MLOAD DUP2 SSTORE ADD SWAP6 ADD SWAP4 ADD PUSH2 0x1112 JUMP JUMPDEST DUP7 PUSH1 0x0 MSTORE PUSH1 0x20 PUSH1 0x0 KECCAK256 PUSH1 0x1F DUP5 ADD PUSH1 0x5 SHR DUP2 ADD SWAP2 PUSH1 0x20 DUP6 LT PUSH2 0x11D0 JUMPI JUMPDEST PUSH1 0x1F ADD PUSH1 0x5 SHR ADD SWAP1 JUMPDEST DUP2 DUP2 LT PUSH2 0x11C4 JUMPI POP PUSH2 0x1034 JUMP JUMPDEST PUSH1 0x0 DUP2 SSTORE PUSH1 0x1 ADD PUSH2 0x11B7 JUMP JUMPDEST SWAP1 SWAP2 POP DUP2 SWAP1 PUSH2 0x11AE JUMP JUMPDEST PUSH1 0x40 MLOAD PUSH3 0x461BCD PUSH1 0xE5 SHL DUP2 MSTORE PUSH1 0x20 PUSH1 0x4 DUP3 ADD MSTORE PUSH1 0x10 PUSH1 0x24 DUP3 ADD MSTORE PUSH16 0x92DCECC2D8D2C840E6E8E4CADCCEE8D PUSH1 0x83 SHL PUSH1 0x44 DUP3 ADD MSTORE PUSH1 0x64 SWAP1 REVERT JUMPDEST POP PUSH1 0x5 DUP2 GT ISZERO PUSH2 0xF93 JUMP JUMPDEST PUSH1 0x40 MLOAD PUSH3 0x461BCD PUSH1 0xE5 SHL DUP2 MSTORE PUSH1 0x20 PUSH1 0x4 DUP3 ADD MSTORE PUSH1 0x11 PUSH1 0x24 DUP3 ADD MSTORE PUSH17 0x125B9D985B1A59081CD95B9D1A5B595B9D PUSH1 0x7A SHL PUSH1 0x44 DUP3 ADD MSTORE PUSH1 0x64 SWAP1 REVERT JUMPDEST CALLVALUE PUSH2 0x194 JUMPI PUSH1 0x20 CALLDATASIZE PUSH1 0x3 NOT ADD SLT PUSH2 0x194 JUMPI PUSH1 0x4 CALLDATALOAD PUSH1 0x0 MSTORE PUSH1 0x8 PUSH1 0x20 MSTORE PUSH1 0xA0 PUSH1 0x40 PUSH1 0x0 KECCAK256 DUP1 SLOAD SWAP1 PUSH1 0x1 DUP2 ADD SLOAD SWAP1 PUSH1 0x2 DUP2 ADD SLOAD PUSH1 0x4 PUSH1 0x3 DUP4 ADD SLOAD SWAP3 ADD SLOAD SWAP3 PUSH1 0x40 MLOAD SWAP5 DUP6 MSTORE PUSH1 0x20 DUP6 ADD MSTORE PUSH1 0x40 DUP5 ADD MSTORE PUSH1 0x60 DUP4 ADD MSTORE PUSH1 0x80 DUP3 ADD MSTORE RETURN JUMPDEST CALLVALUE PUSH2 0x194 JUMPI PUSH1 0x0 CALLDATASIZE PUSH1 0x3 NOT ADD SLT PUSH2 0x194 JUMPI PUSH1 0x20 SWAP1 PUSH1 0x2 SLOAD DUP2 MSTORE RETURN JUMPDEST PUSH1 0xA0 DUP2 ADD SWAP1 DUP2 LT PUSH8 0xFFFFFFFFFFFFFFFF DUP3 GT OR PUSH2 0x5A3 JUMPI PUSH1 0x40 MSTORE JUMP JUMPDEST SWAP1 PUSH1 0x1F DUP1 NOT SWAP2 ADD AND DUP2 ADD SWAP1 DUP2 LT PUSH8 0xFFFFFFFFFFFFFFFF DUP3 GT OR PUSH2 0x5A3 JUMPI PUSH1 0x40 MSTORE JUMP JUMPDEST DUP2 PUSH1 0x1F DUP3 ADD SLT ISZERO PUSH2 0x194 JUMPI DUP1 CALLDATALOAD SWAP1 PUSH8 0xFFFFFFFFFFFFFFFF DUP3 GT PUSH2 0x5A3 JUMPI PUSH1 0x40 MLOAD SWAP3 PUSH2 0x133C PUSH1 0x1F DUP5 ADD PUSH1 0x1F NOT AND PUSH1 0x20 ADD DUP6 PUSH2 0x12E5 JUMP JUMPDEST DUP3 DUP5 MSTORE PUSH1 0x20 DUP4 DUP4 ADD ADD GT PUSH2 0x194 JUMPI DUP2 PUSH1 0x0 SWAP3 PUSH1 0x20 DUP1 SWAP4 ADD DUP4 DUP7 ADD CALLDATACOPY DUP4 ADD ADD MSTORE SWAP1 JUMP JUMPDEST PUSH1 0x44 CALLDATALOAD SWAP1 PUSH1 0xFF DUP3 AND DUP3 SUB PUSH2 0x194 JUMPI JUMP JUMPDEST SWAP1 PUSH1 0x1 DUP3 DUP2 SHR SWAP3 AND DUP1 ISZERO PUSH2 0x139E JUMPI JUMPDEST PUSH1 0x20 DUP4 LT EQ PUSH2 0x1388 JUMPI JUMP JUMPDEST PUSH4 0x4E487B71 PUSH1 0xE0 SHL PUSH1 0x0 MSTORE PUSH1 0x22 PUSH1 0x4 MSTORE PUSH1 0x24 PUSH1 0x0 REVERT JUMPDEST SWAP2 PUSH1 0x7F AND SWAP2 PUSH2 0x137D JUMP JUMPDEST SWAP1 PUSH1 0x40 MLOAD SWAP2 DUP3 PUSH1 0x0 DUP3 SLOAD SWAP3 PUSH2 0x13BC DUP5 PUSH2 0x136E JUMP JUMPDEST DUP1 DUP5 MSTORE SWAP4 PUSH1 0x1 DUP2 AND SWAP1 DUP2 ISZERO PUSH2 0x142A JUMPI POP PUSH1 0x1 EQ PUSH2 0x13E3 JUMPI JUMPDEST POP PUSH2 0x13E1 SWAP3 POP SUB DUP4 PUSH2 0x12E5 JUMP JUMPDEST JUMP JUMPDEST SWAP1 POP PUSH1 0x0 SWAP3 SWAP2 SWAP3 MSTORE PUSH1 0x20 PUSH1 0x0 KECCAK256 SWAP1 PUSH1 0x0 SWAP2 JUMPDEST DUP2 DUP4 LT PUSH2 0x140E JUMPI POP POP SWAP1 PUSH1 0x20 PUSH2 0x13E1 SWAP3 DUP3 ADD ADD CODESIZE PUSH2 0x13D4 JUMP JUMPDEST PUSH1 0x20 SWAP2 SWAP4 POP DUP1 PUSH1 0x1 SWAP2 SLOAD DUP4 DUP6 DUP10 ADD ADD MSTORE ADD SWAP2 ADD SWAP1 SWAP2 DUP5 SWAP3 PUSH2 0x13F5 JUMP JUMPDEST SWAP1 POP PUSH1 0x20 SWAP3 POP PUSH2 0x13E1 SWAP5 SWAP2 POP PUSH1 0xFF NOT AND DUP3 DUP5 ADD MSTORE ISZERO ISZERO PUSH1 0x5 SHL DUP3 ADD ADD CODESIZE PUSH2 0x13D4 JUMP JUMPDEST SWAP2 SWAP1 DUP3 MLOAD SWAP3 DUP4 DUP3 MSTORE PUSH1 0x0 JUMPDEST DUP5 DUP2 LT PUSH2 0x1478 JUMPI POP POP DUP3 PUSH1 0x0 PUSH1 0x20 DUP1 SWAP5 SWAP6 DUP5 ADD ADD MSTORE PUSH1 0x1F DUP1 NOT SWAP2 ADD AND ADD ADD SWAP1 JUMP JUMPDEST DUP1 PUSH1 0x20 DUP1 SWAP3 DUP5 ADD ADD MLOAD DUP3 DUP3 DUP7 ADD ADD MSTORE ADD PUSH2 0x1457 JUMP JUMPDEST SWAP6 SWAP3 SWAP10 SWAP9 SWAP8 SWAP5 SWAP2 PUSH2 0x14C1 PUSH1 0xFF SWAP2 PUSH2 0x14B3 PUSH2 0x100 SWAP11 SWAP8 SWAP5 PUSH2 0x120 DUP12 MSTORE PUSH2 0x120 DUP12 ADD SWAP1 PUSH2 0x144C JUMP JUMPDEST SWAP1 DUP10 DUP3 SUB PUSH1 0x20 DUP12 ADD MSTORE PUSH2 0x144C JUMP JUMPDEST SWAP11 AND PUSH1 0x40 DUP8 ADD MSTORE ISZERO ISZERO PUSH1 0x60 DUP7 ADD MSTORE PUSH1 0x80 DUP6 ADD MSTORE PUSH1 0x1 PUSH1 0x1 PUSH1 0xA0 SHL SUB AND PUSH1 0xA0 DUP5 ADD MSTORE PUSH1 0xC0 DUP4 ADD MSTORE PUSH1 0xE0 DUP3 ADD MSTORE ADD MSTORE JUMP JUMPDEST PUSH1 0x4 SLOAD DUP2 LT ISZERO PUSH2 0x150B JUMPI PUSH1 0x4 PUSH1 0x0 MSTORE PUSH1 0x20 PUSH1 0x0 KECCAK256 ADD SWAP1 PUSH1 0x0 SWAP1 JUMP JUMPDEST PUSH4 0x4E487B71 PUSH1 0xE0 SHL PUSH1 0x0 MSTORE PUSH1 0x32 PUSH1 0x4 MSTORE PUSH1 0x24 PUSH1 0x0 REVERT JUMPDEST ISZERO PUSH2 0x1528 JUMPI JUMP JUMPDEST PUSH1 0x40 MLOAD PUSH3 0x461BCD PUSH1 0xE5 SHL DUP2 MSTORE PUSH1 0x20 PUSH1 0x4 DUP3 ADD MSTORE PUSH1 0x16 PUSH1 0x24 DUP3 ADD MSTORE PUSH22 0x14DD1C985D1959DE48191BD95CDB89DD08195E1A5CDD PUSH1 0x52 SHL PUSH1 0x44 DUP3 ADD MSTORE PUSH1 0x64 SWAP1 REVERT JUMPDEST ISZERO PUSH2 0x156D JUMPI JUMP JUMPDEST PUSH1 0x40 MLOAD PUSH3 0x461BCD PUSH1 0xE5 SHL DUP2 MSTORE PUSH1 0x20 PUSH1 0x4 DUP3 ADD MSTORE PUSH1 0x14 PUSH1 0x24 DUP3 ADD MSTORE PUSH20 0x2737BA1039BA3930BA32B3BC9031B932B0BA37B9 PUSH1 0x61 SHL PUSH1 0x44 DUP3 ADD MSTORE PUSH1 0x64 SWAP1 REVERT JUMPDEST PUSH1 0x0 NOT DUP2 EQ PUSH2 0xC2E JUMPI PUSH1 0x1 ADD SWAP1 JUMP JUMPDEST ISZERO PUSH2 0x15BF JUMPI JUMP JUMPDEST PUSH1 0x40 MLOAD PUSH3 0x461BCD PUSH1 0xE5 SHL DUP2 MSTORE PUSH1 0x20 PUSH1 0x4 DUP3 ADD MSTORE PUSH1 0x12 PUSH1 0x24 DUP3 ADD MSTORE PUSH18 0x125B9D985B1A59081C9A5CDAC81B195D995B PUSH1 0x72 SHL PUSH1 0x44 DUP3 ADD MSTORE PUSH1 0x64 SWAP1 REVERT JUMPDEST PUSH8 0xFFFFFFFFFFFFFFFF DUP2 GT PUSH2 0x5A3 JUMPI PUSH1 0x5 SHL PUSH1 0x20 ADD SWAP1 JUMP JUMPDEST DUP1 MLOAD DUP3 LT ISZERO PUSH2 0x150B JUMPI PUSH1 0x20 SWAP2 PUSH1 0x5 SHL ADD ADD SWAP1 JUMP JUMPDEST DUP2 ISZERO PUSH2 0x162F JUMPI DIV SWAP1 JUMP JUMPDEST PUSH4 0x4E487B71 PUSH1 0xE0 SHL PUSH1 0x0 MSTORE PUSH1 0x12 PUSH1 0x4 MSTORE PUSH1 0x24 PUSH1 0x0 REVERT INVALID LOG2 PUSH5 0x6970667358 0x22 SLT KECCAK256 SUB 0x2D PUSH25 0xD749CFFC91798F4567ACF2C2286132B4D35A828DE5E3F9092C 0xAD SWAP6 0xDF 0xDD PUSH5 0x736F6C6343 STOP ADDMOD SHR STOP CALLER "},"methodIdentifiers":{"addSignal(uint256,string,uint8,uint8)":"3c9126ec","allStrategyIds(uint256)":"dafdbe69","bridgeExecutor()":"a10bab0b","createStrategy(string,string,uint8)":"ca32929b","executeStrategyTrade(uint256,address,address,uint256,uint256,uint8)":"4a054580","getAllStrategyIds()":"fe10a731","getSignals(uint256)":"b70a58f7","getStrategy(uint256)":"cfc0cc34","strategies(uint256)":"d574ea3d","strategyCount()":"22068b44","strategyExists(uint256)":"6ce68a34","strategyPerformance(uint256)":"2cc3ce4d","strategyRisk(uint256)":"4e526abb","strategySignals(uint256,uint256)":"3dcf2812","tradingExecutor()":"caaa7009","updateSettings(uint8,bool,bool,uint256,uint256)":"455a4c3f","userSettings(address)":"7ef8513a"}}}}}