{"contracts/BridgeExecutor.sol":{"BridgeExecutor":{"abi":[{"inputs":[{"internalType":"address","name":"_deBridgeGate","type":"address"}],"stateMutability":"nonpayable","type":"constructor"},{"inputs":[{"internalType":"uint256","name":"_chainId","type":"uint256"}],"name":"addSupportedChain","outputs":[],"stateMutability":"nonpayable","type":"function"},{"inputs":[],"name":"deBridgeGate","outputs":[{"internalType":"contract IDeBridgeGate","name":"","type":"address"}],"stateMutability":"view","type":"function"},{"inputs":[{"internalType":"uint256","name":"_chainIdTo","type":"uint256"},{"internalType":"address","name":"_receiver","type":"address"},{"internalType":"bytes","name":"_callData","type":"bytes"}],"name":"executeStrategy","outputs":[],"stateMutability":"payable","type":"function"},{"inputs":[{"internalType":"uint256","name":"_chainId","type":"uint256"}],"name":"removeSupportedChain","outputs":[],"stateMutability":"nonpayable","type":"function"},{"inputs":[],"name":"strategyManager","outputs":[{"internalType":"address","name":"","type":"address"}],"stateMutability":"view","type":"function"},{"inputs":[{"internalType":"uint256","name":"","type":"uint256"}],"name":"supportedChains","outputs":[{"internalType":"bool","name":"","type":"bool"}],"stateMutability":"view","type":"function"}],"evm":{"bytecode":{"linkReferences":{},"object":"608034607057601f6105b138819003918201601f19168301916001600160401b03831184841017607557808492602094604052833981010312607057516001600160a01b03811690819003607057600080546001600160a01b031916919091179055604051610525908161008c8239f35b600080fd5b634e487b7160e01b600052604160045260246000fdfe6080604052600436101561001257600080fd5b6000803560e01c80630c4844aa1461044b57806339b70e3814610422578063548d496f146103f357806387188a00146103c5578063aa42e5f6146100885763ca777fbf1461005f57600080fd5b34610085578060031936011261008557546040516001600160a01b039091168152602090f35b80fd5b50606036600319011261008557602435906004356001600160a01b03831683036103c1576044359067ffffffffffffffff82116103bd57366023830112156103bd57816004013567ffffffffffffffff81116103a957604051926100f6601f8301601f191660200185610476565b81845236602483830101116102e1578185926024602093018387013784010152808352600260205260ff60408420541615610370578254604051631a843f8560e11b815292906001600160a01b0316602084600481845afa938415610365578594610331575b508334106102f957604051956080870187811067ffffffffffffffff8211176102e557869761023e91604098979852610230602082019561021d604084016060850192606084528b865260018a5281526040513360601b6020820152601481526101c7603482610476565b8352604051966bffffffffffffffffffffffff199060601b166020880152601487526101f4603488610476565b6040519889956020808801525160408701525160608601525160808086015260c08501906104ae565b9051838203603f190160a08501526104ae565b03601f198101855284610476565b813b156102e15760209585946102b561028995604051998a9788968795635f14ba3b60e11b87528b60048801528b6024880152604487015261010060648701526101048601906104ae565b601c858203600319810160848801528b8352600160a48801528b60c48801520160e486015201906104ae565b03925af180156102d4576102c65780f35b6102cf91610476565b388180f35b50604051903d90823e3d90fd5b8480fd5b634e487b7160e01b87526041600452602487fd5b60405162461bcd60e51b815260206004820152601060248201526f496e73756666696369656e742066656560801b6044820152606490fd5b9093506020813d60201161035d575b8161034d60209383610476565b810103126102e15751923861015c565b3d9150610340565b6040513d87823e3d90fd5b60405162461bcd60e51b81526020600482015260116024820152702ab739bab83837b93a32b21031b430b4b760791b6044820152606490fd5b634e487b7160e01b84526041600452602484fd5b8280fd5b5080fd5b5034610085576020366003190112610085576004358152600260205260408120805460ff1916600117905580f35b50346100855760203660031901126100855760ff60406020926004358152600284522054166040519015158152f35b50346100855780600319360112610085576001546040516001600160a01b039091168152602090f35b5034610085576020366003190112610085576004358152600260205260408120805460ff1916905580f35b90601f8019910116810190811067ffffffffffffffff82111761049857604052565b634e487b7160e01b600052604160045260246000fd5b919082519283825260005b8481106104da575050826000602080949584010152601f8019910116010190565b806020809284010151828286010152016104b956fea2646970667358221220cfcd34e0a271c0519f2f411c7764948cb9b6c822300ed7029ce1dfb029506bb664736f6c634300081c0033","opcodes":"PUSH1 0x80 CALLVALUE PUSH1 0x70 JUMPI PUSH1 0x1F PUSH2 0x5B1 CODESIZE DUP2 SWAP1 SUB SWAP2 DUP3 ADD PUSH1 0x1F NOT AND DUP4 ADD SWAP2 PUSH1 0x1 PUSH1 0x1 PUSH1 0x40 SHL SUB DUP4 GT DUP5 DUP5 LT OR PUSH1 0x75 JUMPI DUP1 DUP5 SWAP3 PUSH1 0x20 SWAP5 PUSH1 0x40 MSTORE DUP4 CODECOPY DUP2 ADD SUB SLT PUSH1 0x70 JUMPI MLOAD PUSH1 0x1 PUSH1 0x1 PUSH1 0xA0 SHL SUB DUP2 AND SWAP1 DUP2 SWAP1 SUB PUSH1 0x70 JUMPI PUSH1 0x0 DUP1 SLOAD PUSH1 0x1 PUSH1 0x1 PUSH1 0xA0 SHL SUB NOT AND SWAP2 SWAP1 SWAP2 OR SWAP1 SSTORE PUSH1 0x40 MLOAD PUSH2 0x525 SWAP1 DUP2 PUSH2 0x8C DUP3 CODECOPY RETURN JUMPDEST PUSH1 0x0 DUP1 REVERT JUMPDEST PUSH4 0x4E487B71 PUSH1 0xE0 SHL PUSH1 0x0 MSTORE PUSH1 0x41 PUSH1 0x4 MSTORE PUSH1 0x24 PUSH1 0x0 REVERT INVALID PUSH1 0x80 PUSH1 0x40 MSTORE PUSH1 0x4 CALLDATASIZE LT ISZERO PUSH2 0x12 JUMPI PUSH1 0x0 DUP1 REVERT JUMPDEST PUSH1 0x0 DUP1 CALLDATALOAD PUSH1 0xE0 SHR DUP1 PUSH4 0xC4844AA EQ PUSH2 0x44B JUMPI DUP1 PUSH4 0x39B70E38 EQ PUSH2 0x422 JUMPI DUP1 PUSH4 0x548D496F EQ PUSH2 0x3F3 JUMPI DUP1 PUSH4 0x87188A00 EQ PUSH2 0x3C5 JUMPI DUP1 PUSH4 0xAA42E5F6 EQ PUSH2 0x88 JUMPI PUSH4 0xCA777FBF EQ PUSH2 0x5F JUMPI PUSH1 0x0 DUP1 REVERT JUMPDEST CALLVALUE PUSH2 0x85 JUMPI DUP1 PUSH1 0x3 NOT CALLDATASIZE ADD SLT PUSH2 0x85 JUMPI SLOAD PUSH1 0x40 MLOAD PUSH1 0x1 PUSH1 0x1 PUSH1 0xA0 SHL SUB SWAP1 SWAP2 AND DUP2 MSTORE PUSH1 0x20 SWAP1 RETURN JUMPDEST DUP1 REVERT JUMPDEST POP PUSH1 0x60 CALLDATASIZE PUSH1 0x3 NOT ADD SLT PUSH2 0x85 JUMPI PUSH1 0x24 CALLDATALOAD SWAP1 PUSH1 0x4 CALLDATALOAD PUSH1 0x1 PUSH1 0x1 PUSH1 0xA0 SHL SUB DUP4 AND DUP4 SUB PUSH2 0x3C1 JUMPI PUSH1 0x44 CALLDATALOAD SWAP1 PUSH8 0xFFFFFFFFFFFFFFFF DUP3 GT PUSH2 0x3BD JUMPI CALLDATASIZE PUSH1 0x23 DUP4 ADD SLT ISZERO PUSH2 0x3BD JUMPI DUP2 PUSH1 0x4 ADD CALLDATALOAD PUSH8 0xFFFFFFFFFFFFFFFF DUP2 GT PUSH2 0x3A9 JUMPI PUSH1 0x40 MLOAD SWAP3 PUSH2 0xF6 PUSH1 0x1F DUP4 ADD PUSH1 0x1F NOT AND PUSH1 0x20 ADD DUP6 PUSH2 0x476 JUMP JUMPDEST DUP2 DUP5 MSTORE CALLDATASIZE PUSH1 0x24 DUP4 DUP4 ADD ADD GT PUSH2 0x2E1 JUMPI DUP2 DUP6 SWAP3 PUSH1 0x24 PUSH1 0x20 SWAP4 ADD DUP4 DUP8 ADD CALLDATACOPY DUP5 ADD ADD MSTORE DUP1 DUP4 MSTORE PUSH1 0x2 PUSH1 0x20 MSTORE PUSH1 0xFF PUSH1 0x40 DUP5 KECCAK256 SLOAD AND ISZERO PUSH2 0x370 JUMPI DUP3 SLOAD PUSH1 0x40 MLOAD PUSH4 0x1A843F85 PUSH1 0xE1 SHL DUP2 MSTORE SWAP3 SWAP1 PUSH1 0x1 PUSH1 0x1 PUSH1 0xA0 SHL SUB AND PUSH1 0x20 DUP5 PUSH1 0x4 DUP2 DUP5 GAS STATICCALL SWAP4 DUP5 ISZERO PUSH2 0x365 JUMPI DUP6 SWAP5 PUSH2 0x331 JUMPI JUMPDEST POP DUP4 CALLVALUE LT PUSH2 0x2F9 JUMPI PUSH1 0x40 MLOAD SWAP6 PUSH1 0x80 DUP8 ADD DUP8 DUP2 LT PUSH8 0xFFFFFFFFFFFFFFFF DUP3 GT OR PUSH2 0x2E5 JUMPI DUP7 SWAP8 PUSH2 0x23E SWAP2 PUSH1 0x40 SWAP9 SWAP8 SWAP9 MSTORE PUSH2 0x230 PUSH1 0x20 DUP3 ADD SWAP6 PUSH2 0x21D PUSH1 0x40 DUP5 ADD PUSH1 0x60 DUP6 ADD SWAP3 PUSH1 0x60 DUP5 MSTORE DUP12 DUP7 MSTORE PUSH1 0x1 DUP11 MSTORE DUP2 MSTORE PUSH1 0x40 MLOAD CALLER PUSH1 0x60 SHL PUSH1 0x20 DUP3 ADD MSTORE PUSH1 0x14 DUP2 MSTORE PUSH2 0x1C7 PUSH1 0x34 DUP3 PUSH2 0x476 JUMP JUMPDEST DUP4 MSTORE PUSH1 0x40 MLOAD SWAP7 PUSH12 0xFFFFFFFFFFFFFFFFFFFFFFFF NOT SWAP1 PUSH1 0x60 SHL AND PUSH1 0x20 DUP9 ADD MSTORE PUSH1 0x14 DUP8 MSTORE PUSH2 0x1F4 PUSH1 0x34 DUP9 PUSH2 0x476 JUMP JUMPDEST PUSH1 0x40 MLOAD SWAP9 DUP10 SWAP6 PUSH1 0x20 DUP1 DUP9 ADD MSTORE MLOAD PUSH1 0x40 DUP8 ADD MSTORE MLOAD PUSH1 0x60 DUP7 ADD MSTORE MLOAD PUSH1 0x80 DUP1 DUP7 ADD MSTORE PUSH1 0xC0 DUP6 ADD SWAP1 PUSH2 0x4AE JUMP JUMPDEST SWAP1 MLOAD DUP4 DUP3 SUB PUSH1 0x3F NOT ADD PUSH1 0xA0 DUP6 ADD MSTORE PUSH2 0x4AE JUMP JUMPDEST SUB PUSH1 0x1F NOT DUP2 ADD DUP6 MSTORE DUP5 PUSH2 0x476 JUMP JUMPDEST DUP2 EXTCODESIZE ISZERO PUSH2 0x2E1 JUMPI PUSH1 0x20 SWAP6 DUP6 SWAP5 PUSH2 0x2B5 PUSH2 0x289 SWAP6 PUSH1 0x40 MLOAD SWAP10 DUP11 SWAP8 DUP9 SWAP7 DUP8 SWAP6 PUSH4 0x5F14BA3B PUSH1 0xE1 SHL DUP8 MSTORE DUP12 PUSH1 0x4 DUP9 ADD MSTORE DUP12 PUSH1 0x24 DUP9 ADD MSTORE PUSH1 0x44 DUP8 ADD MSTORE PUSH2 0x100 PUSH1 0x64 DUP8 ADD MSTORE PUSH2 0x104 DUP7 ADD SWAP1 PUSH2 0x4AE JUMP JUMPDEST PUSH1 0x1C DUP6 DUP3 SUB PUSH1 0x3 NOT DUP2 ADD PUSH1 0x84 DUP9 ADD MSTORE DUP12 DUP4 MSTORE PUSH1 0x1 PUSH1 0xA4 DUP9 ADD MSTORE DUP12 PUSH1 0xC4 DUP9 ADD MSTORE ADD PUSH1 0xE4 DUP7 ADD MSTORE ADD SWAP1 PUSH2 0x4AE JUMP JUMPDEST SUB SWAP3 GAS CALL DUP1 ISZERO PUSH2 0x2D4 JUMPI PUSH2 0x2C6 JUMPI DUP1 RETURN JUMPDEST PUSH2 0x2CF SWAP2 PUSH2 0x476 JUMP JUMPDEST CODESIZE DUP2 DUP1 RETURN JUMPDEST POP PUSH1 0x40 MLOAD SWAP1 RETURNDATASIZE SWAP1 DUP3 RETURNDATACOPY RETURNDATASIZE SWAP1 REVERT JUMPDEST DUP5 DUP1 REVERT JUMPDEST PUSH4 0x4E487B71 PUSH1 0xE0 SHL DUP8 MSTORE PUSH1 0x41 PUSH1 0x4 MSTORE PUSH1 0x24 DUP8 REVERT JUMPDEST PUSH1 0x40 MLOAD PUSH3 0x461BCD PUSH1 0xE5 SHL DUP2 MSTORE PUSH1 0x20 PUSH1 0x4 DUP3 ADD MSTORE PUSH1 0x10 PUSH1 0x24 DUP3 ADD MSTORE PUSH16 0x496E73756666696369656E7420666565 PUSH1 0x80 SHL PUSH1 0x44 DUP3 ADD MSTORE PUSH1 0x64 SWAP1 REVERT JUMPDEST SWAP1 SWAP4 POP PUSH1 0x20 DUP2 RETURNDATASIZE PUSH1 0x20 GT PUSH2 0x35D JUMPI JUMPDEST DUP2 PUSH2 0x34D PUSH1 0x20 SWAP4 DUP4 PUSH2 0x476 JUMP JUMPDEST DUP2 ADD SUB SLT PUSH2 0x2E1 JUMPI MLOAD SWAP3 CODESIZE PUSH2 0x15C JUMP JUMPDEST RETURNDATASIZE SWAP2 POP PUSH2 0x340 JUMP JUMPDEST PUSH1 0x40 MLOAD RETURNDATASIZE DUP8 DUP3 RETURNDATACOPY RETURNDATASIZE SWAP1 REVERT JUMPDEST PUSH1 0x40 MLOAD PUSH3 0x461BCD PUSH1 0xE5 SHL DUP2 MSTORE PUSH1 0x20 PUSH1 0x4 DUP3 ADD MSTORE PUSH1 0x11 PUSH1 0x24 DUP3 ADD MSTORE PUSH17 0x2AB739BAB83837B93A32B21031B430B4B7 PUSH1 0x79 SHL PUSH1 0x44 DUP3 ADD MSTORE PUSH1 0x64 SWAP1 REVERT JUMPDEST PUSH4 0x4E487B71 PUSH1 0xE0 SHL DUP5 MSTORE PUSH1 0x41 PUSH1 0x4 MSTORE PUSH1 0x24 DUP5 REVERT JUMPDEST DUP3 DUP1 REVERT JUMPDEST POP DUP1 REVERT JUMPDEST POP CALLVALUE PUSH2 0x85 JUMPI PUSH1 0x20 CALLDATASIZE PUSH1 0x3 NOT ADD SLT PUSH2 0x85 JUMPI PUSH1 0x4 CALLDATALOAD DUP2 MSTORE PUSH1 0x2 PUSH1 0x20 MSTORE PUSH1 0x40 DUP2 KECCAK256 DUP1 SLOAD PUSH1 0xFF NOT AND PUSH1 0x1 OR SWAP1 SSTORE DUP1 RETURN JUMPDEST POP CALLVALUE PUSH2 0x85 JUMPI PUSH1 0x20 CALLDATASIZE PUSH1 0x3 NOT ADD SLT PUSH2 0x85 JUMPI PUSH1 0xFF PUSH1 0x40 PUSH1 0x20 SWAP3 PUSH1 0x4 CALLDATALOAD DUP2 MSTORE PUSH1 0x2 DUP5 MSTORE KECCAK256 SLOAD AND PUSH1 0x40 MLOAD SWAP1 ISZERO ISZERO DUP2 MSTORE RETURN JUMPDEST POP CALLVALUE PUSH2 0x85 JUMPI DUP1 PUSH1 0x3 NOT CALLDATASIZE ADD SLT PUSH2 0x85 JUMPI PUSH1 0x1 SLOAD PUSH1 0x40 MLOAD PUSH1 0x1 PUSH1 0x1 PUSH1 0xA0 SHL SUB SWAP1 SWAP2 AND DUP2 MSTORE PUSH1 0x20 SWAP1 RETURN JUMPDEST POP CALLVALUE PUSH2 0x85 JUMPI PUSH1 0x20 CALLDATASIZE PUSH1 0x3 NOT ADD SLT PUSH2 0x85 JUMPI PUSH1 0x4 CALLDATALOAD DUP2 MSTORE PUSH1 0x2 PUSH1 0x20 MSTORE PUSH1 0x40 DUP2 KECCAK256 DUP1 SLOAD PUSH1 0xFF NOT AND SWAP1 SSTORE DUP1 RETURN JUMPDEST SWAP1 PUSH1 0x1F DUP1 NOT SWAP2 ADD AND DUP2 ADD SWAP1 DUP2 LT PUSH8 0xFFFFFFFFFFFFFFFF DUP3 GT OR PUSH2 0x498 JUMPI PUSH1 0x40 MSTORE JUMP JUMPDEST PUSH4 0x4E487B71 PUSH1 0xE0 SHL PUSH1 0x0 MSTORE PUSH1 0x41 PUSH1 0x4 MSTORE PUSH1 0x24 PUSH1 0x0 REVERT JUMPDEST SWAP2 SWAP1 DUP3 MLOAD SWAP3 DUP4 DUP3 MSTORE PUSH1 0x0 JUMPDEST DUP5 DUP2 LT PUSH2 0x4DA JUMPI POP POP DUP3 PUSH1 0x0 PUSH1 0x20 DUP1 SWAP5 SWAP6 DUP5 ADD ADD MSTORE PUSH1 0x1F DUP1 NOT SWAP2 ADD AND ADD ADD SWAP1 JUMP JUMPDEST DUP1 PUSH1 0x20 DUP1 SWAP3 DUP5 ADD ADD MLOAD DUP3 DUP3 DUP7 ADD ADD MSTORE ADD PUSH2 0x4B9 JUMP INVALID LOG2 PUSH5 0x6970667358 0x22 SLT KECCAK256 0xCF 0xCD CALLVALUE 0xE0 LOG2 PUSH18 0xC0519F2F411C7764948CB9B6C822300ED702 SWAP13 0xE1 0xDF 0xB0 0x29 POP PUSH12 0xB664736F6C634300081C0033 "},"methodIdentifiers":{"addSupportedChain(uint256)":"87188a00","deBridgeGate()":"ca777fbf","executeStrategy(uint256,address,bytes)":"aa42e5f6","removeSupportedChain(uint256)":"0c4844aa","strategyManager()":"39b70e38","supportedChains(uint256)":"548d496f"}}}}}