{
  "_format": "hh-sol-artifact-1",
  "contractName": "StrategyManager",
  "sourceName": "contracts/StrategyManager.sol",
  "abi": [
    {
      "inputs": [
        {
          "internalType": "address",
          "name": "_tradingExecutor",
          "type": "address"
        },
        {
          "internalType": "address",
          "name": "_bridgeExecutor",
          "type": "address"
        }
      ],
      "stateMutability": "nonpayable",
      "type": "constructor"
    },
    {
      "anonymous": false,
      "inputs": [
        {
          "indexed": true,
          "internalType": "address",
          "name": "user",
          "type": "address"
        }
      ],
      "name": "SettingsUpdated",
      "type": "event"
    },
    {
      "anonymous": false,
      "inputs": [
        {
          "indexed": true,
          "internalType": "uint256",
          "name": "strategyId",
          "type": "uint256"
        },
        {
          "indexed": false,
          "internalType": "string",
          "name": "tokenSymbol",
          "type": "string"
        }
      ],
      "name": "SignalAdded",
      "type": "event"
    },
    {
      "anonymous": false,
      "inputs": [
        {
          "indexed": true,
          "internalType": "uint256",
          "name": "strategyId",
          "type": "uint256"
        },
        {
          "indexed": true,
          "internalType": "address",
          "name": "creator",
          "type": "address"
        }
      ],
      "name": "StrategyCreated",
      "type": "event"
    },
    {
      "anonymous": false,
      "inputs": [
        {
          "indexed": true,
          "internalType": "uint256",
          "name": "strategyId",
          "type": "uint256"
        }
      ],
      "name": "StrategyUpdated",
      "type": "event"
    },
    {
      "inputs": [
        {
          "internalType": "uint256",
          "name": "_strategyId",
          "type": "uint256"
        },
        {
          "internalType": "string",
          "name": "_tokenSymbol",
          "type": "string"
        },
        {
          "internalType": "uint8",
          "name": "_sentiment",
          "type": "uint8"
        },
        {
          "internalType": "uint8",
          "name": "_strength",
          "type": "uint8"
        }
      ],
      "name": "addSignal",
      "outputs": [],
      "stateMutability": "nonpayable",
      "type": "function"
    },
    {
      "inputs": [
        {
          "internalType": "uint256",
          "name": "",
          "type": "uint256"
        }
      ],
      "name": "allStrategyIds",
      "outputs": [
        {
          "internalType": "uint256",
          "name": "",
          "type": "uint256"
        }
      ],
      "stateMutability": "view",
      "type": "function"
    },
    {
      "inputs": [],
      "name": "bridgeExecutor",
      "outputs": [
        {
          "internalType": "contract IBridgeExecutor",
          "name": "",
          "type": "address"
        }
      ],
      "stateMutability": "view",
      "type": "function"
    },
    {
      "inputs": [
        {
          "internalType": "string",
          "name": "_name",
          "type": "string"
        },
        {
          "internalType": "string",
          "name": "_description",
          "type": "string"
        },
        {
          "internalType": "uint8",
          "name": "_riskLevel",
          "type": "uint8"
        }
      ],
      "name": "createStrategy",
      "outputs": [
        {
          "internalType": "uint256",
          "name": "",
          "type": "uint256"
        }
      ],
      "stateMutability": "nonpayable",
      "type": "function"
    },
    {
      "inputs": [
        {
          "internalType": "uint256",
          "name": "_strategyId",
          "type": "uint256"
        },
        {
          "internalType": "address",
          "name": "_tokenIn",
          "type": "address"
        },
        {
          "internalType": "address",
          "name": "_tokenOut",
          "type": "address"
        },
        {
          "internalType": "uint256",
          "name": "_amountIn",
          "type": "uint256"
        },
        {
          "internalType": "uint256",
          "name": "_minAmountOut",
          "type": "uint256"
        },
        {
          "internalType": "uint8",
          "name": "_sentiment",
          "type": "uint8"
        }
      ],
      "name": "executeStrategyTrade",
      "outputs": [],
      "stateMutability": "nonpayable",
      "type": "function"
    },
    {
      "inputs": [],
      "name": "getAllStrategyIds",
      "outputs": [
        {
          "internalType": "uint256[]",
          "name": "",
          "type": "uint256[]"
        }
      ],
      "stateMutability": "view",
      "type": "function"
    },
    {
      "inputs": [
        {
          "internalType": "uint256",
          "name": "_strategyId",
          "type": "uint256"
        }
      ],
      "name": "getSignals",
      "outputs": [
        {
          "components": [
            {
              "internalType": "string",
              "name": "tokenSymbol",
              "type": "string"
            },
            {
              "internalType": "uint8",
              "name": "sentiment",
              "type": "uint8"
            },
            {
              "internalType": "uint8",
              "name": "strength",
              "type": "uint8"
            },
            {
              "internalType": "uint256",
              "name": "timestamp",
              "type": "uint256"
            },
            {
              "internalType": "bool",
              "name": "isActive",
              "type": "bool"
            }
          ],
          "internalType": "struct StrategyManager.Signal[]",
          "name": "",
          "type": "tuple[]"
        }
      ],
      "stateMutability": "view",
      "type": "function"
    },
    {
      "inputs": [
        {
          "internalType": "uint256",
          "name": "_strategyId",
          "type": "uint256"
        }
      ],
      "name": "getStrategy",
      "outputs": [
        {
          "internalType": "string",
          "name": "name",
          "type": "string"
        },
        {
          "internalType": "string",
          "name": "description",
          "type": "string"
        },
        {
          "internalType": "uint8",
          "name": "riskLevel",
          "type": "uint8"
        },
        {
          "internalType": "bool",
          "name": "isActive",
          "type": "bool"
        },
        {
          "internalType": "uint256",
          "name": "performance",
          "type": "uint256"
        },
        {
          "internalType": "address",
          "name": "creator",
          "type": "address"
        },
        {
          "internalType": "uint256",
          "name": "createdAt",
          "type": "uint256"
        },
        {
          "internalType": "uint256",
          "name": "lastUpdated",
          "type": "uint256"
        },
        {
          "internalType": "uint256",
          "name": "signalCount",
          "type": "uint256"
        }
      ],
      "stateMutability": "view",
      "type": "function"
    },
    {
      "inputs": [
        {
          "internalType": "uint256",
          "name": "",
          "type": "uint256"
        }
      ],
      "name": "strategies",
      "outputs": [
        {
          "internalType": "string",
          "name": "name",
          "type": "string"
        },
        {
          "internalType": "string",
          "name": "description",
          "type": "string"
        },
        {
          "internalType": "uint8",
          "name": "riskLevel",
          "type": "uint8"
        },
        {
          "internalType": "bool",
          "name": "isActive",
          "type": "bool"
        },
        {
          "internalType": "uint256",
          "name": "performance",
          "type": "uint256"
        },
        {
          "internalType": "address",
          "name": "creator",
          "type": "address"
        },
        {
          "internalType": "uint256",
          "name": "createdAt",
          "type": "uint256"
        },
        {
          "internalType": "uint256",
          "name": "lastUpdated",
          "type": "uint256"
        },
        {
          "internalType": "uint256",
          "name": "signalCount",
          "type": "uint256"
        }
      ],
      "stateMutability": "view",
      "type": "function"
    },
    {
      "inputs": [],
      "name": "strategyCount",
      "outputs": [
        {
          "internalType": "uint256",
          "name": "",
          "type": "uint256"
        }
      ],
      "stateMutability": "view",
      "type": "function"
    },
    {
      "inputs": [
        {
          "internalType": "uint256",
          "name": "",
          "type": "uint256"
        }
      ],
      "name": "strategyExists",
      "outputs": [
        {
          "internalType": "bool",
          "name": "",
          "type": "bool"
        }
      ],
      "stateMutability": "view",
      "type": "function"
    },
    {
      "inputs": [
        {
          "internalType": "uint256",
          "name": "",
          "type": "uint256"
        }
      ],
      "name": "strategyPerformance",
      "outputs": [
        {
          "internalType": "uint256",
          "name": "totalTrades",
          "type": "uint256"
        },
        {
          "internalType": "uint256",
          "name": "successfulTrades",
          "type": "uint256"
        },
        {
          "internalType": "uint256",
          "name": "totalProfit",
          "type": "uint256"
        },
        {
          "internalType": "uint256",
          "name": "averageReturn",
          "type": "uint256"
        },
        {
          "internalType": "uint256",
          "name": "lastTradeTimestamp",
          "type": "uint256"
        }
      ],
      "stateMutability": "view",
      "type": "function"
    },
    {
      "inputs": [
        {
          "internalType": "uint256",
          "name": "",
          "type": "uint256"
        }
      ],
      "name": "strategyRisk",
      "outputs": [
        {
          "internalType": "uint256",
          "name": "maxDrawdown",
          "type": "uint256"
        },
        {
          "internalType": "uint256",
          "name": "volatility",
          "type": "uint256"
        },
        {
          "internalType": "uint256",
          "name": "sharpeRatio",
          "type": "uint256"
        },
        {
          "internalType": "uint256",
          "name": "lastUpdated",
          "type": "uint256"
        }
      ],
      "stateMutability": "view",
      "type": "function"
    },
    {
      "inputs": [
        {
          "internalType": "uint256",
          "name": "",
          "type": "uint256"
        },
        {
          "internalType": "uint256",
          "name": "",
          "type": "uint256"
        }
      ],
      "name": "strategySignals",
      "outputs": [
        {
          "internalType": "string",
          "name": "tokenSymbol",
          "type": "string"
        },
        {
          "internalType": "uint8",
          "name": "sentiment",
          "type": "uint8"
        },
        {
          "internalType": "uint8",
          "name": "strength",
          "type": "uint8"
        },
        {
          "internalType": "uint256",
          "name": "timestamp",
          "type": "uint256"
        },
        {
          "internalType": "bool",
          "name": "isActive",
          "type": "bool"
        }
      ],
      "stateMutability": "view",
      "type": "function"
    },
    {
      "inputs": [],
      "name": "tradingExecutor",
      "outputs": [
        {
          "internalType": "contract ITradingExecutor",
          "name": "",
          "type": "address"
        }
      ],
      "stateMutability": "view",
      "type": "function"
    },
    {
      "inputs": [
        {
          "internalType": "uint8",
          "name": "_maxRiskLevel",
          "type": "uint8"
        },
        {
          "internalType": "bool",
          "name": "_emailNotifications",
          "type": "bool"
        },
        {
          "internalType": "bool",
          "name": "_pushNotifications",
          "type": "bool"
        },
        {
          "internalType": "uint256",
          "name": "_minSentimentThreshold",
          "type": "uint256"
        },
        {
          "internalType": "uint256",
          "name": "_maxSlippage",
          "type": "uint256"
        }
      ],
      "name": "updateSettings",
      "outputs": [],
      "stateMutability": "nonpayable",
      "type": "function"
    },
    {
      "inputs": [
        {
          "internalType": "address",
          "name": "",
          "type": "address"
        }
      ],
      "name": "userSettings",
      "outputs": [
        {
          "internalType": "uint8",
          "name": "maxRiskLevel",
          "type": "uint8"
        },
        {
          "internalType": "bool",
          "name": "emailNotifications",
          "type": "bool"
        },
        {
          "internalType": "bool",
          "name": "pushNotifications",
          "type": "bool"
        },
        {
          "internalType": "uint256",
          "name": "minSentimentThreshold",
          "type": "uint256"
        },
        {
          "internalType": "uint256",
          "name": "maxSlippage",
          "type": "uint256"
        }
      ],
      "stateMutability": "view",
      "type": "function"
    }
  ],
  "bytecode": "0x608034608b57601f61173538819003918201601f19168301916001600160401b038311848410176090578084926040948552833981010312608b57604b602060458360a6565b920160a6565b600680546001600160a01b039384166001600160a01b03199182161790915560078054929093169116179055600060025560405161167b90816100ba8239f35b600080fd5b634e487b7160e01b600052604160045260246000fd5b51906001600160a01b0382168203608b5756fe608080604052600436101561001357600080fd5b60003560e01c90816322068b44146112ae575080632cc3ce4d146112565780633c9126ec14610f195780633dcf281214610e91578063455a4c3f14610cf55780634a05458014610a705780634e526abb14610a225780636ce68a34146109f15780637ef8513a1461097f578063a10bab0b14610956578063b70a58f71461077f578063ca32929b1461030c578063caaa7009146102e3578063cfc0cc3414610250578063d574ea3d146101d1578063dafdbe69146101995763fe10a731146100da57600080fd5b34610194576000366003190112610194576040518060206004549283815201809260046000527f8a35acfbc15ff81a39ae7d344fd709f28e8600b4aa8c65c6b64bfe7fe36bd19b9060005b81811061017e575050508161013b9103826112e5565b6040519182916020830190602084525180915260408301919060005b818110610165575050500390f35b8251845285945060209384019390920191600101610157565b8254845260209093019260019283019201610125565b600080fd5b3461019457602036600319011261019457600435600454811015610194576101c26020916114f0565b90549060031b1c604051908152f35b3461019457602036600319011261019457600435600052600160205260406000206101fb816113a8565b9061024c61020b600183016113a8565b91600281015490600381015460018060a01b03600483015416600583015491600760068501549401549460405198899860ff808460081c169316918a61148d565b0390f35b346101945760203660031901126101945760043580600052600360205261027e60ff60406000205416611521565b60005260016020526040600020600281015461024c600383015460018060a01b0360048501541660058501546006860154916007870154936102cb60016102c48a6113a8565b99016113a8565b9660405198899860ff808460081c169316918a61148d565b34610194576000366003190112610194576006546040516001600160a01b039091168152602090f35b346101945760603660031901126101945760043567ffffffffffffffff81116101945761033d903690600401611307565b60243567ffffffffffffffff81116101945761035d903690600401611307565b9060ff61036861135e565b169081151580610774575b61037c906115b8565b80511561073f5761038e6002546115a9565b918260025560405191610120830183811067ffffffffffffffff8211176105a35760405282526020820193845260408201908152606082019060018252608083016000815260a0840133815260c085019142835260e0860193428552610100870195600087528860005260016020526040600020975180519067ffffffffffffffff82116105a35781906104228b5461136e565b601f81116106ec575b50602090601f83116001146106875760009261067c575b50508160011b916000199060031b1c19161788555b600188019951998a5167ffffffffffffffff81116105a357610479825461136e565b601f8111610634575b506020601f82116001146105c45790806104e49594939260079c9d9e6000926105b9575b50508160011b916000199060031b1c19161790555b905160028a018054925161ff0090151560081b1660ff90921661ffff1990931692909217179055565b516003870155600486019060018060a01b039051166bffffffffffffffffffffffff60a01b825416179055516005850155516006840155519101558060005260036020526040600020600160ff1982541617905560045490680100000000000000008210156105a35761055f826001602094016004556114f0565b81549060031b9083821b91600019901b19161790556040519033817f899fe949a0013a461f6497b6a40c0d8b01d554a7b67ef6aa1c730298baf23d9f600080a38152f35b634e487b7160e01b600052604160045260246000fd5b015190508e806104a6565b601f1982169083600052806000209160005b81811061061c575091839160079d9e9f6104e49897969560019510610603575b505050811b0190556104bb565b015160001960f88460031b161c191690558e80806105f6565b8f8301518455600190930192602092830192016105d6565b826000526020600020601f830160051c81019160208410610672575b601f0160051c01905b8181106106665750610482565b60008155600101610659565b9091508190610650565b015190508c80610442565b60008c81528281209350601f198516905b8181106106d457509084600195949392106106bb575b505050811b018855610457565b015160001960f88460031b161c191690558c80806106ae565b92936020600181928786015181550195019301610698565b9091508a6000526020600020601f840160051c81019160208510610735575b90601f859493920160051c01905b818110610726575061042b565b60008155849350600101610719565b909150819061070b565b60405162461bcd60e51b815260206004820152600d60248201526c13985b59481c995c5d5a5c9959609a1b6044820152606490fd5b506005821115610373565b34610194576020366003190112610194576004358060005260036020526107ad60ff60406000205416611521565b8060005260016020526007604060002001546107c8816115f9565b916107d660405193846112e5565b818352601f196107e5836115f9565b0160005b81811061091c57505060005b82811061089d57836040518091602082016020835281518091526040830190602060408260051b8601019301916000905b82821061083557505050500390f35b919360019193955060208091603f19898203018552875190608080610863845160a0855260a085019061144c565b9360ff86820151168685015260ff604082015116604085015260608101516060850152015115159101529601920192018594939192610826565b600190826000526000602052604060002081600052602052604060002060ff6003604051926108cb846112c9565b6108d4816113a8565b84528286820154818116602087015260081c166040850152600281015460608501520154161515608082015261090a8287611611565b526109158186611611565b50016107f5565b60209060405161092b816112c9565b60608152600083820152600060408201526000606082015260006080820152828288010152016107e9565b34610194576000366003190112610194576007546040516001600160a01b039091168152602090f35b34610194576020366003190112610194576004356001600160a01b0381169081900361019457600052600560205260a06040600020805490600260018201549101549060ff604051938181168552818160081c161515602086015260101c161515604084015260608301526080820152f35b34610194576020366003190112610194576004356000526003602052602060ff604060002054166040519015158152f35b34610194576020366003190112610194576004356000526009602052608060406000208054906001810154906003600282015491015491604051938452602084015260408301526060820152f35b346101945760c0366003190112610194576024356001600160a01b0381169060043590829003610194576044356001600160a01b0381169290839003610194576064359060a4359360ff851680950361019457836000526003602052610add60ff60406000205416611521565b8360005260016020526040600020610b0260018060a01b036004830154163314611566565b33600052600560205260ff600260406000209201541660ff82541610610cc057600101548510610c875760a4602092600060018060a01b036006541660405198899586946325f4fecb60e21b865260048601526024850152876044850152608435606485015260848401525af1928315610c7b57600093610c44575b50816000526008602052604060002092610b9884546115a9565b91828555808211610bd7575b5050610bb4906002840154611625565b918260038201556004429101556000526001602052600360406000200155600080f35b60018501610be581546115a9565b905580820391808311610c2e578161271084029384046127101491141715610c2e57610c1091611625565b9060028401918254908101809111610c2e57610bb492559084610ba4565b634e487b7160e01b600052601160045260246000fd5b90926020823d602011610c73575b81610c5f602093836112e5565b81010312610c705750519183610b7e565b80fd5b3d9150610c52565b6040513d6000823e3d90fd5b60405162461bcd60e51b815260206004820152601160248201527053656e74696d656e7420746f6f206c6f7760781b6044820152606490fd5b60405162461bcd60e51b815260206004820152600d60248201526c0a4d2e6d640e8dede40d0d2ced609b1b6044820152606490fd5b346101945760a03660031901126101945760043560ff81168091036101945760243580151580910361019457604435801515809103610194576064356084359184151580610e86575b610d47906115b8565b60648211610e41576103e88311610e0457610dbb60029460405196610d6b886112c9565b87526020808801918252604080890194855260608901958652608089019687523360009081526005909252902096518754915161ffff1990921660ff919091161790151560081b61ff0016178655565b51845462ff0000191690151560101b62ff00001617845551600184015551910155337f757e3917b98948432f4a75b39769c28f626030915d88ffb09b2d52fc6420122b600080a2005b60405162461bcd60e51b815260206004820152601560248201527409ac2f040e6d8d2e0e0c2ceca40e8dede40d0d2ced605b1b6044820152606490fd5b60405162461bcd60e51b815260206004820152601b60248201527f496e76616c69642073656e74696d656e74207468726573686f6c6400000000006044820152606490fd5b506005851115610d3e565b346101945760403660031901126101945760043560005260006020526040600020602435600052602052610ef76040600020610ecc816113a8565b9060018101549060ff60036002830154920154169060ff60405195869560a0875260a087019061144c565b93818116602087015260081c1660408501526060840152151560808301520390f35b346101945760803660031901126101945760043560243567ffffffffffffffff811161019457610f4d903690600401611307565b610f5561135e565b6064359060ff82168092036101945760ff90846000526003602052610f808260406000205416611521565b16906064821161121d5780151580611212575b156111da57836000526001602052604060002091610fbe60018060a01b036004850154163314611566565b60405190610fcb826112c9565b848252602082019081526040820192835260608201904282526080830193600185528760005260006020526007604060002096019586546000526020526040600020935180519067ffffffffffffffff82116105a35761102b865461136e565b601f8111611192575b50602090601f83116001146110ff5792827f02d221b5d868f1e666ef5e1ed98e34e8eba3fd6e4bae4f018d2fb337bd4cbb409a989693600396936110ef9b99966000926110f4575b50508160011b9160001990881b1c19161784555b60ff80600186019351161660ff198354161782555161ff0082549160081b169061ff001916179055516002820155019051151560ff801983541691161790556110d981546115a9565b905560405191829160208352602083019061144c565b0390a2005b015190508d8061107c565b90601f1983169187600052816000209260005b81811061117a575093600396936110ef9b999693600193837f02d221b5d868f1e666ef5e1ed98e34e8eba3fd6e4bae4f018d2fb337bd4cbb409f9d9b9810611162575b505050811b018455611090565b0151600019838a1b60f8161c191690558d8080611155565b92936020600181928786015181550195019301611112565b866000526020600020601f840160051c810191602085106111d0575b601f0160051c01905b8181106111c45750611034565b600081556001016111b7565b90915081906111ae565b60405162461bcd60e51b815260206004820152601060248201526f092dcecc2d8d2c840e6e8e4cadccee8d60831b6044820152606490fd5b506005811115610f93565b60405162461bcd60e51b8152602060048201526011602482015270125b9d985b1a59081cd95b9d1a5b595b9d607a1b6044820152606490fd5b3461019457602036600319011261019457600435600052600860205260a06040600020805490600181015490600281015460046003830154920154926040519485526020850152604084015260608301526080820152f35b34610194576000366003190112610194576020906002548152f35b60a0810190811067ffffffffffffffff8211176105a357604052565b90601f8019910116810190811067ffffffffffffffff8211176105a357604052565b81601f820112156101945780359067ffffffffffffffff82116105a3576040519261133c601f8401601f1916602001856112e5565b8284526020838301011161019457816000926020809301838601378301015290565b6044359060ff8216820361019457565b90600182811c9216801561139e575b602083101461138857565b634e487b7160e01b600052602260045260246000fd5b91607f169161137d565b90604051918260008254926113bc8461136e565b808452936001811690811561142a57506001146113e3575b506113e1925003836112e5565b565b90506000929192526020600020906000915b81831061140e5750509060206113e192820101386113d4565b60209193508060019154838589010152019101909184926113f5565b9050602092506113e194915060ff191682840152151560051b820101386113d4565b919082519283825260005b848110611478575050826000602080949584010152601f8019910116010190565b80602080928401015182828601015201611457565b959299989794916114c160ff916114b36101009a97946101208b526101208b019061144c565b9089820360208b015261144c565b9a1660408701521515606086015260808501526001600160a01b031660a084015260c083015260e08201520152565b60045481101561150b57600460005260206000200190600090565b634e487b7160e01b600052603260045260246000fd5b1561152857565b60405162461bcd60e51b815260206004820152601660248201527514dd1c985d1959de48191bd95cdb89dd08195e1a5cdd60521b6044820152606490fd5b1561156d57565b60405162461bcd60e51b81526020600482015260146024820152732737ba1039ba3930ba32b3bc9031b932b0ba37b960611b6044820152606490fd5b6000198114610c2e5760010190565b156115bf57565b60405162461bcd60e51b8152602060048201526012602482015271125b9d985b1a59081c9a5cdac81b195d995b60721b6044820152606490fd5b67ffffffffffffffff81116105a35760051b60200190565b805182101561150b5760209160051b010190565b811561162f570490565b634e487b7160e01b600052601260045260246000fdfea2646970667358221220032d78d749cffc91798f4567acf2c2286132b4d35a828de5e3f9092cad95dfdd64736f6c634300081c0033",
  "linkReferences": {},
  "deployedLinkReferences": {}
}