{
  "contracts/TradingExecutor.sol": {
    "TradingExecutor": {
      "abi": [
        {
          "inputs": [
            {
              "internalType": "address",
              "name": "_sonicRouter",
              "type": "address"
            }
          ],
          "stateMutability": "nonpayable",
          "type": "constructor"
        },
        {
          "anonymous": false,
          "inputs": [
            {
              "indexed": true,
              "internalType": "address",
              "name": "strategy",
              "type": "address"
            },
            {
              "indexed": false,
              "internalType": "bool",
              "name": "authorized",
              "type": "bool"
            }
          ],
          "name": "AuthorizationSet",
          "type": "event"
        },
        {
          "anonymous": false,
          "inputs": [
            {
              "indexed": true,
              "internalType": "address",
              "name": "tokenA",
              "type": "address"
            },
            {
              "indexed": true,
              "internalType": "address",
              "name": "tokenB",
              "type": "address"
            },
            {
              "indexed": false,
              "internalType": "uint256",
              "name": "amountA",
              "type": "uint256"
            },
            {
              "indexed": false,
              "internalType": "uint256",
              "name": "amountB",
              "type": "uint256"
            }
          ],
          "name": "LiquidityAdded",
          "type": "event"
        },
        {
          "anonymous": false,
          "inputs": [
            {
              "indexed": true,
              "internalType": "address",
              "name": "token",
              "type": "address"
            },
            {
              "indexed": false,
              "internalType": "uint256",
              "name": "amount",
              "type": "uint256"
            },
            {
              "indexed": false,
              "internalType": "bool",
              "name": "isBuy",
              "type": "bool"
            },
            {
              "indexed": false,
              "internalType": "uint256",
              "name": "price",
              "type": "uint256"
            }
          ],
          "name": "TradeExecuted",
          "type": "event"
        },
        {
          "inputs": [
            {
              "internalType": "address",
              "name": "tokenA",
              "type": "address"
            },
            {
              "internalType": "address",
              "name": "tokenB",
              "type": "address"
            },
            {
              "internalType": "uint256",
              "name": "amountA",
              "type": "uint256"
            },
            {
              "internalType": "uint256",
              "name": "amountB",
              "type": "uint256"
            },
            {
              "internalType": "uint256",
              "name": "minAmountA",
              "type": "uint256"
            },
            {
              "internalType": "uint256",
              "name": "minAmountB",
              "type": "uint256"
            }
          ],
          "name": "addLiquidityToPool",
          "outputs": [
            {
              "internalType": "uint256",
              "name": "",
              "type": "uint256"
            },
            {
              "internalType": "uint256",
              "name": "",
              "type": "uint256"
            },
            {
              "internalType": "uint256",
              "name": "",
              "type": "uint256"
            }
          ],
          "stateMutability": "nonpayable",
          "type": "function"
        },
        {
          "inputs": [
            {
              "internalType": "address",
              "name": "",
              "type": "address"
            }
          ],
          "name": "authorizedStrategies",
          "outputs": [
            {
              "internalType": "bool",
              "name": "",
              "type": "bool"
            }
          ],
          "stateMutability": "view",
          "type": "function"
        },
        {
          "inputs": [
            {
              "internalType": "address",
              "name": "tokenIn",
              "type": "address"
            },
            {
              "internalType": "address",
              "name": "tokenOut",
              "type": "address"
            },
            {
              "internalType": "uint256",
              "name": "amountIn",
              "type": "uint256"
            },
            {
              "internalType": "uint256",
              "name": "minAmountOut",
              "type": "uint256"
            },
            {
              "internalType": "uint8",
              "name": "sentiment",
              "type": "uint8"
            }
          ],
          "name": "executeTrade",
          "outputs": [
            {
              "internalType": "uint256",
              "name": "",
              "type": "uint256"
            }
          ],
          "stateMutability": "nonpayable",
          "type": "function"
        },
        {
          "inputs": [
            {
              "internalType": "address",
              "name": "_strategy",
              "type": "address"
            },
            {
              "internalType": "bool",
              "name": "_authorized",
              "type": "bool"
            }
          ],
          "name": "setAuthorization",
          "outputs": [],
          "stateMutability": "nonpayable",
          "type": "function"
        },
        {
          "inputs": [],
          "name": "sonicRouter",
          "outputs": [
            {
              "internalType": "contract ISonicRouter",
              "name": "",
              "type": "address"
            }
          ],
          "stateMutability": "view",
          "type": "function"
        }
      ],
      "evm": {
        "bytecode": {
          "linkReferences": {},
          "object": "608034607057601f61073438819003918201601f19168301916001600160401b03831184841017607557808492602094604052833981010312607057516001600160a01b03811690819003607057600080546001600160a01b0319169190911790556040516106a8908161008c8239f35b600080fd5b634e487b7160e01b600052604160045260246000fdfe608080604052600436101561001357600080fd5b60003560e01c908163497cd59c14610565575080638915bd3d1461053c57806397d3fb2c146102515780639f43998e146100d25763eecea0001461005657600080fd5b346100cd5760403660031901126100cd5761006f6105a0565b602435908115158092036100cd5760207f5056a36abc1db1625034fdf114a164a0345b3ccf992fc1d51055e017375f47329160018060a01b0316928360005260018252604060002060ff1981541660ff8316179055604051908152a2005b600080fd5b346100cd5760c03660031901126100cd576100eb6105a0565b6100f36105b6565b9033600052600160205261010e60ff604060002054166105cc565b60018060a01b036000541661012c42019182421161023b57600091610104606092604051948593849262e8e33760e81b845260018060a01b03169889600485015260018060a01b03169788602485015260443560448501526064356064850152608435608485015260a43560a48501523360c485015260e48401525af190811561022f57600092839184936101e3575b506060947f36f3b2e1a21c19137dd82ec243b0708a1d26b3d1fa1dc49c44c4c366a587813860408051878152856020820152a360405192835260208301526040820152f35b9394925090506060833d606011610227575b8161020260609383610607565b8101031261022357825160208401516040909401519294509290606061019e565b8380fd5b3d91506101f5565b6040513d6000823e3d90fd5b634e487b7160e01b600052601160045260246000fd5b346100cd5760a03660031901126100cd5761026a6105a0565b6102726105b6565b9060843560ff81168091036100cd5733600052600160205261029b60ff604060002054166105cc565b8015159081610530575b50156104f7576040516060916102bb8383610607565b600282526020820190601f1984013683376102d58361063f565b6001600160a01b0390911690526102eb82610662565b6001600160a01b0394851690819052600054909416904261012c810190811061023b576040516338ed173960e01b8152604480356004830152606435602483015260a090820152935160a48501819052849260c48401929160005b8181106104d5575050506000838195938193336064840152608483015203925af190811561022f5760009161041e575b5061038081610662565b519261038b8261063f565b51670de0b6b3a7640000810290808204670de0b6b3a7640000149015171561023b576103b683610662565b51938415610408576020956103ff957fdc7340b3a0501f660c057bd15267f2aa43f3e6cd75f636a880921eb023e7966093604051928352600189840152046040820152a2610662565b51604051908152f35b634e487b7160e01b600052601260045260246000fd5b3d8083833e61042d8183610607565b8101906020818303126104d15780519067ffffffffffffffff821161022357019181601f840112156104ba5782519267ffffffffffffffff84116104bd578360051b9160208301946104826040519687610607565b85526020808601938301019384116104ba5750602001905b8282106104aa5750505083610376565b815181526020918201910161049a565b80fd5b634e487b7160e01b82526041600452602482fd5b8280fd5b82516001600160a01b0316855287955060209485019490920191600101610346565b60405162461bcd60e51b8152602060048201526011602482015270125b9d985b1a59081cd95b9d1a5b595b9d607a1b6044820152606490fd5b606491501115836102a5565b346100cd5760003660031901126100cd576000546040516001600160a01b039091168152602090f35b346100cd5760203660031901126100cd576020906001600160a01b036105896105a0565b166000526001825260ff6040600020541615158152f35b600435906001600160a01b03821682036100cd57565b602435906001600160a01b03821682036100cd57565b156105d357565b60405162461bcd60e51b815260206004820152600c60248201526b155b985d5d1a1bdc9a5e995960a21b6044820152606490fd5b90601f8019910116810190811067ffffffffffffffff82111761062957604052565b634e487b7160e01b600052604160045260246000fd5b80511561064c5760200190565b634e487b7160e01b600052603260045260246000fd5b80516001101561064c576040019056fea264697066735822122091ba9cc6769ea55f20d16eaf070939fa1c9aeb7ee348ca88f4002e666217ad1c64736f6c634300081c0033",
          "opcodes": "PUSH1 0x80 CALLVALUE PUSH1 0x70 JUMPI PUSH1 0x1F PUSH2 0x734 CODESIZE DUP2 SWAP1 SUB SWAP2 DUP3 ADD PUSH1 0x1F NOT AND DUP4 ADD SWAP2 PUSH1 0x1 PUSH1 0x1 PUSH1 0x40 SHL SUB DUP4 GT DUP5 DUP5 LT OR PUSH1 0x75 JUMPI DUP1 DUP5 SWAP3 PUSH1 0x20 SWAP5 PUSH1 0x40 MSTORE DUP4 CODECOPY DUP2 ADD SUB SLT PUSH1 0x70 JUMPI MLOAD PUSH1 0x1 PUSH1 0x1 PUSH1 0xA0 SHL SUB DUP2 AND SWAP1 DUP2 SWAP1 SUB PUSH1 0x70 JUMPI PUSH1 0x0 DUP1 SLOAD PUSH1 0x1 PUSH1 0x1 PUSH1 0xA0 SHL SUB NOT AND SWAP2 SWAP1 SWAP2 OR SWAP1 SSTORE PUSH1 0x40 MLOAD PUSH2 0x6A8 SWAP1 DUP2 PUSH2 0x8C DUP3 CODECOPY RETURN JUMPDEST PUSH1 0x0 DUP1 REVERT JUMPDEST PUSH4 0x4E487B71 PUSH1 0xE0 SHL PUSH1 0x0 MSTORE PUSH1 0x41 PUSH1 0x4 MSTORE PUSH1 0x24 PUSH1 0x0 REVERT INVALID PUSH1 0x80 DUP1 PUSH1 0x40 MSTORE PUSH1 0x4 CALLDATASIZE LT ISZERO PUSH2 0x13 JUMPI PUSH1 0x0 DUP1 REVERT JUMPDEST PUSH1 0x0 CALLDATALOAD PUSH1 0xE0 SHR SWAP1 DUP2 PUSH4 0x497CD59C EQ PUSH2 0x565 JUMPI POP DUP1 PUSH4 0x8915BD3D EQ PUSH2 0x53C JUMPI DUP1 PUSH4 0x97D3FB2C EQ PUSH2 0x251 JUMPI DUP1 PUSH4 0x9F43998E EQ PUSH2 0xD2 JUMPI PUSH4 0xEECEA000 EQ PUSH2 0x56 JUMPI PUSH1 0x0 DUP1 REVERT JUMPDEST CALLVALUE PUSH2 0xCD JUMPI PUSH1 0x40 CALLDATASIZE PUSH1 0x3 NOT ADD SLT PUSH2 0xCD JUMPI PUSH2 0x6F PUSH2 0x5A0 JUMP JUMPDEST PUSH1 0x24 CALLDATALOAD SWAP1 DUP2 ISZERO ISZERO DUP1 SWAP3 SUB PUSH2 0xCD JUMPI PUSH1 0x20 PUSH32 0x5056A36ABC1DB1625034FDF114A164A0345B3CCF992FC1D51055E017375F4732 SWAP2 PUSH1 0x1 DUP1 PUSH1 0xA0 SHL SUB AND SWAP3 DUP4 PUSH1 0x0 MSTORE PUSH1 0x1 DUP3 MSTORE PUSH1 0x40 PUSH1 0x0 KECCAK256 PUSH1 0xFF NOT DUP2 SLOAD AND PUSH1 0xFF DUP4 AND OR SWAP1 SSTORE PUSH1 0x40 MLOAD SWAP1 DUP2 MSTORE LOG2 STOP JUMPDEST PUSH1 0x0 DUP1 REVERT JUMPDEST CALLVALUE PUSH2 0xCD JUMPI PUSH1 0xC0 CALLDATASIZE PUSH1 0x3 NOT ADD SLT PUSH2 0xCD JUMPI PUSH2 0xEB PUSH2 0x5A0 JUMP JUMPDEST PUSH2 0xF3 PUSH2 0x5B6 JUMP JUMPDEST SWAP1 CALLER PUSH1 0x0 MSTORE PUSH1 0x1 PUSH1 0x20 MSTORE PUSH2 0x10E PUSH1 0xFF PUSH1 0x40 PUSH1 0x0 KECCAK256 SLOAD AND PUSH2 0x5CC JUMP JUMPDEST PUSH1 0x1 DUP1 PUSH1 0xA0 SHL SUB PUSH1 0x0 SLOAD AND PUSH2 0x12C TIMESTAMP ADD SWAP2 DUP3 TIMESTAMP GT PUSH2 0x23B JUMPI PUSH1 0x0 SWAP2 PUSH2 0x104 PUSH1 0x60 SWAP3 PUSH1 0x40 MLOAD SWAP5 DUP6 SWAP4 DUP5 SWAP3 PUSH3 0xE8E337 PUSH1 0xE8 SHL DUP5 MSTORE PUSH1 0x1 DUP1 PUSH1 0xA0 SHL SUB AND SWAP9 DUP10 PUSH1 0x4 DUP6 ADD MSTORE PUSH1 0x1 DUP1 PUSH1 0xA0 SHL SUB AND SWAP8 DUP9 PUSH1 0x24 DUP6 ADD MSTORE PUSH1 0x44 CALLDATALOAD PUSH1 0x44 DUP6 ADD MSTORE PUSH1 0x64 CALLDATALOAD PUSH1 0x64 DUP6 ADD MSTORE PUSH1 0x84 CALLDATALOAD PUSH1 0x84 DUP6 ADD MSTORE PUSH1 0xA4 CALLDATALOAD PUSH1 0xA4 DUP6 ADD MSTORE CALLER PUSH1 0xC4 DUP6 ADD MSTORE PUSH1 0xE4 DUP5 ADD MSTORE GAS CALL SWAP1 DUP2 ISZERO PUSH2 0x22F JUMPI PUSH1 0x0 SWAP3 DUP4 SWAP2 DUP5 SWAP4 PUSH2 0x1E3 JUMPI JUMPDEST POP PUSH1 0x60 SWAP5 PUSH32 0x36F3B2E1A21C19137DD82EC243B0708A1D26B3D1FA1DC49C44C4C366A5878138 PUSH1 0x40 DUP1 MLOAD DUP8 DUP2 MSTORE DUP6 PUSH1 0x20 DUP3 ADD MSTORE LOG3 PUSH1 0x40 MLOAD SWAP3 DUP4 MSTORE PUSH1 0x20 DUP4 ADD MSTORE PUSH1 0x40 DUP3 ADD MSTORE RETURN JUMPDEST SWAP4 SWAP5 SWAP3 POP SWAP1 POP PUSH1 0x60 DUP4 RETURNDATASIZE PUSH1 0x60 GT PUSH2 0x227 JUMPI JUMPDEST DUP2 PUSH2 0x202 PUSH1 0x60 SWAP4 DUP4 PUSH2 0x607 JUMP JUMPDEST DUP2 ADD SUB SLT PUSH2 0x223 JUMPI DUP3 MLOAD PUSH1 0x20 DUP5 ADD MLOAD PUSH1 0x40 SWAP1 SWAP5 ADD MLOAD SWAP3 SWAP5 POP SWAP3 SWAP1 PUSH1 0x60 PUSH2 0x19E JUMP JUMPDEST DUP4 DUP1 REVERT JUMPDEST RETURNDATASIZE SWAP2 POP PUSH2 0x1F5 JUMP JUMPDEST PUSH1 0x40 MLOAD RETURNDATASIZE PUSH1 0x0 DUP3 RETURNDATACOPY RETURNDATASIZE SWAP1 REVERT JUMPDEST PUSH4 0x4E487B71 PUSH1 0xE0 SHL PUSH1 0x0 MSTORE PUSH1 0x11 PUSH1 0x4 MSTORE PUSH1 0x24 PUSH1 0x0 REVERT JUMPDEST CALLVALUE PUSH2 0xCD JUMPI PUSH1 0xA0 CALLDATASIZE PUSH1 0x3 NOT ADD SLT PUSH2 0xCD JUMPI PUSH2 0x26A PUSH2 0x5A0 JUMP JUMPDEST PUSH2 0x272 PUSH2 0x5B6 JUMP JUMPDEST SWAP1 PUSH1 0x84 CALLDATALOAD PUSH1 0xFF DUP2 AND DUP1 SWAP2 SUB PUSH2 0xCD JUMPI CALLER PUSH1 0x0 MSTORE PUSH1 0x1 PUSH1 0x20 MSTORE PUSH2 0x29B PUSH1 0xFF PUSH1 0x40 PUSH1 0x0 KECCAK256 SLOAD AND PUSH2 0x5CC JUMP JUMPDEST DUP1 ISZERO ISZERO SWAP1 DUP2 PUSH2 0x530 JUMPI JUMPDEST POP ISZERO PUSH2 0x4F7 JUMPI PUSH1 0x40 MLOAD PUSH1 0x60 SWAP2 PUSH2 0x2BB DUP4 DUP4 PUSH2 0x607 JUMP JUMPDEST PUSH1 0x2 DUP3 MSTORE PUSH1 0x20 DUP3 ADD SWAP1 PUSH1 0x1F NOT DUP5 ADD CALLDATASIZE DUP4 CALLDATACOPY PUSH2 0x2D5 DUP4 PUSH2 0x63F JUMP JUMPDEST PUSH1 0x1 PUSH1 0x1 PUSH1 0xA0 SHL SUB SWAP1 SWAP2 AND SWAP1 MSTORE PUSH2 0x2EB DUP3 PUSH2 0x662 JUMP JUMPDEST PUSH1 0x1 PUSH1 0x1 PUSH1 0xA0 SHL SUB SWAP5 DUP6 AND SWAP1 DUP2 SWAP1 MSTORE PUSH1 0x0 SLOAD SWAP1 SWAP5 AND SWAP1 TIMESTAMP PUSH2 0x12C DUP2 ADD SWAP1 DUP2 LT PUSH2 0x23B JUMPI PUSH1 0x40 MLOAD PUSH4 0x38ED1739 PUSH1 0xE0 SHL DUP2 MSTORE PUSH1 0x44 DUP1 CALLDATALOAD PUSH1 0x4 DUP4 ADD MSTORE PUSH1 0x64 CALLDATALOAD PUSH1 0x24 DUP4 ADD MSTORE PUSH1 0xA0 SWAP1 DUP3 ADD MSTORE SWAP4 MLOAD PUSH1 0xA4 DUP6 ADD DUP2 SWAP1 MSTORE DUP5 SWAP3 PUSH1 0xC4 DUP5 ADD SWAP3 SWAP2 PUSH1 0x0 JUMPDEST DUP2 DUP2 LT PUSH2 0x4D5 JUMPI POP POP POP PUSH1 0x0 DUP4 DUP2 SWAP6 SWAP4 DUP2 SWAP4 CALLER PUSH1 0x64 DUP5 ADD MSTORE PUSH1 0x84 DUP4 ADD MSTORE SUB SWAP3 GAS CALL SWAP1 DUP2 ISZERO PUSH2 0x22F JUMPI PUSH1 0x0 SWAP2 PUSH2 0x41E JUMPI JUMPDEST POP PUSH2 0x380 DUP2 PUSH2 0x662 JUMP JUMPDEST MLOAD SWAP3 PUSH2 0x38B DUP3 PUSH2 0x63F JUMP JUMPDEST MLOAD PUSH8 0xDE0B6B3A7640000 DUP2 MUL SWAP1 DUP1 DUP3 DIV PUSH8 0xDE0B6B3A7640000 EQ SWAP1 ISZERO OR ISZERO PUSH2 0x23B JUMPI PUSH2 0x3B6 DUP4 PUSH2 0x662 JUMP JUMPDEST MLOAD SWAP4 DUP5 ISZERO PUSH2 0x408 JUMPI PUSH1 0x20 SWAP6 PUSH2 0x3FF SWAP6 PUSH32 0xDC7340B3A0501F660C057BD15267F2AA43F3E6CD75F636A880921EB023E79660 SWAP4 PUSH1 0x40 MLOAD SWAP3 DUP4 MSTORE PUSH1 0x1 DUP10 DUP5 ADD MSTORE DIV PUSH1 0x40 DUP3 ADD MSTORE LOG2 PUSH2 0x662 JUMP JUMPDEST MLOAD PUSH1 0x40 MLOAD SWAP1 DUP2 MSTORE RETURN JUMPDEST PUSH4 0x4E487B71 PUSH1 0xE0 SHL PUSH1 0x0 MSTORE PUSH1 0x12 PUSH1 0x4 MSTORE PUSH1 0x24 PUSH1 0x0 REVERT JUMPDEST RETURNDATASIZE DUP1 DUP4 DUP4 RETURNDATACOPY PUSH2 0x42D DUP2 DUP4 PUSH2 0x607 JUMP JUMPDEST DUP2 ADD SWAP1 PUSH1 0x20 DUP2 DUP4 SUB SLT PUSH2 0x4D1 JUMPI DUP1 MLOAD SWAP1 PUSH8 0xFFFFFFFFFFFFFFFF DUP3 GT PUSH2 0x223 JUMPI ADD SWAP2 DUP2 PUSH1 0x1F DUP5 ADD SLT ISZERO PUSH2 0x4BA JUMPI DUP3 MLOAD SWAP3 PUSH8 0xFFFFFFFFFFFFFFFF DUP5 GT PUSH2 0x4BD JUMPI DUP4 PUSH1 0x5 SHL SWAP2 PUSH1 0x20 DUP4 ADD SWAP5 PUSH2 0x482 PUSH1 0x40 MLOAD SWAP7 DUP8 PUSH2 0x607 JUMP JUMPDEST DUP6 MSTORE PUSH1 0x20 DUP1 DUP7 ADD SWAP4 DUP4 ADD ADD SWAP4 DUP5 GT PUSH2 0x4BA JUMPI POP PUSH1 0x20 ADD SWAP1 JUMPDEST DUP3 DUP3 LT PUSH2 0x4AA JUMPI POP POP POP DUP4 PUSH2 0x376 JUMP JUMPDEST DUP2 MLOAD DUP2 MSTORE PUSH1 0x20 SWAP2 DUP3 ADD SWAP2 ADD PUSH2 0x49A JUMP JUMPDEST DUP1 REVERT JUMPDEST PUSH4 0x4E487B71 PUSH1 0xE0 SHL DUP3 MSTORE PUSH1 0x41 PUSH1 0x4 MSTORE PUSH1 0x24 DUP3 REVERT JUMPDEST DUP3 DUP1 REVERT JUMPDEST DUP3 MLOAD PUSH1 0x1 PUSH1 0x1 PUSH1 0xA0 SHL SUB AND DUP6 MSTORE DUP8 SWAP6 POP PUSH1 0x20 SWAP5 DUP6 ADD SWAP5 SWAP1 SWAP3 ADD SWAP2 PUSH1 0x1 ADD PUSH2 0x346 JUMP JUMPDEST PUSH1 0x40 MLOAD PUSH3 0x461BCD PUSH1 0xE5 SHL DUP2 MSTORE PUSH1 0x20 PUSH1 0x4 DUP3 ADD MSTORE PUSH1 0x11 PUSH1 0x24 DUP3 ADD MSTORE PUSH17 0x125B9D985B1A59081CD95B9D1A5B595B9D PUSH1 0x7A SHL PUSH1 0x44 DUP3 ADD MSTORE PUSH1 0x64 SWAP1 REVERT JUMPDEST PUSH1 0x64 SWAP2 POP GT ISZERO DUP4 PUSH2 0x2A5 JUMP JUMPDEST CALLVALUE PUSH2 0xCD JUMPI PUSH1 0x0 CALLDATASIZE PUSH1 0x3 NOT ADD SLT PUSH2 0xCD JUMPI PUSH1 0x0 SLOAD PUSH1 0x40 MLOAD PUSH1 0x1 PUSH1 0x1 PUSH1 0xA0 SHL SUB SWAP1 SWAP2 AND DUP2 MSTORE PUSH1 0x20 SWAP1 RETURN JUMPDEST CALLVALUE PUSH2 0xCD JUMPI PUSH1 0x20 CALLDATASIZE PUSH1 0x3 NOT ADD SLT PUSH2 0xCD JUMPI PUSH1 0x20 SWAP1 PUSH1 0x1 PUSH1 0x1 PUSH1 0xA0 SHL SUB PUSH2 0x589 PUSH2 0x5A0 JUMP JUMPDEST AND PUSH1 0x0 MSTORE PUSH1 0x1 DUP3 MSTORE PUSH1 0xFF PUSH1 0x40 PUSH1 0x0 KECCAK256 SLOAD AND ISZERO ISZERO DUP2 MSTORE RETURN JUMPDEST PUSH1 0x4 CALLDATALOAD SWAP1 PUSH1 0x1 PUSH1 0x1 PUSH1 0xA0 SHL SUB DUP3 AND DUP3 SUB PUSH2 0xCD JUMPI JUMP JUMPDEST PUSH1 0x24 CALLDATALOAD SWAP1 PUSH1 0x1 PUSH1 0x1 PUSH1 0xA0 SHL SUB DUP3 AND DUP3 SUB PUSH2 0xCD JUMPI JUMP JUMPDEST ISZERO PUSH2 0x5D3 JUMPI JUMP JUMPDEST PUSH1 0x40 MLOAD PUSH3 0x461BCD PUSH1 0xE5 SHL DUP2 MSTORE PUSH1 0x20 PUSH1 0x4 DUP3 ADD MSTORE PUSH1 0xC PUSH1 0x24 DUP3 ADD MSTORE PUSH12 0x155B985D5D1A1BDC9A5E9959 PUSH1 0xA2 SHL PUSH1 0x44 DUP3 ADD MSTORE PUSH1 0x64 SWAP1 REVERT JUMPDEST SWAP1 PUSH1 0x1F DUP1 NOT SWAP2 ADD AND DUP2 ADD SWAP1 DUP2 LT PUSH8 0xFFFFFFFFFFFFFFFF DUP3 GT OR PUSH2 0x629 JUMPI PUSH1 0x40 MSTORE JUMP JUMPDEST PUSH4 0x4E487B71 PUSH1 0xE0 SHL PUSH1 0x0 MSTORE PUSH1 0x41 PUSH1 0x4 MSTORE PUSH1 0x24 PUSH1 0x0 REVERT JUMPDEST DUP1 MLOAD ISZERO PUSH2 0x64C JUMPI PUSH1 0x20 ADD SWAP1 JUMP JUMPDEST PUSH4 0x4E487B71 PUSH1 0xE0 SHL PUSH1 0x0 MSTORE PUSH1 0x32 PUSH1 0x4 MSTORE PUSH1 0x24 PUSH1 0x0 REVERT JUMPDEST DUP1 MLOAD PUSH1 0x1 LT ISZERO PUSH2 0x64C JUMPI PUSH1 0x40 ADD SWAP1 JUMP INVALID LOG2 PUSH5 0x6970667358 0x22 SLT KECCAK256 SWAP2 0xBA SWAP13 0xC6 PUSH23 0x9EA55F20D16EAF070939FA1C9AEB7EE348CA88F4002E66 PUSH3 0x17AD1C PUSH5 0x736F6C6343 STOP ADDMOD SHR STOP CALLER "
        },
        "methodIdentifiers": {
          "addLiquidityToPool(address,address,uint256,uint256,uint256,uint256)": "9f43998e",
          "authorizedStrategies(address)": "497cd59c",
          "executeTrade(address,address,uint256,uint256,uint8)": "97d3fb2c",
          "setAuthorization(address,bool)": "eecea000",
          "sonicRouter()": "8915bd3d"
        }
      }
    }
  }
}