{
  "contracts/StrategyManager.sol": {
    "StrategyManager": {
      "abi": [
        {
          "inputs": [
            {
              "internalType": "address",
              "name": "_tradingExecutor",
              "type": "address"
            },
            {
              "internalType": "address",
              "name": "_bridgeExecutor",
              "type": "address"
            }
          ],
          "stateMutability": "nonpayable",
          "type": "constructor"
        },
        {
          "anonymous": false,
          "inputs": [
            {
              "indexed": true,
              "internalType": "address",
              "name": "user",
              "type": "address"
            }
          ],
          "name": "SettingsUpdated",
          "type": "event"
        },
        {
          "anonymous": false,
          "inputs": [
            {
              "indexed": true,
              "internalType": "uint256",
              "name": "strategyId",
              "type": "uint256"
            },
            {
              "indexed": false,
              "internalType": "string",
              "name": "tokenSymbol",
              "type": "string"
            }
          ],
          "name": "SignalAdded",
          "type": "event"
        },
        {
          "anonymous": false,
          "inputs": [
            {
              "indexed": true,
              "internalType": "uint256",
              "name": "strategyId",
              "type": "uint256"
            },
            {
              "indexed": true,
              "internalType": "address",
              "name": "creator",
              "type": "address"
            }
          ],
          "name": "StrategyCreated",
          "type": "event"
        },
        {
          "anonymous": false,
          "inputs": [
            {
              "indexed": true,
              "internalType": "uint256",
              "name": "strategyId",
              "type": "uint256"
            }
          ],
          "name": "StrategyUpdated",
          "type": "event"
        },
        {
          "inputs": [
            {
              "internalType": "uint256",
              "name": "_strategyId",
              "type": "uint256"
            },
            {
              "internalType": "string",
              "name": "_tokenSymbol",
              "type": "string"
            },
            {
              "internalType": "uint8",
              "name": "_sentiment",
              "type": "uint8"
            },
            {
              "internalType": "uint8",
              "name": "_strength",
              "type": "uint8"
            }
          ],
          "name": "addSignal",
          "outputs": [],
          "stateMutability": "nonpayable",
          "type": "function"
        },
        {
          "inputs": [],
          "name": "bridgeExecutor",
          "outputs": [
            {
              "internalType": "contract IBridgeExecutor",
              "name": "",
              "type": "address"
            }
          ],
          "stateMutability": "view",
          "type": "function"
        },
        {
          "inputs": [
            {
              "internalType": "string",
              "name": "_name",
              "type": "string"
            },
            {
              "internalType": "string",
              "name": "_description",
              "type": "string"
            },
            {
              "internalType": "uint8",
              "name": "_riskLevel",
              "type": "uint8"
            }
          ],
          "name": "createStrategy",
          "outputs": [
            {
              "internalType": "uint256",
              "name": "",
              "type": "uint256"
            }
          ],
          "stateMutability": "nonpayable",
          "type": "function"
        },
        {
          "inputs": [
            {
              "internalType": "uint256",
              "name": "_strategyId",
              "type": "uint256"
            },
            {
              "internalType": "address",
              "name": "_tokenIn",
              "type": "address"
            },
            {
              "internalType": "address",
              "name": "_tokenOut",
              "type": "address"
            },
            {
              "internalType": "uint256",
              "name": "_amountIn",
              "type": "uint256"
            },
            {
              "internalType": "uint256",
              "name": "_minAmountOut",
              "type": "uint256"
            },
            {
              "internalType": "uint8",
              "name": "_sentiment",
              "type": "uint8"
            }
          ],
          "name": "executeStrategyTrade",
          "outputs": [],
          "stateMutability": "nonpayable",
          "type": "function"
        },
        {
          "inputs": [
            {
              "internalType": "uint256",
              "name": "_strategyId",
              "type": "uint256"
            }
          ],
          "name": "getSignals",
          "outputs": [
            {
              "components": [
                {
                  "internalType": "string",
                  "name": "tokenSymbol",
                  "type": "string"
                },
                {
                  "internalType": "uint8",
                  "name": "sentiment",
                  "type": "uint8"
                },
                {
                  "internalType": "uint8",
                  "name": "strength",
                  "type": "uint8"
                },
                {
                  "internalType": "uint256",
                  "name": "timestamp",
                  "type": "uint256"
                },
                {
                  "internalType": "bool",
                  "name": "isActive",
                  "type": "bool"
                }
              ],
              "internalType": "struct StrategyManager.Signal[]",
              "name": "",
              "type": "tuple[]"
            }
          ],
          "stateMutability": "view",
          "type": "function"
        },
        {
          "inputs": [
            {
              "internalType": "uint256",
              "name": "_strategyId",
              "type": "uint256"
            }
          ],
          "name": "getStrategy",
          "outputs": [
            {
              "internalType": "string",
              "name": "name",
              "type": "string"
            },
            {
              "internalType": "string",
              "name": "description",
              "type": "string"
            },
            {
              "internalType": "uint8",
              "name": "riskLevel",
              "type": "uint8"
            },
            {
              "internalType": "bool",
              "name": "isActive",
              "type": "bool"
            },
            {
              "internalType": "uint256",
              "name": "performance",
              "type": "uint256"
            },
            {
              "internalType": "address",
              "name": "creator",
              "type": "address"
            },
            {
              "internalType": "uint256",
              "name": "createdAt",
              "type": "uint256"
            },
            {
              "internalType": "uint256",
              "name": "lastUpdated",
              "type": "uint256"
            },
            {
              "internalType": "uint256",
              "name": "signalCount",
              "type": "uint256"
            }
          ],
          "stateMutability": "view",
          "type": "function"
        },
        {
          "inputs": [
            {
              "internalType": "uint256",
              "name": "",
              "type": "uint256"
            }
          ],
          "name": "strategies",
          "outputs": [
            {
              "internalType": "string",
              "name": "name",
              "type": "string"
            },
            {
              "internalType": "string",
              "name": "description",
              "type": "string"
            },
            {
              "internalType": "uint8",
              "name": "riskLevel",
              "type": "uint8"
            },
            {
              "internalType": "bool",
              "name": "isActive",
              "type": "bool"
            },
            {
              "internalType": "uint256",
              "name": "performance",
              "type": "uint256"
            },
            {
              "internalType": "address",
              "name": "creator",
              "type": "address"
            },
            {
              "internalType": "uint256",
              "name": "createdAt",
              "type": "uint256"
            },
            {
              "internalType": "uint256",
              "name": "lastUpdated",
              "type": "uint256"
            },
            {
              "internalType": "uint256",
              "name": "signalCount",
              "type": "uint256"
            }
          ],
          "stateMutability": "view",
          "type": "function"
        },
        {
          "inputs": [],
          "name": "strategyCount",
          "outputs": [
            {
              "internalType": "uint256",
              "name": "",
              "type": "uint256"
            }
          ],
          "stateMutability": "view",
          "type": "function"
        },
        {
          "inputs": [
            {
              "internalType": "uint256",
              "name": "",
              "type": "uint256"
            }
          ],
          "name": "strategyPerformance",
          "outputs": [
            {
              "internalType": "uint256",
              "name": "totalTrades",
              "type": "uint256"
            },
            {
              "internalType": "uint256",
              "name": "successfulTrades",
              "type": "uint256"
            },
            {
              "internalType": "uint256",
              "name": "totalProfit",
              "type": "uint256"
            },
            {
              "internalType": "uint256",
              "name": "averageReturn",
              "type": "uint256"
            },
            {
              "internalType": "uint256",
              "name": "lastTradeTimestamp",
              "type": "uint256"
            }
          ],
          "stateMutability": "view",
          "type": "function"
        },
        {
          "inputs": [
            {
              "internalType": "uint256",
              "name": "",
              "type": "uint256"
            }
          ],
          "name": "strategyRisk",
          "outputs": [
            {
              "internalType": "uint256",
              "name": "maxDrawdown",
              "type": "uint256"
            },
            {
              "internalType": "uint256",
              "name": "volatility",
              "type": "uint256"
            },
            {
              "internalType": "uint256",
              "name": "sharpeRatio",
              "type": "uint256"
            },
            {
              "internalType": "uint256",
              "name": "lastUpdated",
              "type": "uint256"
            }
          ],
          "stateMutability": "view",
          "type": "function"
        },
        {
          "inputs": [
            {
              "internalType": "uint256",
              "name": "",
              "type": "uint256"
            },
            {
              "internalType": "uint256",
              "name": "",
              "type": "uint256"
            }
          ],
          "name": "strategySignals",
          "outputs": [
            {
              "internalType": "string",
              "name": "tokenSymbol",
              "type": "string"
            },
            {
              "internalType": "uint8",
              "name": "sentiment",
              "type": "uint8"
            },
            {
              "internalType": "uint8",
              "name": "strength",
              "type": "uint8"
            },
            {
              "internalType": "uint256",
              "name": "timestamp",
              "type": "uint256"
            },
            {
              "internalType": "bool",
              "name": "isActive",
              "type": "bool"
            }
          ],
          "stateMutability": "view",
          "type": "function"
        },
        {
          "inputs": [],
          "name": "tradingExecutor",
          "outputs": [
            {
              "internalType": "contract ITradingExecutor",
              "name": "",
              "type": "address"
            }
          ],
          "stateMutability": "view",
          "type": "function"
        },
        {
          "inputs": [
            {
              "internalType": "uint8",
              "name": "_maxRiskLevel",
              "type": "uint8"
            },
            {
              "internalType": "bool",
              "name": "_emailNotifications",
              "type": "bool"
            },
            {
              "internalType": "bool",
              "name": "_pushNotifications",
              "type": "bool"
            },
            {
              "internalType": "uint256",
              "name": "_minSentimentThreshold",
              "type": "uint256"
            },
            {
              "internalType": "uint256",
              "name": "_maxSlippage",
              "type": "uint256"
            }
          ],
          "name": "updateSettings",
          "outputs": [],
          "stateMutability": "nonpayable",
          "type": "function"
        },
        {
          "inputs": [
            {
              "internalType": "address",
              "name": "",
              "type": "address"
            }
          ],
          "name": "userSettings",
          "outputs": [
            {
              "internalType": "uint8",
              "name": "maxRiskLevel",
              "type": "uint8"
            },
            {
              "internalType": "bool",
              "name": "emailNotifications",
              "type": "bool"
            },
            {
              "internalType": "bool",
              "name": "pushNotifications",
              "type": "bool"
            },
            {
              "internalType": "uint256",
              "name": "minSentimentThreshold",
              "type": "uint256"
            },
            {
              "internalType": "uint256",
              "name": "maxSlippage",
              "type": "uint256"
            }
          ],
          "stateMutability": "view",
          "type": "function"
        }
      ],
      "evm": {
        "bytecode": {
          "linkReferences": {},
          "object": "608034608b57601f61155138819003918201601f19168301916001600160401b038311848410176090578084926040948552833981010312608b57604b602060458360a6565b920160a6565b600480546001600160a01b039384166001600160a01b03199182161790915560058054929093169116179055600060025560405161149790816100ba8239f35b600080fd5b634e487b7160e01b600052604160045260246000fd5b51906001600160a01b0382168203608b5756fe608080604052600436101561001357600080fd5b60003560e01c90816322068b44146110e5575080632cc3ce4d1461108d5780633c9126ec14610d5c5780633dcf281214610cd4578063455a4c3f14610b385780634a054580146108c05780634e526abb146108725780637ef8513a14610800578063a10bab0b146107d7578063b70a58f71461060d578063ca32929b146101ec578063caaa7009146101c3578063cfc0cc341461013d5763d574ea3d146100b957600080fd5b3461013857602036600319011261013857600435600052600160205260406000206100e3816111df565b906101346100f3600183016111df565b91600281015490600381015460018060a01b03600483015416600583015491600760068501549401549460405198899860ff808460081c169316918a6112c4565b0390f35b600080fd5b346101385760203660031901126101385760043561015e6002548210611327565b600052600160205260406000206002810154610134600383015460018060a01b0360048501541660058501546006860154916007870154936101ab60016101a48a6111df565b99016111df565b9660405198899860ff808460081c169316918a6112c4565b34610138576000366003190112610138576004546040516001600160a01b039091168152602090f35b346101385760603660031901126101385760043567ffffffffffffffff81116101385761021d90369060040161113e565b60243567ffffffffffffffff81116101385761023d90369060040161113e565b9060ff610248611195565b169081151580610602575b61025c906113be565b8051156105cd5760025490610270826113af565b60025560405190610120820182811067ffffffffffffffff8211176104f45760405281526020810193845260408101928352606081019260018452608082016000815260a0830133815260c084019042825260e0850192428452610100860194600086528760005260016020526040600020965180519067ffffffffffffffff82116104f45781906103028a546111a5565b601f811161057a575b50602090601f83116001146105155760009261050a575b50508160011b916000199060031b1c19161787555b600187019951998a5167ffffffffffffffff81116104f45761035982546111a5565b9b601f8d116104ac575b60209c508c90601f831160011461043b5791806103c895949260079c9d9e94600092610430575b50508160011b916000199060031b1c19161790555b905160028a018054925161ff0090151560081b1660ff90921661ffff1990931692909217179055565b516003870155516004860180546001600160a01b0319166001600160a01b0392909216919091179055516005850155516006840155519101556040519033817f899fe949a0013a461f6497b6a40c0d8b01d554a7b67ef6aa1c730298baf23d9f600080a38152f35b015190508f8061038a565b90601f1983169184600052816000209260005b81811061049457509260019260079d9e9f9592836103c89998961061047b575b505050811b01905561039f565b015160001960f88460031b161c191690558f808061046e565b9293602060018192878601518155019501930161044e565b826000526020600020601f830160051c81019d602084106104ea575b601f0160051c019c5b8d81106104de5750610363565b600081556001016104d1565b909d508d906104c8565b634e487b7160e01b600052604160045260246000fd5b015190508c80610322565b60008b81528281209350601f198516905b8181106105625750908460019594939210610549575b505050811b018755610337565b015160001960f88460031b161c191690558c808061053c565b92936020600181928786015181550195019301610526565b909150896000526020600020601f840160051c810191602085106105c3575b90601f859493920160051c01905b8181106105b4575061030b565b600081558493506001016105a7565b9091508190610599565b60405162461bcd60e51b815260206004820152600d60248201526c13985b59481c995c5d5a5c9959609a1b6044820152606490fd5b506005821115610253565b346101385760203660031901126101385760043561062e6002548210611327565b806000526001602052600760406000200154610649816113ff565b91610657604051938461111c565b818352601f19610666836113ff565b0160005b81811061079d57505060005b82811061071e57836040518091602082016020835281518091526040830190602060408260051b8601019301916000905b8282106106b657505050500390f35b919360019193955060208091603f198982030185528751906080806106e4845160a0855260a0850190611283565b9360ff86820151168685015260ff6040820151166040850152606081015160608501520151151591015296019201920185949391926106a7565b600190826000526000602052604060002081600052602052604060002060ff60036040519261074c84611100565b610755816111df565b84528286820154818116602087015260081c166040850152600281015460608501520154161515608082015261078b8287611417565b526107968186611417565b5001610676565b6020906040516107ac81611100565b606081526000838201526000604082015260006060820152600060808201528282880101520161066a565b34610138576000366003190112610138576005546040516001600160a01b039091168152602090f35b34610138576020366003190112610138576004356001600160a01b0381169081900361013857600052600360205260a06040600020805490600260018201549101549060ff604051938181168552818160081c161515602086015260101c161515604084015260608301526080820152f35b34610138576020366003190112610138576004356000526007602052608060406000208054906001810154906003600282015491015491604051938452602084015260408301526060820152f35b346101385760c0366003190112610138576024356001600160a01b0381169060043590829003610138576044356001600160a01b0381169290839003610138576064359060a4359360ff8516809503610138576109206002548510611327565b836000526001602052604060002061094560018060a01b03600483015416331461136c565b33600052600360205260ff600260406000209201541660ff82541610610b0357600101548510610aca5760a4602092600060018060a01b036004541660405198899586946325f4fecb60e21b865260048601526024850152876044850152608435606485015260848401525af1928315610abe57600093610a87575b508160005260066020526040600020926109db84546113af565b91828555808211610a1a575b50506109f7906002840154611441565b918260038201556004429101556000526001602052600360406000200155600080f35b60018501610a2881546113af565b905580820391808311610a71578161271084029384046127101491141715610a7157610a5391611441565b9060028401918254908101809111610a71576109f7925590846109e7565b634e487b7160e01b600052601160045260246000fd5b90926020823d602011610ab6575b81610aa26020938361111c565b81010312610ab357505191836109c1565b80fd5b3d9150610a95565b6040513d6000823e3d90fd5b60405162461bcd60e51b815260206004820152601160248201527053656e74696d656e7420746f6f206c6f7760781b6044820152606490fd5b60405162461bcd60e51b815260206004820152600d60248201526c0a4d2e6d640e8dede40d0d2ced609b1b6044820152606490fd5b346101385760a03660031901126101385760043560ff81168091036101385760243580151580910361013857604435801515809103610138576064356084359184151580610cc9575b610b8a906113be565b60648211610c84576103e88311610c4757610bfe60029460405196610bae88611100565b87526020808801918252604080890194855260608901958652608089019687523360009081526003909252902096518754915161ffff1990921660ff919091161790151560081b61ff0016178655565b51845462ff0000191690151560101b62ff00001617845551600184015551910155337f757e3917b98948432f4a75b39769c28f626030915d88ffb09b2d52fc6420122b600080a2005b60405162461bcd60e51b815260206004820152601560248201527409ac2f040e6d8d2e0e0c2ceca40e8dede40d0d2ced605b1b6044820152606490fd5b60405162461bcd60e51b815260206004820152601b60248201527f496e76616c69642073656e74696d656e74207468726573686f6c6400000000006044820152606490fd5b506005851115610b81565b346101385760403660031901126101385760043560005260006020526040600020602435600052602052610d3a6040600020610d0f816111df565b9060018101549060ff60036002830154920154169060ff60405195869560a0875260a0870190611283565b93818116602087015260081c1660408501526060840152151560808301520390f35b346101385760803660031901126101385760043560243567ffffffffffffffff811161013857610d9090369060040161113e565b610d98611195565b6064359060ff82168092036101385760ff90610db76002548610611327565b1690606482116110545780151580611049575b1561101157836000526001602052604060002091610df560018060a01b03600485015416331461136c565b60405190610e0282611100565b848252602082019081526040820192835260608201904282526080830193600185528760005260006020526007604060002096019586546000526020526040600020935180519067ffffffffffffffff82116104f457610e6286546111a5565b601f8111610fc9575b50602090601f8311600114610f365792827f02d221b5d868f1e666ef5e1ed98e34e8eba3fd6e4bae4f018d2fb337bd4cbb409a98969360039693610f269b9996600092610f2b575b50508160011b9160001990881b1c19161784555b60ff80600186019351161660ff198354161782555161ff0082549160081b169061ff001916179055516002820155019051151560ff80198354169116179055610f1081546113af565b9055604051918291602083526020830190611283565b0390a2005b015190508d80610eb3565b90601f1983169187600052816000209260005b818110610fb157509360039693610f269b999693600193837f02d221b5d868f1e666ef5e1ed98e34e8eba3fd6e4bae4f018d2fb337bd4cbb409f9d9b9810610f99575b505050811b018455610ec7565b0151600019838a1b60f8161c191690558d8080610f8c565b92936020600181928786015181550195019301610f49565b866000526020600020601f840160051c81019160208510611007575b601f0160051c01905b818110610ffb5750610e6b565b60008155600101610fee565b9091508190610fe5565b60405162461bcd60e51b815260206004820152601060248201526f092dcecc2d8d2c840e6e8e4cadccee8d60831b6044820152606490fd5b506005811115610dca565b60405162461bcd60e51b8152602060048201526011602482015270125b9d985b1a59081cd95b9d1a5b595b9d607a1b6044820152606490fd5b3461013857602036600319011261013857600435600052600660205260a06040600020805490600181015490600281015460046003830154920154926040519485526020850152604084015260608301526080820152f35b34610138576000366003190112610138576020906002548152f35b60a0810190811067ffffffffffffffff8211176104f457604052565b90601f8019910116810190811067ffffffffffffffff8211176104f457604052565b81601f820112156101385780359067ffffffffffffffff82116104f45760405192611173601f8401601f19166020018561111c565b8284526020838301011161013857816000926020809301838601378301015290565b6044359060ff8216820361013857565b90600182811c921680156111d5575b60208310146111bf57565b634e487b7160e01b600052602260045260246000fd5b91607f16916111b4565b90604051918260008254926111f3846111a5565b8084529360018116908115611261575060011461121a575b506112189250038361111c565b565b90506000929192526020600020906000915b818310611245575050906020611218928201013861120b565b602091935080600191548385890101520191019091849261122c565b90506020925061121894915060ff191682840152151560051b8201013861120b565b919082519283825260005b8481106112af575050826000602080949584010152601f8019910116010190565b8060208092840101518282860101520161128e565b959299989794916112f860ff916112ea6101009a97946101208b526101208b0190611283565b9089820360208b0152611283565b9a1660408701521515606086015260808501526001600160a01b031660a084015260c083015260e08201520152565b1561132e57565b60405162461bcd60e51b815260206004820152601660248201527514dd1c985d1959de48191bd95cdb89dd08195e1a5cdd60521b6044820152606490fd5b1561137357565b60405162461bcd60e51b81526020600482015260146024820152732737ba1039ba3930ba32b3bc9031b932b0ba37b960611b6044820152606490fd5b6000198114610a715760010190565b156113c557565b60405162461bcd60e51b8152602060048201526012602482015271125b9d985b1a59081c9a5cdac81b195d995b60721b6044820152606490fd5b67ffffffffffffffff81116104f45760051b60200190565b805182101561142b5760209160051b010190565b634e487b7160e01b600052603260045260246000fd5b811561144b570490565b634e487b7160e01b600052601260045260246000fdfea2646970667358221220846ffe93b0d5f61ccd5c6841398f032091ac6772e3e56924713f0601f12d90ab64736f6c634300081c0033",
          "opcodes": "PUSH1 0x80 CALLVALUE PUSH1 0x8B JUMPI PUSH1 0x1F PUSH2 0x1551 CODESIZE DUP2 SWAP1 SUB SWAP2 DUP3 ADD PUSH1 0x1F NOT AND DUP4 ADD SWAP2 PUSH1 0x1 PUSH1 0x1 PUSH1 0x40 SHL SUB DUP4 GT DUP5 DUP5 LT OR PUSH1 0x90 JUMPI DUP1 DUP5 SWAP3 PUSH1 0x40 SWAP5 DUP6 MSTORE DUP4 CODECOPY DUP2 ADD SUB SLT PUSH1 0x8B JUMPI PUSH1 0x4B PUSH1 0x20 PUSH1 0x45 DUP4 PUSH1 0xA6 JUMP JUMPDEST SWAP3 ADD PUSH1 0xA6 JUMP JUMPDEST PUSH1 0x4 DUP1 SLOAD PUSH1 0x1 PUSH1 0x1 PUSH1 0xA0 SHL SUB SWAP4 DUP5 AND PUSH1 0x1 PUSH1 0x1 PUSH1 0xA0 SHL SUB NOT SWAP2 DUP3 AND OR SWAP1 SWAP2 SSTORE PUSH1 0x5 DUP1 SLOAD SWAP3 SWAP1 SWAP4 AND SWAP2 AND OR SWAP1 SSTORE PUSH1 0x0 PUSH1 0x2 SSTORE PUSH1 0x40 MLOAD PUSH2 0x1497 SWAP1 DUP2 PUSH2 0xBA DUP3 CODECOPY RETURN JUMPDEST PUSH1 0x0 DUP1 REVERT JUMPDEST PUSH4 0x4E487B71 PUSH1 0xE0 SHL PUSH1 0x0 MSTORE PUSH1 0x41 PUSH1 0x4 MSTORE PUSH1 0x24 PUSH1 0x0 REVERT JUMPDEST MLOAD SWAP1 PUSH1 0x1 PUSH1 0x1 PUSH1 0xA0 SHL SUB DUP3 AND DUP3 SUB PUSH1 0x8B JUMPI JUMP INVALID PUSH1 0x80 DUP1 PUSH1 0x40 MSTORE PUSH1 0x4 CALLDATASIZE LT ISZERO PUSH2 0x13 JUMPI PUSH1 0x0 DUP1 REVERT JUMPDEST PUSH1 0x0 CALLDATALOAD PUSH1 0xE0 SHR SWAP1 DUP2 PUSH4 0x22068B44 EQ PUSH2 0x10E5 JUMPI POP DUP1 PUSH4 0x2CC3CE4D EQ PUSH2 0x108D JUMPI DUP1 PUSH4 0x3C9126EC EQ PUSH2 0xD5C JUMPI DUP1 PUSH4 0x3DCF2812 EQ PUSH2 0xCD4 JUMPI DUP1 PUSH4 0x455A4C3F EQ PUSH2 0xB38 JUMPI DUP1 PUSH4 0x4A054580 EQ PUSH2 0x8C0 JUMPI DUP1 PUSH4 0x4E526ABB EQ PUSH2 0x872 JUMPI DUP1 PUSH4 0x7EF8513A EQ PUSH2 0x800 JUMPI DUP1 PUSH4 0xA10BAB0B EQ PUSH2 0x7D7 JUMPI DUP1 PUSH4 0xB70A58F7 EQ PUSH2 0x60D JUMPI DUP1 PUSH4 0xCA32929B EQ PUSH2 0x1EC JUMPI DUP1 PUSH4 0xCAAA7009 EQ PUSH2 0x1C3 JUMPI DUP1 PUSH4 0xCFC0CC34 EQ PUSH2 0x13D JUMPI PUSH4 0xD574EA3D EQ PUSH2 0xB9 JUMPI PUSH1 0x0 DUP1 REVERT JUMPDEST CALLVALUE PUSH2 0x138 JUMPI PUSH1 0x20 CALLDATASIZE PUSH1 0x3 NOT ADD SLT PUSH2 0x138 JUMPI PUSH1 0x4 CALLDATALOAD PUSH1 0x0 MSTORE PUSH1 0x1 PUSH1 0x20 MSTORE PUSH1 0x40 PUSH1 0x0 KECCAK256 PUSH2 0xE3 DUP2 PUSH2 0x11DF JUMP JUMPDEST SWAP1 PUSH2 0x134 PUSH2 0xF3 PUSH1 0x1 DUP4 ADD PUSH2 0x11DF JUMP JUMPDEST SWAP2 PUSH1 0x2 DUP2 ADD SLOAD SWAP1 PUSH1 0x3 DUP2 ADD SLOAD PUSH1 0x1 DUP1 PUSH1 0xA0 SHL SUB PUSH1 0x4 DUP4 ADD SLOAD AND PUSH1 0x5 DUP4 ADD SLOAD SWAP2 PUSH1 0x7 PUSH1 0x6 DUP6 ADD SLOAD SWAP5 ADD SLOAD SWAP5 PUSH1 0x40 MLOAD SWAP9 DUP10 SWAP9 PUSH1 0xFF DUP1 DUP5 PUSH1 0x8 SHR AND SWAP4 AND SWAP2 DUP11 PUSH2 0x12C4 JUMP JUMPDEST SUB SWAP1 RETURN JUMPDEST PUSH1 0x0 DUP1 REVERT JUMPDEST CALLVALUE PUSH2 0x138 JUMPI PUSH1 0x20 CALLDATASIZE PUSH1 0x3 NOT ADD SLT PUSH2 0x138 JUMPI PUSH1 0x4 CALLDATALOAD PUSH2 0x15E PUSH1 0x2 SLOAD DUP3 LT PUSH2 0x1327 JUMP JUMPDEST PUSH1 0x0 MSTORE PUSH1 0x1 PUSH1 0x20 MSTORE PUSH1 0x40 PUSH1 0x0 KECCAK256 PUSH1 0x2 DUP2 ADD SLOAD PUSH2 0x134 PUSH1 0x3 DUP4 ADD SLOAD PUSH1 0x1 DUP1 PUSH1 0xA0 SHL SUB PUSH1 0x4 DUP6 ADD SLOAD AND PUSH1 0x5 DUP6 ADD SLOAD PUSH1 0x6 DUP7 ADD SLOAD SWAP2 PUSH1 0x7 DUP8 ADD SLOAD SWAP4 PUSH2 0x1AB PUSH1 0x1 PUSH2 0x1A4 DUP11 PUSH2 0x11DF JUMP JUMPDEST SWAP10 ADD PUSH2 0x11DF JUMP JUMPDEST SWAP7 PUSH1 0x40 MLOAD SWAP9 DUP10 SWAP9 PUSH1 0xFF DUP1 DUP5 PUSH1 0x8 SHR AND SWAP4 AND SWAP2 DUP11 PUSH2 0x12C4 JUMP JUMPDEST CALLVALUE PUSH2 0x138 JUMPI PUSH1 0x0 CALLDATASIZE PUSH1 0x3 NOT ADD SLT PUSH2 0x138 JUMPI PUSH1 0x4 SLOAD PUSH1 0x40 MLOAD PUSH1 0x1 PUSH1 0x1 PUSH1 0xA0 SHL SUB SWAP1 SWAP2 AND DUP2 MSTORE PUSH1 0x20 SWAP1 RETURN JUMPDEST CALLVALUE PUSH2 0x138 JUMPI PUSH1 0x60 CALLDATASIZE PUSH1 0x3 NOT ADD SLT PUSH2 0x138 JUMPI PUSH1 0x4 CALLDATALOAD PUSH8 0xFFFFFFFFFFFFFFFF DUP2 GT PUSH2 0x138 JUMPI PUSH2 0x21D SWAP1 CALLDATASIZE SWAP1 PUSH1 0x4 ADD PUSH2 0x113E JUMP JUMPDEST PUSH1 0x24 CALLDATALOAD PUSH8 0xFFFFFFFFFFFFFFFF DUP2 GT PUSH2 0x138 JUMPI PUSH2 0x23D SWAP1 CALLDATASIZE SWAP1 PUSH1 0x4 ADD PUSH2 0x113E JUMP JUMPDEST SWAP1 PUSH1 0xFF PUSH2 0x248 PUSH2 0x1195 JUMP JUMPDEST AND SWAP1 DUP2 ISZERO ISZERO DUP1 PUSH2 0x602 JUMPI JUMPDEST PUSH2 0x25C SWAP1 PUSH2 0x13BE JUMP JUMPDEST DUP1 MLOAD ISZERO PUSH2 0x5CD JUMPI PUSH1 0x2 SLOAD SWAP1 PUSH2 0x270 DUP3 PUSH2 0x13AF JUMP JUMPDEST PUSH1 0x2 SSTORE PUSH1 0x40 MLOAD SWAP1 PUSH2 0x120 DUP3 ADD DUP3 DUP2 LT PUSH8 0xFFFFFFFFFFFFFFFF DUP3 GT OR PUSH2 0x4F4 JUMPI PUSH1 0x40 MSTORE DUP2 MSTORE PUSH1 0x20 DUP2 ADD SWAP4 DUP5 MSTORE PUSH1 0x40 DUP2 ADD SWAP3 DUP4 MSTORE PUSH1 0x60 DUP2 ADD SWAP3 PUSH1 0x1 DUP5 MSTORE PUSH1 0x80 DUP3 ADD PUSH1 0x0 DUP2 MSTORE PUSH1 0xA0 DUP4 ADD CALLER DUP2 MSTORE PUSH1 0xC0 DUP5 ADD SWAP1 TIMESTAMP DUP3 MSTORE PUSH1 0xE0 DUP6 ADD SWAP3 TIMESTAMP DUP5 MSTORE PUSH2 0x100 DUP7 ADD SWAP5 PUSH1 0x0 DUP7 MSTORE DUP8 PUSH1 0x0 MSTORE PUSH1 0x1 PUSH1 0x20 MSTORE PUSH1 0x40 PUSH1 0x0 KECCAK256 SWAP7 MLOAD DUP1 MLOAD SWAP1 PUSH8 0xFFFFFFFFFFFFFFFF DUP3 GT PUSH2 0x4F4 JUMPI DUP2 SWAP1 PUSH2 0x302 DUP11 SLOAD PUSH2 0x11A5 JUMP JUMPDEST PUSH1 0x1F DUP2 GT PUSH2 0x57A JUMPI JUMPDEST POP PUSH1 0x20 SWAP1 PUSH1 0x1F DUP4 GT PUSH1 0x1 EQ PUSH2 0x515 JUMPI PUSH1 0x0 SWAP3 PUSH2 0x50A JUMPI JUMPDEST POP POP DUP2 PUSH1 0x1 SHL SWAP2 PUSH1 0x0 NOT SWAP1 PUSH1 0x3 SHL SHR NOT AND OR DUP8 SSTORE JUMPDEST PUSH1 0x1 DUP8 ADD SWAP10 MLOAD SWAP10 DUP11 MLOAD PUSH8 0xFFFFFFFFFFFFFFFF DUP2 GT PUSH2 0x4F4 JUMPI PUSH2 0x359 DUP3 SLOAD PUSH2 0x11A5 JUMP JUMPDEST SWAP12 PUSH1 0x1F DUP14 GT PUSH2 0x4AC JUMPI JUMPDEST PUSH1 0x20 SWAP13 POP DUP13 SWAP1 PUSH1 0x1F DUP4 GT PUSH1 0x1 EQ PUSH2 0x43B JUMPI SWAP2 DUP1 PUSH2 0x3C8 SWAP6 SWAP5 SWAP3 PUSH1 0x7 SWAP13 SWAP14 SWAP15 SWAP5 PUSH1 0x0 SWAP3 PUSH2 0x430 JUMPI JUMPDEST POP POP DUP2 PUSH1 0x1 SHL SWAP2 PUSH1 0x0 NOT SWAP1 PUSH1 0x3 SHL SHR NOT AND OR SWAP1 SSTORE JUMPDEST SWAP1 MLOAD PUSH1 0x2 DUP11 ADD DUP1 SLOAD SWAP3 MLOAD PUSH2 0xFF00 SWAP1 ISZERO ISZERO PUSH1 0x8 SHL AND PUSH1 0xFF SWAP1 SWAP3 AND PUSH2 0xFFFF NOT SWAP1 SWAP4 AND SWAP3 SWAP1 SWAP3 OR OR SWAP1 SSTORE JUMP JUMPDEST MLOAD PUSH1 0x3 DUP8 ADD SSTORE MLOAD PUSH1 0x4 DUP7 ADD DUP1 SLOAD PUSH1 0x1 PUSH1 0x1 PUSH1 0xA0 SHL SUB NOT AND PUSH1 0x1 PUSH1 0x1 PUSH1 0xA0 SHL SUB SWAP3 SWAP1 SWAP3 AND SWAP2 SWAP1 SWAP2 OR SWAP1 SSTORE MLOAD PUSH1 0x5 DUP6 ADD SSTORE MLOAD PUSH1 0x6 DUP5 ADD SSTORE MLOAD SWAP2 ADD SSTORE PUSH1 0x40 MLOAD SWAP1 CALLER DUP2 PUSH32 0x899FE949A0013A461F6497B6A40C0D8B01D554A7B67EF6AA1C730298BAF23D9F PUSH1 0x0 DUP1 LOG3 DUP2 MSTORE RETURN JUMPDEST ADD MLOAD SWAP1 POP DUP16 DUP1 PUSH2 0x38A JUMP JUMPDEST SWAP1 PUSH1 0x1F NOT DUP4 AND SWAP2 DUP5 PUSH1 0x0 MSTORE DUP2 PUSH1 0x0 KECCAK256 SWAP3 PUSH1 0x0 JUMPDEST DUP2 DUP2 LT PUSH2 0x494 JUMPI POP SWAP3 PUSH1 0x1 SWAP3 PUSH1 0x7 SWAP14 SWAP15 SWAP16 SWAP6 SWAP3 DUP4 PUSH2 0x3C8 SWAP10 SWAP9 SWAP7 LT PUSH2 0x47B JUMPI JUMPDEST POP POP POP DUP2 SHL ADD SWAP1 SSTORE PUSH2 0x39F JUMP JUMPDEST ADD MLOAD PUSH1 0x0 NOT PUSH1 0xF8 DUP5 PUSH1 0x3 SHL AND SHR NOT AND SWAP1 SSTORE DUP16 DUP1 DUP1 PUSH2 0x46E JUMP JUMPDEST SWAP3 SWAP4 PUSH1 0x20 PUSH1 0x1 DUP2 SWAP3 DUP8 DUP7 ADD MLOAD DUP2 SSTORE ADD SWAP6 ADD SWAP4 ADD PUSH2 0x44E JUMP JUMPDEST DUP3 PUSH1 0x0 MSTORE PUSH1 0x20 PUSH1 0x0 KECCAK256 PUSH1 0x1F DUP4 ADD PUSH1 0x5 SHR DUP2 ADD SWAP14 PUSH1 0x20 DUP5 LT PUSH2 0x4EA JUMPI JUMPDEST PUSH1 0x1F ADD PUSH1 0x5 SHR ADD SWAP13 JUMPDEST DUP14 DUP2 LT PUSH2 0x4DE JUMPI POP PUSH2 0x363 JUMP JUMPDEST PUSH1 0x0 DUP2 SSTORE PUSH1 0x1 ADD PUSH2 0x4D1 JUMP JUMPDEST SWAP1 SWAP14 POP DUP14 SWAP1 PUSH2 0x4C8 JUMP JUMPDEST PUSH4 0x4E487B71 PUSH1 0xE0 SHL PUSH1 0x0 MSTORE PUSH1 0x41 PUSH1 0x4 MSTORE PUSH1 0x24 PUSH1 0x0 REVERT JUMPDEST ADD MLOAD SWAP1 POP DUP13 DUP1 PUSH2 0x322 JUMP JUMPDEST PUSH1 0x0 DUP12 DUP2 MSTORE DUP3 DUP2 KECCAK256 SWAP4 POP PUSH1 0x1F NOT DUP6 AND SWAP1 JUMPDEST DUP2 DUP2 LT PUSH2 0x562 JUMPI POP SWAP1 DUP5 PUSH1 0x1 SWAP6 SWAP5 SWAP4 SWAP3 LT PUSH2 0x549 JUMPI JUMPDEST POP POP POP DUP2 SHL ADD DUP8 SSTORE PUSH2 0x337 JUMP JUMPDEST ADD MLOAD PUSH1 0x0 NOT PUSH1 0xF8 DUP5 PUSH1 0x3 SHL AND SHR NOT AND SWAP1 SSTORE DUP13 DUP1 DUP1 PUSH2 0x53C JUMP JUMPDEST SWAP3 SWAP4 PUSH1 0x20 PUSH1 0x1 DUP2 SWAP3 DUP8 DUP7 ADD MLOAD DUP2 SSTORE ADD SWAP6 ADD SWAP4 ADD PUSH2 0x526 JUMP JUMPDEST SWAP1 SWAP2 POP DUP10 PUSH1 0x0 MSTORE PUSH1 0x20 PUSH1 0x0 KECCAK256 PUSH1 0x1F DUP5 ADD PUSH1 0x5 SHR DUP2 ADD SWAP2 PUSH1 0x20 DUP6 LT PUSH2 0x5C3 JUMPI JUMPDEST SWAP1 PUSH1 0x1F DUP6 SWAP5 SWAP4 SWAP3 ADD PUSH1 0x5 SHR ADD SWAP1 JUMPDEST DUP2 DUP2 LT PUSH2 0x5B4 JUMPI POP PUSH2 0x30B JUMP JUMPDEST PUSH1 0x0 DUP2 SSTORE DUP5 SWAP4 POP PUSH1 0x1 ADD PUSH2 0x5A7 JUMP JUMPDEST SWAP1 SWAP2 POP DUP2 SWAP1 PUSH2 0x599 JUMP JUMPDEST PUSH1 0x40 MLOAD PUSH3 0x461BCD PUSH1 0xE5 SHL DUP2 MSTORE PUSH1 0x20 PUSH1 0x4 DUP3 ADD MSTORE PUSH1 0xD PUSH1 0x24 DUP3 ADD MSTORE PUSH13 0x13985B59481C995C5D5A5C9959 PUSH1 0x9A SHL PUSH1 0x44 DUP3 ADD MSTORE PUSH1 0x64 SWAP1 REVERT JUMPDEST POP PUSH1 0x5 DUP3 GT ISZERO PUSH2 0x253 JUMP JUMPDEST CALLVALUE PUSH2 0x138 JUMPI PUSH1 0x20 CALLDATASIZE PUSH1 0x3 NOT ADD SLT PUSH2 0x138 JUMPI PUSH1 0x4 CALLDATALOAD PUSH2 0x62E PUSH1 0x2 SLOAD DUP3 LT PUSH2 0x1327 JUMP JUMPDEST DUP1 PUSH1 0x0 MSTORE PUSH1 0x1 PUSH1 0x20 MSTORE PUSH1 0x7 PUSH1 0x40 PUSH1 0x0 KECCAK256 ADD SLOAD PUSH2 0x649 DUP2 PUSH2 0x13FF JUMP JUMPDEST SWAP2 PUSH2 0x657 PUSH1 0x40 MLOAD SWAP4 DUP5 PUSH2 0x111C JUMP JUMPDEST DUP2 DUP4 MSTORE PUSH1 0x1F NOT PUSH2 0x666 DUP4 PUSH2 0x13FF JUMP JUMPDEST ADD PUSH1 0x0 JUMPDEST DUP2 DUP2 LT PUSH2 0x79D JUMPI POP POP PUSH1 0x0 JUMPDEST DUP3 DUP2 LT PUSH2 0x71E JUMPI DUP4 PUSH1 0x40 MLOAD DUP1 SWAP2 PUSH1 0x20 DUP3 ADD PUSH1 0x20 DUP4 MSTORE DUP2 MLOAD DUP1 SWAP2 MSTORE PUSH1 0x40 DUP4 ADD SWAP1 PUSH1 0x20 PUSH1 0x40 DUP3 PUSH1 0x5 SHL DUP7 ADD ADD SWAP4 ADD SWAP2 PUSH1 0x0 SWAP1 JUMPDEST DUP3 DUP3 LT PUSH2 0x6B6 JUMPI POP POP POP POP SUB SWAP1 RETURN JUMPDEST SWAP2 SWAP4 PUSH1 0x1 SWAP2 SWAP4 SWAP6 POP PUSH1 0x20 DUP1 SWAP2 PUSH1 0x3F NOT DUP10 DUP3 SUB ADD DUP6 MSTORE DUP8 MLOAD SWAP1 PUSH1 0x80 DUP1 PUSH2 0x6E4 DUP5 MLOAD PUSH1 0xA0 DUP6 MSTORE PUSH1 0xA0 DUP6 ADD SWAP1 PUSH2 0x1283 JUMP JUMPDEST SWAP4 PUSH1 0xFF DUP7 DUP3 ADD MLOAD AND DUP7 DUP6 ADD MSTORE PUSH1 0xFF PUSH1 0x40 DUP3 ADD MLOAD AND PUSH1 0x40 DUP6 ADD MSTORE PUSH1 0x60 DUP2 ADD MLOAD PUSH1 0x60 DUP6 ADD MSTORE ADD MLOAD ISZERO ISZERO SWAP2 ADD MSTORE SWAP7 ADD SWAP3 ADD SWAP3 ADD DUP6 SWAP5 SWAP4 SWAP2 SWAP3 PUSH2 0x6A7 JUMP JUMPDEST PUSH1 0x1 SWAP1 DUP3 PUSH1 0x0 MSTORE PUSH1 0x0 PUSH1 0x20 MSTORE PUSH1 0x40 PUSH1 0x0 KECCAK256 DUP2 PUSH1 0x0 MSTORE PUSH1 0x20 MSTORE PUSH1 0x40 PUSH1 0x0 KECCAK256 PUSH1 0xFF PUSH1 0x3 PUSH1 0x40 MLOAD SWAP3 PUSH2 0x74C DUP5 PUSH2 0x1100 JUMP JUMPDEST PUSH2 0x755 DUP2 PUSH2 0x11DF JUMP JUMPDEST DUP5 MSTORE DUP3 DUP7 DUP3 ADD SLOAD DUP2 DUP2 AND PUSH1 0x20 DUP8 ADD MSTORE PUSH1 0x8 SHR AND PUSH1 0x40 DUP6 ADD MSTORE PUSH1 0x2 DUP2 ADD SLOAD PUSH1 0x60 DUP6 ADD MSTORE ADD SLOAD AND ISZERO ISZERO PUSH1 0x80 DUP3 ADD MSTORE PUSH2 0x78B DUP3 DUP8 PUSH2 0x1417 JUMP JUMPDEST MSTORE PUSH2 0x796 DUP2 DUP7 PUSH2 0x1417 JUMP JUMPDEST POP ADD PUSH2 0x676 JUMP JUMPDEST PUSH1 0x20 SWAP1 PUSH1 0x40 MLOAD PUSH2 0x7AC DUP2 PUSH2 0x1100 JUMP JUMPDEST PUSH1 0x60 DUP2 MSTORE PUSH1 0x0 DUP4 DUP3 ADD MSTORE PUSH1 0x0 PUSH1 0x40 DUP3 ADD MSTORE PUSH1 0x0 PUSH1 0x60 DUP3 ADD MSTORE PUSH1 0x0 PUSH1 0x80 DUP3 ADD MSTORE DUP3 DUP3 DUP9 ADD ADD MSTORE ADD PUSH2 0x66A JUMP JUMPDEST CALLVALUE PUSH2 0x138 JUMPI PUSH1 0x0 CALLDATASIZE PUSH1 0x3 NOT ADD SLT PUSH2 0x138 JUMPI PUSH1 0x5 SLOAD PUSH1 0x40 MLOAD PUSH1 0x1 PUSH1 0x1 PUSH1 0xA0 SHL SUB SWAP1 SWAP2 AND DUP2 MSTORE PUSH1 0x20 SWAP1 RETURN JUMPDEST CALLVALUE PUSH2 0x138 JUMPI PUSH1 0x20 CALLDATASIZE PUSH1 0x3 NOT ADD SLT PUSH2 0x138 JUMPI PUSH1 0x4 CALLDATALOAD PUSH1 0x1 PUSH1 0x1 PUSH1 0xA0 SHL SUB DUP2 AND SWAP1 DUP2 SWAP1 SUB PUSH2 0x138 JUMPI PUSH1 0x0 MSTORE PUSH1 0x3 PUSH1 0x20 MSTORE PUSH1 0xA0 PUSH1 0x40 PUSH1 0x0 KECCAK256 DUP1 SLOAD SWAP1 PUSH1 0x2 PUSH1 0x1 DUP3 ADD SLOAD SWAP2 ADD SLOAD SWAP1 PUSH1 0xFF PUSH1 0x40 MLOAD SWAP4 DUP2 DUP2 AND DUP6 MSTORE DUP2 DUP2 PUSH1 0x8 SHR AND ISZERO ISZERO PUSH1 0x20 DUP7 ADD MSTORE PUSH1 0x10 SHR AND ISZERO ISZERO PUSH1 0x40 DUP5 ADD MSTORE PUSH1 0x60 DUP4 ADD MSTORE PUSH1 0x80 DUP3 ADD MSTORE RETURN JUMPDEST CALLVALUE PUSH2 0x138 JUMPI PUSH1 0x20 CALLDATASIZE PUSH1 0x3 NOT ADD SLT PUSH2 0x138 JUMPI PUSH1 0x4 CALLDATALOAD PUSH1 0x0 MSTORE PUSH1 0x7 PUSH1 0x20 MSTORE PUSH1 0x80 PUSH1 0x40 PUSH1 0x0 KECCAK256 DUP1 SLOAD SWAP1 PUSH1 0x1 DUP2 ADD SLOAD SWAP1 PUSH1 0x3 PUSH1 0x2 DUP3 ADD SLOAD SWAP2 ADD SLOAD SWAP2 PUSH1 0x40 MLOAD SWAP4 DUP5 MSTORE PUSH1 0x20 DUP5 ADD MSTORE PUSH1 0x40 DUP4 ADD MSTORE PUSH1 0x60 DUP3 ADD MSTORE RETURN JUMPDEST CALLVALUE PUSH2 0x138 JUMPI PUSH1 0xC0 CALLDATASIZE PUSH1 0x3 NOT ADD SLT PUSH2 0x138 JUMPI PUSH1 0x24 CALLDATALOAD PUSH1 0x1 PUSH1 0x1 PUSH1 0xA0 SHL SUB DUP2 AND SWAP1 PUSH1 0x4 CALLDATALOAD SWAP1 DUP3 SWAP1 SUB PUSH2 0x138 JUMPI PUSH1 0x44 CALLDATALOAD PUSH1 0x1 PUSH1 0x1 PUSH1 0xA0 SHL SUB DUP2 AND SWAP3 SWAP1 DUP4 SWAP1 SUB PUSH2 0x138 JUMPI PUSH1 0x64 CALLDATALOAD SWAP1 PUSH1 0xA4 CALLDATALOAD SWAP4 PUSH1 0xFF DUP6 AND DUP1 SWAP6 SUB PUSH2 0x138 JUMPI PUSH2 0x920 PUSH1 0x2 SLOAD DUP6 LT PUSH2 0x1327 JUMP JUMPDEST DUP4 PUSH1 0x0 MSTORE PUSH1 0x1 PUSH1 0x20 MSTORE PUSH1 0x40 PUSH1 0x0 KECCAK256 PUSH2 0x945 PUSH1 0x1 DUP1 PUSH1 0xA0 SHL SUB PUSH1 0x4 DUP4 ADD SLOAD AND CALLER EQ PUSH2 0x136C JUMP JUMPDEST CALLER PUSH1 0x0 MSTORE PUSH1 0x3 PUSH1 0x20 MSTORE PUSH1 0xFF PUSH1 0x2 PUSH1 0x40 PUSH1 0x0 KECCAK256 SWAP3 ADD SLOAD AND PUSH1 0xFF DUP3 SLOAD AND LT PUSH2 0xB03 JUMPI PUSH1 0x1 ADD SLOAD DUP6 LT PUSH2 0xACA JUMPI PUSH1 0xA4 PUSH1 0x20 SWAP3 PUSH1 0x0 PUSH1 0x1 DUP1 PUSH1 0xA0 SHL SUB PUSH1 0x4 SLOAD AND PUSH1 0x40 MLOAD SWAP9 DUP10 SWAP6 DUP7 SWAP5 PUSH4 0x25F4FECB PUSH1 0xE2 SHL DUP7 MSTORE PUSH1 0x4 DUP7 ADD MSTORE PUSH1 0x24 DUP6 ADD MSTORE DUP8 PUSH1 0x44 DUP6 ADD MSTORE PUSH1 0x84 CALLDATALOAD PUSH1 0x64 DUP6 ADD MSTORE PUSH1 0x84 DUP5 ADD MSTORE GAS CALL SWAP3 DUP4 ISZERO PUSH2 0xABE JUMPI PUSH1 0x0 SWAP4 PUSH2 0xA87 JUMPI JUMPDEST POP DUP2 PUSH1 0x0 MSTORE PUSH1 0x6 PUSH1 0x20 MSTORE PUSH1 0x40 PUSH1 0x0 KECCAK256 SWAP3 PUSH2 0x9DB DUP5 SLOAD PUSH2 0x13AF JUMP JUMPDEST SWAP2 DUP3 DUP6 SSTORE DUP1 DUP3 GT PUSH2 0xA1A JUMPI JUMPDEST POP POP PUSH2 0x9F7 SWAP1 PUSH1 0x2 DUP5 ADD SLOAD PUSH2 0x1441 JUMP JUMPDEST SWAP2 DUP3 PUSH1 0x3 DUP3 ADD SSTORE PUSH1 0x4 TIMESTAMP SWAP2 ADD SSTORE PUSH1 0x0 MSTORE PUSH1 0x1 PUSH1 0x20 MSTORE PUSH1 0x3 PUSH1 0x40 PUSH1 0x0 KECCAK256 ADD SSTORE PUSH1 0x0 DUP1 RETURN JUMPDEST PUSH1 0x1 DUP6 ADD PUSH2 0xA28 DUP2 SLOAD PUSH2 0x13AF JUMP JUMPDEST SWAP1 SSTORE DUP1 DUP3 SUB SWAP2 DUP1 DUP4 GT PUSH2 0xA71 JUMPI DUP2 PUSH2 0x2710 DUP5 MUL SWAP4 DUP5 DIV PUSH2 0x2710 EQ SWAP2 EQ OR ISZERO PUSH2 0xA71 JUMPI PUSH2 0xA53 SWAP2 PUSH2 0x1441 JUMP JUMPDEST SWAP1 PUSH1 0x2 DUP5 ADD SWAP2 DUP3 SLOAD SWAP1 DUP2 ADD DUP1 SWAP2 GT PUSH2 0xA71 JUMPI PUSH2 0x9F7 SWAP3 SSTORE SWAP1 DUP5 PUSH2 0x9E7 JUMP JUMPDEST PUSH4 0x4E487B71 PUSH1 0xE0 SHL PUSH1 0x0 MSTORE PUSH1 0x11 PUSH1 0x4 MSTORE PUSH1 0x24 PUSH1 0x0 REVERT JUMPDEST SWAP1 SWAP3 PUSH1 0x20 DUP3 RETURNDATASIZE PUSH1 0x20 GT PUSH2 0xAB6 JUMPI JUMPDEST DUP2 PUSH2 0xAA2 PUSH1 0x20 SWAP4 DUP4 PUSH2 0x111C JUMP JUMPDEST DUP2 ADD SUB SLT PUSH2 0xAB3 JUMPI POP MLOAD SWAP2 DUP4 PUSH2 0x9C1 JUMP JUMPDEST DUP1 REVERT JUMPDEST RETURNDATASIZE SWAP2 POP PUSH2 0xA95 JUMP JUMPDEST PUSH1 0x40 MLOAD RETURNDATASIZE PUSH1 0x0 DUP3 RETURNDATACOPY RETURNDATASIZE SWAP1 REVERT JUMPDEST PUSH1 0x40 MLOAD PUSH3 0x461BCD PUSH1 0xE5 SHL DUP2 MSTORE PUSH1 0x20 PUSH1 0x4 DUP3 ADD MSTORE PUSH1 0x11 PUSH1 0x24 DUP3 ADD MSTORE PUSH17 0x53656E74696D656E7420746F6F206C6F77 PUSH1 0x78 SHL PUSH1 0x44 DUP3 ADD MSTORE PUSH1 0x64 SWAP1 REVERT JUMPDEST PUSH1 0x40 MLOAD PUSH3 0x461BCD PUSH1 0xE5 SHL DUP2 MSTORE PUSH1 0x20 PUSH1 0x4 DUP3 ADD MSTORE PUSH1 0xD PUSH1 0x24 DUP3 ADD MSTORE PUSH13 0xA4D2E6D640E8DEDE40D0D2CED PUSH1 0x9B SHL PUSH1 0x44 DUP3 ADD MSTORE PUSH1 0x64 SWAP1 REVERT JUMPDEST CALLVALUE PUSH2 0x138 JUMPI PUSH1 0xA0 CALLDATASIZE PUSH1 0x3 NOT ADD SLT PUSH2 0x138 JUMPI PUSH1 0x4 CALLDATALOAD PUSH1 0xFF DUP2 AND DUP1 SWAP2 SUB PUSH2 0x138 JUMPI PUSH1 0x24 CALLDATALOAD DUP1 ISZERO ISZERO DUP1 SWAP2 SUB PUSH2 0x138 JUMPI PUSH1 0x44 CALLDATALOAD DUP1 ISZERO ISZERO DUP1 SWAP2 SUB PUSH2 0x138 JUMPI PUSH1 0x64 CALLDATALOAD PUSH1 0x84 CALLDATALOAD SWAP2 DUP5 ISZERO ISZERO DUP1 PUSH2 0xCC9 JUMPI JUMPDEST PUSH2 0xB8A SWAP1 PUSH2 0x13BE JUMP JUMPDEST PUSH1 0x64 DUP3 GT PUSH2 0xC84 JUMPI PUSH2 0x3E8 DUP4 GT PUSH2 0xC47 JUMPI PUSH2 0xBFE PUSH1 0x2 SWAP5 PUSH1 0x40 MLOAD SWAP7 PUSH2 0xBAE DUP9 PUSH2 0x1100 JUMP JUMPDEST DUP8 MSTORE PUSH1 0x20 DUP1 DUP9 ADD SWAP2 DUP3 MSTORE PUSH1 0x40 DUP1 DUP10 ADD SWAP5 DUP6 MSTORE PUSH1 0x60 DUP10 ADD SWAP6 DUP7 MSTORE PUSH1 0x80 DUP10 ADD SWAP7 DUP8 MSTORE CALLER PUSH1 0x0 SWAP1 DUP2 MSTORE PUSH1 0x3 SWAP1 SWAP3 MSTORE SWAP1 KECCAK256 SWAP7 MLOAD DUP8 SLOAD SWAP2 MLOAD PUSH2 0xFFFF NOT SWAP1 SWAP3 AND PUSH1 0xFF SWAP2 SWAP1 SWAP2 AND OR SWAP1 ISZERO ISZERO PUSH1 0x8 SHL PUSH2 0xFF00 AND OR DUP7 SSTORE JUMP JUMPDEST MLOAD DUP5 SLOAD PUSH3 0xFF0000 NOT AND SWAP1 ISZERO ISZERO PUSH1 0x10 SHL PUSH3 0xFF0000 AND OR DUP5 SSTORE MLOAD PUSH1 0x1 DUP5 ADD SSTORE MLOAD SWAP2 ADD SSTORE CALLER PUSH32 0x757E3917B98948432F4A75B39769C28F626030915D88FFB09B2D52FC6420122B PUSH1 0x0 DUP1 LOG2 STOP JUMPDEST PUSH1 0x40 MLOAD PUSH3 0x461BCD PUSH1 0xE5 SHL DUP2 MSTORE PUSH1 0x20 PUSH1 0x4 DUP3 ADD MSTORE PUSH1 0x15 PUSH1 0x24 DUP3 ADD MSTORE PUSH21 0x9AC2F040E6D8D2E0E0C2CECA40E8DEDE40D0D2CED PUSH1 0x5B SHL PUSH1 0x44 DUP3 ADD MSTORE PUSH1 0x64 SWAP1 REVERT JUMPDEST PUSH1 0x40 MLOAD PUSH3 0x461BCD PUSH1 0xE5 SHL DUP2 MSTORE PUSH1 0x20 PUSH1 0x4 DUP3 ADD MSTORE PUSH1 0x1B PUSH1 0x24 DUP3 ADD MSTORE PUSH32 0x496E76616C69642073656E74696D656E74207468726573686F6C640000000000 PUSH1 0x44 DUP3 ADD MSTORE PUSH1 0x64 SWAP1 REVERT JUMPDEST POP PUSH1 0x5 DUP6 GT ISZERO PUSH2 0xB81 JUMP JUMPDEST CALLVALUE PUSH2 0x138 JUMPI PUSH1 0x40 CALLDATASIZE PUSH1 0x3 NOT ADD SLT PUSH2 0x138 JUMPI PUSH1 0x4 CALLDATALOAD PUSH1 0x0 MSTORE PUSH1 0x0 PUSH1 0x20 MSTORE PUSH1 0x40 PUSH1 0x0 KECCAK256 PUSH1 0x24 CALLDATALOAD PUSH1 0x0 MSTORE PUSH1 0x20 MSTORE PUSH2 0xD3A PUSH1 0x40 PUSH1 0x0 KECCAK256 PUSH2 0xD0F DUP2 PUSH2 0x11DF JUMP JUMPDEST SWAP1 PUSH1 0x1 DUP2 ADD SLOAD SWAP1 PUSH1 0xFF PUSH1 0x3 PUSH1 0x2 DUP4 ADD SLOAD SWAP3 ADD SLOAD AND SWAP1 PUSH1 0xFF PUSH1 0x40 MLOAD SWAP6 DUP7 SWAP6 PUSH1 0xA0 DUP8 MSTORE PUSH1 0xA0 DUP8 ADD SWAP1 PUSH2 0x1283 JUMP JUMPDEST SWAP4 DUP2 DUP2 AND PUSH1 0x20 DUP8 ADD MSTORE PUSH1 0x8 SHR AND PUSH1 0x40 DUP6 ADD MSTORE PUSH1 0x60 DUP5 ADD MSTORE ISZERO ISZERO PUSH1 0x80 DUP4 ADD MSTORE SUB SWAP1 RETURN JUMPDEST CALLVALUE PUSH2 0x138 JUMPI PUSH1 0x80 CALLDATASIZE PUSH1 0x3 NOT ADD SLT PUSH2 0x138 JUMPI PUSH1 0x4 CALLDATALOAD PUSH1 0x24 CALLDATALOAD PUSH8 0xFFFFFFFFFFFFFFFF DUP2 GT PUSH2 0x138 JUMPI PUSH2 0xD90 SWAP1 CALLDATASIZE SWAP1 PUSH1 0x4 ADD PUSH2 0x113E JUMP JUMPDEST PUSH2 0xD98 PUSH2 0x1195 JUMP JUMPDEST PUSH1 0x64 CALLDATALOAD SWAP1 PUSH1 0xFF DUP3 AND DUP1 SWAP3 SUB PUSH2 0x138 JUMPI PUSH1 0xFF SWAP1 PUSH2 0xDB7 PUSH1 0x2 SLOAD DUP7 LT PUSH2 0x1327 JUMP JUMPDEST AND SWAP1 PUSH1 0x64 DUP3 GT PUSH2 0x1054 JUMPI DUP1 ISZERO ISZERO DUP1 PUSH2 0x1049 JUMPI JUMPDEST ISZERO PUSH2 0x1011 JUMPI DUP4 PUSH1 0x0 MSTORE PUSH1 0x1 PUSH1 0x20 MSTORE PUSH1 0x40 PUSH1 0x0 KECCAK256 SWAP2 PUSH2 0xDF5 PUSH1 0x1 DUP1 PUSH1 0xA0 SHL SUB PUSH1 0x4 DUP6 ADD SLOAD AND CALLER EQ PUSH2 0x136C JUMP JUMPDEST PUSH1 0x40 MLOAD SWAP1 PUSH2 0xE02 DUP3 PUSH2 0x1100 JUMP JUMPDEST DUP5 DUP3 MSTORE PUSH1 0x20 DUP3 ADD SWAP1 DUP2 MSTORE PUSH1 0x40 DUP3 ADD SWAP3 DUP4 MSTORE PUSH1 0x60 DUP3 ADD SWAP1 TIMESTAMP DUP3 MSTORE PUSH1 0x80 DUP4 ADD SWAP4 PUSH1 0x1 DUP6 MSTORE DUP8 PUSH1 0x0 MSTORE PUSH1 0x0 PUSH1 0x20 MSTORE PUSH1 0x7 PUSH1 0x40 PUSH1 0x0 KECCAK256 SWAP7 ADD SWAP6 DUP7 SLOAD PUSH1 0x0 MSTORE PUSH1 0x20 MSTORE PUSH1 0x40 PUSH1 0x0 KECCAK256 SWAP4 MLOAD DUP1 MLOAD SWAP1 PUSH8 0xFFFFFFFFFFFFFFFF DUP3 GT PUSH2 0x4F4 JUMPI PUSH2 0xE62 DUP7 SLOAD PUSH2 0x11A5 JUMP JUMPDEST PUSH1 0x1F DUP2 GT PUSH2 0xFC9 JUMPI JUMPDEST POP PUSH1 0x20 SWAP1 PUSH1 0x1F DUP4 GT PUSH1 0x1 EQ PUSH2 0xF36 JUMPI SWAP3 DUP3 PUSH32 0x2D221B5D868F1E666EF5E1ED98E34E8EBA3FD6E4BAE4F018D2FB337BD4CBB40 SWAP11 SWAP9 SWAP7 SWAP4 PUSH1 0x3 SWAP7 SWAP4 PUSH2 0xF26 SWAP12 SWAP10 SWAP7 PUSH1 0x0 SWAP3 PUSH2 0xF2B JUMPI JUMPDEST POP POP DUP2 PUSH1 0x1 SHL SWAP2 PUSH1 0x0 NOT SWAP1 DUP9 SHL SHR NOT AND OR DUP5 SSTORE JUMPDEST PUSH1 0xFF DUP1 PUSH1 0x1 DUP7 ADD SWAP4 MLOAD AND AND PUSH1 0xFF NOT DUP4 SLOAD AND OR DUP3 SSTORE MLOAD PUSH2 0xFF00 DUP3 SLOAD SWAP2 PUSH1 0x8 SHL AND SWAP1 PUSH2 0xFF00 NOT AND OR SWAP1 SSTORE MLOAD PUSH1 0x2 DUP3 ADD SSTORE ADD SWAP1 MLOAD ISZERO ISZERO PUSH1 0xFF DUP1 NOT DUP4 SLOAD AND SWAP2 AND OR SWAP1 SSTORE PUSH2 0xF10 DUP2 SLOAD PUSH2 0x13AF JUMP JUMPDEST SWAP1 SSTORE PUSH1 0x40 MLOAD SWAP2 DUP3 SWAP2 PUSH1 0x20 DUP4 MSTORE PUSH1 0x20 DUP4 ADD SWAP1 PUSH2 0x1283 JUMP JUMPDEST SUB SWAP1 LOG2 STOP JUMPDEST ADD MLOAD SWAP1 POP DUP14 DUP1 PUSH2 0xEB3 JUMP JUMPDEST SWAP1 PUSH1 0x1F NOT DUP4 AND SWAP2 DUP8 PUSH1 0x0 MSTORE DUP2 PUSH1 0x0 KECCAK256 SWAP3 PUSH1 0x0 JUMPDEST DUP2 DUP2 LT PUSH2 0xFB1 JUMPI POP SWAP4 PUSH1 0x3 SWAP7 SWAP4 PUSH2 0xF26 SWAP12 SWAP10 SWAP7 SWAP4 PUSH1 0x1 SWAP4 DUP4 PUSH32 0x2D221B5D868F1E666EF5E1ED98E34E8EBA3FD6E4BAE4F018D2FB337BD4CBB40 SWAP16 SWAP14 SWAP12 SWAP9 LT PUSH2 0xF99 JUMPI JUMPDEST POP POP POP DUP2 SHL ADD DUP5 SSTORE PUSH2 0xEC7 JUMP JUMPDEST ADD MLOAD PUSH1 0x0 NOT DUP4 DUP11 SHL PUSH1 0xF8 AND SHR NOT AND SWAP1 SSTORE DUP14 DUP1 DUP1 PUSH2 0xF8C JUMP JUMPDEST SWAP3 SWAP4 PUSH1 0x20 PUSH1 0x1 DUP2 SWAP3 DUP8 DUP7 ADD MLOAD DUP2 SSTORE ADD SWAP6 ADD SWAP4 ADD PUSH2 0xF49 JUMP JUMPDEST DUP7 PUSH1 0x0 MSTORE PUSH1 0x20 PUSH1 0x0 KECCAK256 PUSH1 0x1F DUP5 ADD PUSH1 0x5 SHR DUP2 ADD SWAP2 PUSH1 0x20 DUP6 LT PUSH2 0x1007 JUMPI JUMPDEST PUSH1 0x1F ADD PUSH1 0x5 SHR ADD SWAP1 JUMPDEST DUP2 DUP2 LT PUSH2 0xFFB JUMPI POP PUSH2 0xE6B JUMP JUMPDEST PUSH1 0x0 DUP2 SSTORE PUSH1 0x1 ADD PUSH2 0xFEE JUMP JUMPDEST SWAP1 SWAP2 POP DUP2 SWAP1 PUSH2 0xFE5 JUMP JUMPDEST PUSH1 0x40 MLOAD PUSH3 0x461BCD PUSH1 0xE5 SHL DUP2 MSTORE PUSH1 0x20 PUSH1 0x4 DUP3 ADD MSTORE PUSH1 0x10 PUSH1 0x24 DUP3 ADD MSTORE PUSH16 0x92DCECC2D8D2C840E6E8E4CADCCEE8D PUSH1 0x83 SHL PUSH1 0x44 DUP3 ADD MSTORE PUSH1 0x64 SWAP1 REVERT JUMPDEST POP PUSH1 0x5 DUP2 GT ISZERO PUSH2 0xDCA JUMP JUMPDEST PUSH1 0x40 MLOAD PUSH3 0x461BCD PUSH1 0xE5 SHL DUP2 MSTORE PUSH1 0x20 PUSH1 0x4 DUP3 ADD MSTORE PUSH1 0x11 PUSH1 0x24 DUP3 ADD MSTORE PUSH17 0x125B9D985B1A59081CD95B9D1A5B595B9D PUSH1 0x7A SHL PUSH1 0x44 DUP3 ADD MSTORE PUSH1 0x64 SWAP1 REVERT JUMPDEST CALLVALUE PUSH2 0x138 JUMPI PUSH1 0x20 CALLDATASIZE PUSH1 0x3 NOT ADD SLT PUSH2 0x138 JUMPI PUSH1 0x4 CALLDATALOAD PUSH1 0x0 MSTORE PUSH1 0x6 PUSH1 0x20 MSTORE PUSH1 0xA0 PUSH1 0x40 PUSH1 0x0 KECCAK256 DUP1 SLOAD SWAP1 PUSH1 0x1 DUP2 ADD SLOAD SWAP1 PUSH1 0x2 DUP2 ADD SLOAD PUSH1 0x4 PUSH1 0x3 DUP4 ADD SLOAD SWAP3 ADD SLOAD SWAP3 PUSH1 0x40 MLOAD SWAP5 DUP6 MSTORE PUSH1 0x20 DUP6 ADD MSTORE PUSH1 0x40 DUP5 ADD MSTORE PUSH1 0x60 DUP4 ADD MSTORE PUSH1 0x80 DUP3 ADD MSTORE RETURN JUMPDEST CALLVALUE PUSH2 0x138 JUMPI PUSH1 0x0 CALLDATASIZE PUSH1 0x3 NOT ADD SLT PUSH2 0x138 JUMPI PUSH1 0x20 SWAP1 PUSH1 0x2 SLOAD DUP2 MSTORE RETURN JUMPDEST PUSH1 0xA0 DUP2 ADD SWAP1 DUP2 LT PUSH8 0xFFFFFFFFFFFFFFFF DUP3 GT OR PUSH2 0x4F4 JUMPI PUSH1 0x40 MSTORE JUMP JUMPDEST SWAP1 PUSH1 0x1F DUP1 NOT SWAP2 ADD AND DUP2 ADD SWAP1 DUP2 LT PUSH8 0xFFFFFFFFFFFFFFFF DUP3 GT OR PUSH2 0x4F4 JUMPI PUSH1 0x40 MSTORE JUMP JUMPDEST DUP2 PUSH1 0x1F DUP3 ADD SLT ISZERO PUSH2 0x138 JUMPI DUP1 CALLDATALOAD SWAP1 PUSH8 0xFFFFFFFFFFFFFFFF DUP3 GT PUSH2 0x4F4 JUMPI PUSH1 0x40 MLOAD SWAP3 PUSH2 0x1173 PUSH1 0x1F DUP5 ADD PUSH1 0x1F NOT AND PUSH1 0x20 ADD DUP6 PUSH2 0x111C JUMP JUMPDEST DUP3 DUP5 MSTORE PUSH1 0x20 DUP4 DUP4 ADD ADD GT PUSH2 0x138 JUMPI DUP2 PUSH1 0x0 SWAP3 PUSH1 0x20 DUP1 SWAP4 ADD DUP4 DUP7 ADD CALLDATACOPY DUP4 ADD ADD MSTORE SWAP1 JUMP JUMPDEST PUSH1 0x44 CALLDATALOAD SWAP1 PUSH1 0xFF DUP3 AND DUP3 SUB PUSH2 0x138 JUMPI JUMP JUMPDEST SWAP1 PUSH1 0x1 DUP3 DUP2 SHR SWAP3 AND DUP1 ISZERO PUSH2 0x11D5 JUMPI JUMPDEST PUSH1 0x20 DUP4 LT EQ PUSH2 0x11BF JUMPI JUMP JUMPDEST PUSH4 0x4E487B71 PUSH1 0xE0 SHL PUSH1 0x0 MSTORE PUSH1 0x22 PUSH1 0x4 MSTORE PUSH1 0x24 PUSH1 0x0 REVERT JUMPDEST SWAP2 PUSH1 0x7F AND SWAP2 PUSH2 0x11B4 JUMP JUMPDEST SWAP1 PUSH1 0x40 MLOAD SWAP2 DUP3 PUSH1 0x0 DUP3 SLOAD SWAP3 PUSH2 0x11F3 DUP5 PUSH2 0x11A5 JUMP JUMPDEST DUP1 DUP5 MSTORE SWAP4 PUSH1 0x1 DUP2 AND SWAP1 DUP2 ISZERO PUSH2 0x1261 JUMPI POP PUSH1 0x1 EQ PUSH2 0x121A JUMPI JUMPDEST POP PUSH2 0x1218 SWAP3 POP SUB DUP4 PUSH2 0x111C JUMP JUMPDEST JUMP JUMPDEST SWAP1 POP PUSH1 0x0 SWAP3 SWAP2 SWAP3 MSTORE PUSH1 0x20 PUSH1 0x0 KECCAK256 SWAP1 PUSH1 0x0 SWAP2 JUMPDEST DUP2 DUP4 LT PUSH2 0x1245 JUMPI POP POP SWAP1 PUSH1 0x20 PUSH2 0x1218 SWAP3 DUP3 ADD ADD CODESIZE PUSH2 0x120B JUMP JUMPDEST PUSH1 0x20 SWAP2 SWAP4 POP DUP1 PUSH1 0x1 SWAP2 SLOAD DUP4 DUP6 DUP10 ADD ADD MSTORE ADD SWAP2 ADD SWAP1 SWAP2 DUP5 SWAP3 PUSH2 0x122C JUMP JUMPDEST SWAP1 POP PUSH1 0x20 SWAP3 POP PUSH2 0x1218 SWAP5 SWAP2 POP PUSH1 0xFF NOT AND DUP3 DUP5 ADD MSTORE ISZERO ISZERO PUSH1 0x5 SHL DUP3 ADD ADD CODESIZE PUSH2 0x120B JUMP JUMPDEST SWAP2 SWAP1 DUP3 MLOAD SWAP3 DUP4 DUP3 MSTORE PUSH1 0x0 JUMPDEST DUP5 DUP2 LT PUSH2 0x12AF JUMPI POP POP DUP3 PUSH1 0x0 PUSH1 0x20 DUP1 SWAP5 SWAP6 DUP5 ADD ADD MSTORE PUSH1 0x1F DUP1 NOT SWAP2 ADD AND ADD ADD SWAP1 JUMP JUMPDEST DUP1 PUSH1 0x20 DUP1 SWAP3 DUP5 ADD ADD MLOAD DUP3 DUP3 DUP7 ADD ADD MSTORE ADD PUSH2 0x128E JUMP JUMPDEST SWAP6 SWAP3 SWAP10 SWAP9 SWAP8 SWAP5 SWAP2 PUSH2 0x12F8 PUSH1 0xFF SWAP2 PUSH2 0x12EA PUSH2 0x100 SWAP11 SWAP8 SWAP5 PUSH2 0x120 DUP12 MSTORE PUSH2 0x120 DUP12 ADD SWAP1 PUSH2 0x1283 JUMP JUMPDEST SWAP1 DUP10 DUP3 SUB PUSH1 0x20 DUP12 ADD MSTORE PUSH2 0x1283 JUMP JUMPDEST SWAP11 AND PUSH1 0x40 DUP8 ADD MSTORE ISZERO ISZERO PUSH1 0x60 DUP7 ADD MSTORE PUSH1 0x80 DUP6 ADD MSTORE PUSH1 0x1 PUSH1 0x1 PUSH1 0xA0 SHL SUB AND PUSH1 0xA0 DUP5 ADD MSTORE PUSH1 0xC0 DUP4 ADD MSTORE PUSH1 0xE0 DUP3 ADD MSTORE ADD MSTORE JUMP JUMPDEST ISZERO PUSH2 0x132E JUMPI JUMP JUMPDEST PUSH1 0x40 MLOAD PUSH3 0x461BCD PUSH1 0xE5 SHL DUP2 MSTORE PUSH1 0x20 PUSH1 0x4 DUP3 ADD MSTORE PUSH1 0x16 PUSH1 0x24 DUP3 ADD MSTORE PUSH22 0x14DD1C985D1959DE48191BD95CDB89DD08195E1A5CDD PUSH1 0x52 SHL PUSH1 0x44 DUP3 ADD MSTORE PUSH1 0x64 SWAP1 REVERT JUMPDEST ISZERO PUSH2 0x1373 JUMPI JUMP JUMPDEST PUSH1 0x40 MLOAD PUSH3 0x461BCD PUSH1 0xE5 SHL DUP2 MSTORE PUSH1 0x20 PUSH1 0x4 DUP3 ADD MSTORE PUSH1 0x14 PUSH1 0x24 DUP3 ADD MSTORE PUSH20 0x2737BA1039BA3930BA32B3BC9031B932B0BA37B9 PUSH1 0x61 SHL PUSH1 0x44 DUP3 ADD MSTORE PUSH1 0x64 SWAP1 REVERT JUMPDEST PUSH1 0x0 NOT DUP2 EQ PUSH2 0xA71 JUMPI PUSH1 0x1 ADD SWAP1 JUMP JUMPDEST ISZERO PUSH2 0x13C5 JUMPI JUMP JUMPDEST PUSH1 0x40 MLOAD PUSH3 0x461BCD PUSH1 0xE5 SHL DUP2 MSTORE PUSH1 0x20 PUSH1 0x4 DUP3 ADD MSTORE PUSH1 0x12 PUSH1 0x24 DUP3 ADD MSTORE PUSH18 0x125B9D985B1A59081C9A5CDAC81B195D995B PUSH1 0x72 SHL PUSH1 0x44 DUP3 ADD MSTORE PUSH1 0x64 SWAP1 REVERT JUMPDEST PUSH8 0xFFFFFFFFFFFFFFFF DUP2 GT PUSH2 0x4F4 JUMPI PUSH1 0x5 SHL PUSH1 0x20 ADD SWAP1 JUMP JUMPDEST DUP1 MLOAD DUP3 LT ISZERO PUSH2 0x142B JUMPI PUSH1 0x20 SWAP2 PUSH1 0x5 SHL ADD ADD SWAP1 JUMP JUMPDEST PUSH4 0x4E487B71 PUSH1 0xE0 SHL PUSH1 0x0 MSTORE PUSH1 0x32 PUSH1 0x4 MSTORE PUSH1 0x24 PUSH1 0x0 REVERT JUMPDEST DUP2 ISZERO PUSH2 0x144B JUMPI DIV SWAP1 JUMP JUMPDEST PUSH4 0x4E487B71 PUSH1 0xE0 SHL PUSH1 0x0 MSTORE PUSH1 0x12 PUSH1 0x4 MSTORE PUSH1 0x24 PUSH1 0x0 REVERT INVALID LOG2 PUSH5 0x6970667358 0x22 SLT KECCAK256 DUP5 PUSH16 0xFE93B0D5F61CCD5C6841398F032091AC PUSH8 0x72E3E56924713F06 ADD CALL 0x2D SWAP1 0xAB PUSH5 0x736F6C6343 STOP ADDMOD SHR STOP CALLER "
        },
        "methodIdentifiers": {
          "addSignal(uint256,string,uint8,uint8)": "3c9126ec",
          "bridgeExecutor()": "a10bab0b",
          "createStrategy(string,string,uint8)": "ca32929b",
          "executeStrategyTrade(uint256,address,address,uint256,uint256,uint8)": "4a054580",
          "getSignals(uint256)": "b70a58f7",
          "getStrategy(uint256)": "cfc0cc34",
          "strategies(uint256)": "d574ea3d",
          "strategyCount()": "22068b44",
          "strategyPerformance(uint256)": "2cc3ce4d",
          "strategyRisk(uint256)": "4e526abb",
          "strategySignals(uint256,uint256)": "3dcf2812",
          "tradingExecutor()": "caaa7009",
          "updateSettings(uint8,bool,bool,uint256,uint256)": "455a4c3f",
          "userSettings(address)": "7ef8513a"
        }
      }
    }
  }
}