{
  "_format": "hh-sol-artifact-1",
  "contractName": "TradingExecutor",
  "sourceName": "contracts/TradingExecutor.sol",
  "abi": [
    {
      "inputs": [
        {
          "internalType": "address",
          "name": "_sonicRouter",
          "type": "address"
        }
      ],
      "stateMutability": "nonpayable",
      "type": "constructor"
    },
    {
      "anonymous": false,
      "inputs": [
        {
          "indexed": true,
          "internalType": "address",
          "name": "strategy",
          "type": "address"
        },
        {
          "indexed": false,
          "internalType": "bool",
          "name": "authorized",
          "type": "bool"
        }
      ],
      "name": "AuthorizationSet",
      "type": "event"
    },
    {
      "anonymous": false,
      "inputs": [
        {
          "indexed": true,
          "internalType": "address",
          "name": "tokenA",
          "type": "address"
        },
        {
          "indexed": true,
          "internalType": "address",
          "name": "tokenB",
          "type": "address"
        },
        {
          "indexed": false,
          "internalType": "uint256",
          "name": "amountA",
          "type": "uint256"
        },
        {
          "indexed": false,
          "internalType": "uint256",
          "name": "amountB",
          "type": "uint256"
        }
      ],
      "name": "LiquidityAdded",
      "type": "event"
    },
    {
      "anonymous": false,
      "inputs": [
        {
          "indexed": true,
          "internalType": "address",
          "name": "token",
          "type": "address"
        },
        {
          "indexed": false,
          "internalType": "uint256",
          "name": "amount",
          "type": "uint256"
        },
        {
          "indexed": false,
          "internalType": "bool",
          "name": "isBuy",
          "type": "bool"
        },
        {
          "indexed": false,
          "internalType": "uint256",
          "name": "price",
          "type": "uint256"
        }
      ],
      "name": "TradeExecuted",
      "type": "event"
    },
    {
      "inputs": [
        {
          "internalType": "address",
          "name": "tokenA",
          "type": "address"
        },
        {
          "internalType": "address",
          "name": "tokenB",
          "type": "address"
        },
        {
          "internalType": "uint256",
          "name": "amountA",
          "type": "uint256"
        },
        {
          "internalType": "uint256",
          "name": "amountB",
          "type": "uint256"
        },
        {
          "internalType": "uint256",
          "name": "minAmountA",
          "type": "uint256"
        },
        {
          "internalType": "uint256",
          "name": "minAmountB",
          "type": "uint256"
        }
      ],
      "name": "addLiquidityToPool",
      "outputs": [
        {
          "internalType": "uint256",
          "name": "",
          "type": "uint256"
        },
        {
          "internalType": "uint256",
          "name": "",
          "type": "uint256"
        },
        {
          "internalType": "uint256",
          "name": "",
          "type": "uint256"
        }
      ],
      "stateMutability": "nonpayable",
      "type": "function"
    },
    {
      "inputs": [
        {
          "internalType": "address",
          "name": "",
          "type": "address"
        }
      ],
      "name": "authorizedStrategies",
      "outputs": [
        {
          "internalType": "bool",
          "name": "",
          "type": "bool"
        }
      ],
      "stateMutability": "view",
      "type": "function"
    },
    {
      "inputs": [
        {
          "internalType": "address",
          "name": "tokenIn",
          "type": "address"
        },
        {
          "internalType": "address",
          "name": "tokenOut",
          "type": "address"
        },
        {
          "internalType": "uint256",
          "name": "amountIn",
          "type": "uint256"
        },
        {
          "internalType": "uint256",
          "name": "minAmountOut",
          "type": "uint256"
        },
        {
          "internalType": "uint8",
          "name": "sentiment",
          "type": "uint8"
        }
      ],
      "name": "executeTrade",
      "outputs": [
        {
          "internalType": "uint256",
          "name": "",
          "type": "uint256"
        }
      ],
      "stateMutability": "nonpayable",
      "type": "function"
    },
    {
      "inputs": [
        {
          "internalType": "address",
          "name": "_strategy",
          "type": "address"
        },
        {
          "internalType": "bool",
          "name": "_authorized",
          "type": "bool"
        }
      ],
      "name": "setAuthorization",
      "outputs": [],
      "stateMutability": "nonpayable",
      "type": "function"
    },
    {
      "inputs": [],
      "name": "sonicRouter",
      "outputs": [
        {
          "internalType": "contract ISonicRouter",
          "name": "",
          "type": "address"
        }
      ],
      "stateMutability": "view",
      "type": "function"
    }
  ],
  "bytecode": "0x608034607057601f61073438819003918201601f19168301916001600160401b03831184841017607557808492602094604052833981010312607057516001600160a01b03811690819003607057600080546001600160a01b0319169190911790556040516106a8908161008c8239f35b600080fd5b634e487b7160e01b600052604160045260246000fdfe608080604052600436101561001357600080fd5b60003560e01c908163497cd59c14610565575080638915bd3d1461053c57806397d3fb2c146102515780639f43998e146100d25763eecea0001461005657600080fd5b346100cd5760403660031901126100cd5761006f6105a0565b602435908115158092036100cd5760207f5056a36abc1db1625034fdf114a164a0345b3ccf992fc1d51055e017375f47329160018060a01b0316928360005260018252604060002060ff1981541660ff8316179055604051908152a2005b600080fd5b346100cd5760c03660031901126100cd576100eb6105a0565b6100f36105b6565b9033600052600160205261010e60ff604060002054166105cc565b60018060a01b036000541661012c42019182421161023b57600091610104606092604051948593849262e8e33760e81b845260018060a01b03169889600485015260018060a01b03169788602485015260443560448501526064356064850152608435608485015260a43560a48501523360c485015260e48401525af190811561022f57600092839184936101e3575b506060947f36f3b2e1a21c19137dd82ec243b0708a1d26b3d1fa1dc49c44c4c366a587813860408051878152856020820152a360405192835260208301526040820152f35b9394925090506060833d606011610227575b8161020260609383610607565b8101031261022357825160208401516040909401519294509290606061019e565b8380fd5b3d91506101f5565b6040513d6000823e3d90fd5b634e487b7160e01b600052601160045260246000fd5b346100cd5760a03660031901126100cd5761026a6105a0565b6102726105b6565b9060843560ff81168091036100cd5733600052600160205261029b60ff604060002054166105cc565b8015159081610530575b50156104f7576040516060916102bb8383610607565b600282526020820190601f1984013683376102d58361063f565b6001600160a01b0390911690526102eb82610662565b6001600160a01b0394851690819052600054909416904261012c810190811061023b576040516338ed173960e01b8152604480356004830152606435602483015260a090820152935160a48501819052849260c48401929160005b8181106104d5575050506000838195938193336064840152608483015203925af190811561022f5760009161041e575b5061038081610662565b519261038b8261063f565b51670de0b6b3a7640000810290808204670de0b6b3a7640000149015171561023b576103b683610662565b51938415610408576020956103ff957fdc7340b3a0501f660c057bd15267f2aa43f3e6cd75f636a880921eb023e7966093604051928352600189840152046040820152a2610662565b51604051908152f35b634e487b7160e01b600052601260045260246000fd5b3d8083833e61042d8183610607565b8101906020818303126104d15780519067ffffffffffffffff821161022357019181601f840112156104ba5782519267ffffffffffffffff84116104bd578360051b9160208301946104826040519687610607565b85526020808601938301019384116104ba5750602001905b8282106104aa5750505083610376565b815181526020918201910161049a565b80fd5b634e487b7160e01b82526041600452602482fd5b8280fd5b82516001600160a01b0316855287955060209485019490920191600101610346565b60405162461bcd60e51b8152602060048201526011602482015270125b9d985b1a59081cd95b9d1a5b595b9d607a1b6044820152606490fd5b606491501115836102a5565b346100cd5760003660031901126100cd576000546040516001600160a01b039091168152602090f35b346100cd5760203660031901126100cd576020906001600160a01b036105896105a0565b166000526001825260ff6040600020541615158152f35b600435906001600160a01b03821682036100cd57565b602435906001600160a01b03821682036100cd57565b156105d357565b60405162461bcd60e51b815260206004820152600c60248201526b155b985d5d1a1bdc9a5e995960a21b6044820152606490fd5b90601f8019910116810190811067ffffffffffffffff82111761062957604052565b634e487b7160e01b600052604160045260246000fd5b80511561064c5760200190565b634e487b7160e01b600052603260045260246000fd5b80516001101561064c576040019056fea264697066735822122091ba9cc6769ea55f20d16eaf070939fa1c9aeb7ee348ca88f4002e666217ad1c64736f6c634300081c0033",
  "linkReferences": {},
  "deployedLinkReferences": {}
}